{"abi":[{"inputs":[{"internalType":"uint256","name":"minimum","type":"uint256"},{"internalType":"address","name":"creator","type":"address"},{"internalType":"string","name":"name","type":"string"},{"internalType":"string","name":"description","type":"string"},{"internalType":"string","name":"image","type":"string"}],"stateMutability":"nonpayable","type":"constructor"},{"inputs":[],"name":"CampaignDescription","outputs":[{"internalType":"string","name":"","type":"string"}],"stateMutability":"view","type":"function"},{"inputs":[],"name":"CampaignName","outputs":[{"internalType":"string","name":"","type":"string"}],"stateMutability":"view","type":"function"},{"inputs":[{"internalType":"uint256","name":"index","type":"uint256"}],"name":"approveRequest","outputs":[],"stateMutability":"nonpayable","type":"function"},{"inputs":[{"internalType":"address","name":"","type":"address"}],"name":"approvers","outputs":[{"internalType":"bool","name":"","type":"bool"}],"stateMutability":"view","type":"function"},{"inputs":[],"name":"approversCount","outputs":[{"internalType":"uint256","name":"","type":"uint256"}],"stateMutability":"view","type":"function"},{"inputs":[],"name":"contribute","outputs":[],"stateMutability":"payable","type":"function"},{"inputs":[{"internalType":"string","name":"description","type":"string"},{"internalType":"uint256","name":"value","type":"uint256"},{"internalType":"address","name":"recipient","type":"address"}],"name":"createRequest","outputs":[],"stateMutability":"nonpayable","type":"function"},{"inputs":[{"internalType":"uint256","name":"index","type":"uint256"}],"name":"finalizeRequest","outputs":[],"stateMutability":"nonpayable","type":"function"},{"inputs":[],"name":"getRequestsCount","outputs":[{"internalType":"uint256","name":"","type":"uint256"}],"stateMutability":"view","type":"function"},{"inputs":[],"name":"getSummary","outputs":[{"internalType":"uint256","name":"","type":"uint256"},{"internalType":"uint256","name":"","type":"uint256"},{"internalType":"uint256","name":"","type":"uint256"},{"internalType":"uint256","name":"","type":"uint256"},{"internalType":"address","name":"","type":"address"},{"internalType":"string","name":"","type":"string"},{"internalType":"string","name":"","type":"string"},{"internalType":"string","name":"","type":"string"}],"stateMutability":"view","type":"function"},{"inputs":[],"name":"imageUrl","outputs":[{"internalType":"string","name":"","type":"string"}],"stateMutability":"view","type":"function"},{"inputs":[],"name":"manager","outputs":[{"internalType":"address","name":"","type":"address"}],"stateMutability":"view","type":"function"},{"inputs":[],"name":"minimumContribution","outputs":[{"internalType":"uint256","name":"","type":"uint256"}],"stateMutability":"view","type":"function"},{"inputs":[{"internalType":"uint256","name":"","type":"uint256"}],"name":"requests","outputs":[{"internalType":"string","name":"description","type":"string"},{"internalType":"uint256","name":"value","type":"uint256"},{"internalType":"address","name":"recipient","type":"address"},{"internalType":"bool","name":"complete","type":"bool"},{"internalType":"uint256","name":"approvalCount","type":"uint256"}],"stateMutability":"view","type":"function"}],"devdoc":{"kind":"dev","methods":{},"version":1},"evm":{"assembly":"    /* \"Campaign.sol\":561:3475  contract Campaign {... */\n  mstore(0x40, 0x80)\n    /* \"Campaign.sol\":1311:1592  constructor(uint minimum, address creator, string memory name,string memory description,string memory image) {... */\n  callvalue\n  dup1\n  iszero\n  tag_1\n  jumpi\n  0x00\n  dup1\n  revert\ntag_1:\n  pop\n  mload(0x40)\n  sub(codesize, bytecodeSize)\n  dup1\n  bytecodeSize\n  dup4\n  codecopy\n  dup2\n  dup2\n  add\n  0x40\n  mstore\n  dup2\n  add\n  swap1\n  tag_2\n  swap2\n  swap1\n  tag_3\n  jump\t// in\ntag_2:\n    /* \"Campaign.sol\":1441:1448  creator */\n  dup4\n    /* \"Campaign.sol\":1431:1438  manager */\n  0x01\n  0x00\n    /* \"Campaign.sol\":1431:1448  manager = creator */\n  0x0100\n  exp\n  dup2\n  sload\n  dup2\n  0xffffffffffffffffffffffffffffffffffffffff\n  mul\n  not\n  and\n  swap1\n  dup4\n  0xffffffffffffffffffffffffffffffffffffffff\n  and\n  mul\n  or\n  swap1\n  sstore\n  pop\n    /* \"Campaign.sol\":1482:1489  minimum */\n  dup5\n    /* \"Campaign.sol\":1460:1479  minimumContribution */\n  0x02\n    /* \"Campaign.sol\":1460:1489  minimumContribution = minimum */\n  dup2\n  swap1\n  sstore\n  pop\n    /* \"Campaign.sol\":1513:1517  name */\n  dup3\n    /* \"Campaign.sol\":1500:1512  CampaignName */\n  0x03\n    /* \"Campaign.sol\":1500:1517  CampaignName=name */\n  swap1\n  dup2\n  tag_6\n  swap2\n  swap1\n  tag_7\n  jump\t// in\ntag_6:\n  pop\n    /* \"Campaign.sol\":1548:1559  description */\n  dup2\n    /* \"Campaign.sol\":1528:1547  CampaignDescription */\n  0x04\n    /* \"Campaign.sol\":1528:1559  CampaignDescription=description */\n  swap1\n  dup2\n  tag_8\n  swap2\n  swap1\n  tag_7\n  jump\t// in\ntag_8:\n  pop\n    /* \"Campaign.sol\":1579:1584  image */\n  dup1\n    /* \"Campaign.sol\":1570:1578  imageUrl */\n  0x05\n    /* \"Campaign.sol\":1570:1584  imageUrl=image */\n  swap1\n  dup2\n  tag_9\n  swap2\n  swap1\n  tag_7\n  jump\t// in\ntag_9:\n  pop\n    /* \"Campaign.sol\":1311:1592  constructor(uint minimum, address creator, string memory name,string memory description,string memory image) {... */\n  pop\n  pop\n  pop\n  pop\n  pop\n    /* \"Campaign.sol\":561:3475  contract Campaign {... */\n  jump(tag_10)\n    /* \"#utility.yul\":7:82   */\ntag_11:\n    /* \"#utility.yul\":40:46   */\n  0x00\n    /* \"#utility.yul\":73:75   */\n  0x40\n    /* \"#utility.yul\":67:76   */\n  mload\n    /* \"#utility.yul\":57:76   */\n  swap1\n  pop\n    /* \"#utility.yul\":7:82   */\n  swap1\n  jump\t// out\n    /* \"#utility.yul\":88:205   */\ntag_12:\n    /* \"#utility.yul\":197:198   */\n  0x00\n    /* \"#utility.yul\":194:195   */\n  dup1\n    /* \"#utility.yul\":187:199   */\n  revert\n    /* \"#utility.yul\":211:328   */\ntag_13:\n    /* \"#utility.yul\":320:321   */\n  0x00\n    /* \"#utility.yul\":317:318   */\n  dup1\n    /* \"#utility.yul\":310:322   */\n  revert\n    /* \"#utility.yul\":334:411   */\ntag_14:\n    /* \"#utility.yul\":371:378   */\n  0x00\n    /* \"#utility.yul\":400:405   */\n  dup2\n    /* \"#utility.yul\":389:405   */\n  swap1\n  pop\n    /* \"#utility.yul\":334:411   */\n  swap2\n  swap1\n  pop\n  jump\t// out\n    /* \"#utility.yul\":417:539   */\ntag_15:\n    /* \"#utility.yul\":490:514   */\n  tag_55\n    /* \"#utility.yul\":508:513   */\n  dup2\n    /* \"#utility.yul\":490:514   */\n  tag_14\n  jump\t// in\ntag_55:\n    /* \"#utility.yul\":483:488   */\n  dup2\n    /* \"#utility.yul\":480:515   */\n  eq\n    /* \"#utility.yul\":470:533   */\n  tag_56\n  jumpi\n    /* \"#utility.yul\":529:530   */\n  0x00\n    /* \"#utility.yul\":526:527   */\n  dup1\n    /* \"#utility.yul\":519:531   */\n  revert\n    /* \"#utility.yul\":470:533   */\ntag_56:\n    /* \"#utility.yul\":417:539   */\n  pop\n  jump\t// out\n    /* \"#utility.yul\":545:688   */\ntag_16:\n    /* \"#utility.yul\":602:607   */\n  0x00\n    /* \"#utility.yul\":633:639   */\n  dup2\n    /* \"#utility.yul\":627:640   */\n  mload\n    /* \"#utility.yul\":618:640   */\n  swap1\n  pop\n    /* \"#utility.yul\":649:682   */\n  tag_58\n    /* \"#utility.yul\":676:681   */\n  dup2\n    /* \"#utility.yul\":649:682   */\n  tag_15\n  jump\t// in\ntag_58:\n    /* \"#utility.yul\":545:688   */\n  swap3\n  swap2\n  pop\n  pop\n  jump\t// out\n    /* \"#utility.yul\":694:820   */\ntag_17:\n    /* \"#utility.yul\":731:738   */\n  0x00\n    /* \"#utility.yul\":771:813   */\n  0xffffffffffffffffffffffffffffffffffffffff\n    /* \"#utility.yul\":764:769   */\n  dup3\n    /* \"#utility.yul\":760:814   */\n  and\n    /* \"#utility.yul\":749:814   */\n  swap1\n  pop\n    /* \"#utility.yul\":694:820   */\n  swap2\n  swap1\n  pop\n  jump\t// out\n    /* \"#utility.yul\":826:922   */\ntag_18:\n    /* \"#utility.yul\":863:870   */\n  0x00\n    /* \"#utility.yul\":892:916   */\n  tag_61\n    /* \"#utility.yul\":910:915   */\n  dup3\n    /* \"#utility.yul\":892:916   */\n  tag_17\n  jump\t// in\ntag_61:\n    /* \"#utility.yul\":881:916   */\n  swap1\n  pop\n    /* \"#utility.yul\":826:922   */\n  swap2\n  swap1\n  pop\n  jump\t// out\n    /* \"#utility.yul\":928:1050   */\ntag_19:\n    /* \"#utility.yul\":1001:1025   */\n  tag_63\n    /* \"#utility.yul\":1019:1024   */\n  dup2\n    /* \"#utility.yul\":1001:1025   */\n  tag_18\n  jump\t// in\ntag_63:\n    /* \"#utility.yul\":994:999   */\n  dup2\n    /* \"#utility.yul\":991:1026   */\n  eq\n    /* \"#utility.yul\":981:1044   */\n  tag_64\n  jumpi\n    /* \"#utility.yul\":1040:1041   */\n  0x00\n    /* \"#utility.yul\":1037:1038   */\n  dup1\n    /* \"#utility.yul\":1030:1042   */\n  revert\n    /* \"#utility.yul\":981:1044   */\ntag_64:\n    /* \"#utility.yul\":928:1050   */\n  pop\n  jump\t// out\n    /* \"#utility.yul\":1056:1199   */\ntag_20:\n    /* \"#utility.yul\":1113:1118   */\n  0x00\n    /* \"#utility.yul\":1144:1150   */\n  dup2\n    /* \"#utility.yul\":1138:1151   */\n  mload\n    /* \"#utility.yul\":1129:1151   */\n  swap1\n  pop\n    /* \"#utility.yul\":1160:1193   */\n  tag_66\n    /* \"#utility.yul\":1187:1192   */\n  dup2\n    /* \"#utility.yul\":1160:1193   */\n  tag_19\n  jump\t// in\ntag_66:\n    /* \"#utility.yul\":1056:1199   */\n  swap3\n  swap2\n  pop\n  pop\n  jump\t// out\n    /* \"#utility.yul\":1205:1322   */\ntag_21:\n    /* \"#utility.yul\":1314:1315   */\n  0x00\n    /* \"#utility.yul\":1311:1312   */\n  dup1\n    /* \"#utility.yul\":1304:1316   */\n  revert\n    /* \"#utility.yul\":1328:1445   */\ntag_22:\n    /* \"#utility.yul\":1437:1438   */\n  0x00\n    /* \"#utility.yul\":1434:1435   */\n  dup1\n    /* \"#utility.yul\":1427:1439   */\n  revert\n    /* \"#utility.yul\":1451:1553   */\ntag_23:\n    /* \"#utility.yul\":1492:1498   */\n  0x00\n    /* \"#utility.yul\":1543:1545   */\n  0x1f\n    /* \"#utility.yul\":1539:1546   */\n  not\n    /* \"#utility.yul\":1534:1536   */\n  0x1f\n    /* \"#utility.yul\":1527:1532   */\n  dup4\n    /* \"#utility.yul\":1523:1537   */\n  add\n    /* \"#utility.yul\":1519:1547   */\n  and\n    /* \"#utility.yul\":1509:1547   */\n  swap1\n  pop\n    /* \"#utility.yul\":1451:1553   */\n  swap2\n  swap1\n  pop\n  jump\t// out\n    /* \"#utility.yul\":1559:1739   */\ntag_24:\n    /* \"#utility.yul\":1607:1684   */\n  0x4e487b7100000000000000000000000000000000000000000000000000000000\n    /* \"#utility.yul\":1604:1605   */\n  0x00\n    /* \"#utility.yul\":1597:1685   */\n  mstore\n    /* \"#utility.yul\":1704:1708   */\n  0x41\n    /* \"#utility.yul\":1701:1702   */\n  0x04\n    /* \"#utility.yul\":1694:1709   */\n  mstore\n    /* \"#utility.yul\":1728:1732   */\n  0x24\n    /* \"#utility.yul\":1725:1726   */\n  0x00\n    /* \"#utility.yul\":1718:1733   */\n  revert\n    /* \"#utility.yul\":1745:2026   */\ntag_25:\n    /* \"#utility.yul\":1828:1855   */\n  tag_72\n    /* \"#utility.yul\":1850:1854   */\n  dup3\n    /* \"#utility.yul\":1828:1855   */\n  tag_23\n  jump\t// in\ntag_72:\n    /* \"#utility.yul\":1820:1826   */\n  dup2\n    /* \"#utility.yul\":1816:1856   */\n  add\n    /* \"#utility.yul\":1958:1964   */\n  dup2\n    /* \"#utility.yul\":1946:1956   */\n  dup2\n    /* \"#utility.yul\":1943:1965   */\n  lt\n    /* \"#utility.yul\":1922:1940   */\n  0xffffffffffffffff\n    /* \"#utility.yul\":1910:1920   */\n  dup3\n    /* \"#utility.yul\":1907:1941   */\n  gt\n    /* \"#utility.yul\":1904:1966   */\n  or\n    /* \"#utility.yul\":1901:1989   */\n  iszero\n  tag_73\n  jumpi\n    /* \"#utility.yul\":1969:1987   */\n  tag_74\n  tag_24\n  jump\t// in\ntag_74:\n    /* \"#utility.yul\":1901:1989   */\ntag_73:\n    /* \"#utility.yul\":2009:2019   */\n  dup1\n    /* \"#utility.yul\":2005:2007   */\n  0x40\n    /* \"#utility.yul\":1998:2020   */\n  mstore\n    /* \"#utility.yul\":1788:2026   */\n  pop\n    /* \"#utility.yul\":1745:2026   */\n  pop\n  pop\n  jump\t// out\n    /* \"#utility.yul\":2032:2161   */\ntag_26:\n    /* \"#utility.yul\":2066:2072   */\n  0x00\n    /* \"#utility.yul\":2093:2113   */\n  tag_76\n  tag_11\n  jump\t// in\ntag_76:\n    /* \"#utility.yul\":2083:2113   */\n  swap1\n  pop\n    /* \"#utility.yul\":2122:2155   */\n  tag_77\n    /* \"#utility.yul\":2150:2154   */\n  dup3\n    /* \"#utility.yul\":2142:2148   */\n  dup3\n    /* \"#utility.yul\":2122:2155   */\n  tag_25\n  jump\t// in\ntag_77:\n    /* \"#utility.yul\":2032:2161   */\n  swap2\n  swap1\n  pop\n  jump\t// out\n    /* \"#utility.yul\":2167:2475   */\ntag_27:\n    /* \"#utility.yul\":2229:2233   */\n  0x00\n    /* \"#utility.yul\":2319:2337   */\n  0xffffffffffffffff\n    /* \"#utility.yul\":2311:2317   */\n  dup3\n    /* \"#utility.yul\":2308:2338   */\n  gt\n    /* \"#utility.yul\":2305:2361   */\n  iszero\n  tag_79\n  jumpi\n    /* \"#utility.yul\":2341:2359   */\n  tag_80\n  tag_24\n  jump\t// in\ntag_80:\n    /* \"#utility.yul\":2305:2361   */\ntag_79:\n    /* \"#utility.yul\":2379:2408   */\n  tag_81\n    /* \"#utility.yul\":2401:2407   */\n  dup3\n    /* \"#utility.yul\":2379:2408   */\n  tag_23\n  jump\t// in\ntag_81:\n    /* \"#utility.yul\":2371:2408   */\n  swap1\n  pop\n    /* \"#utility.yul\":2463:2467   */\n  0x20\n    /* \"#utility.yul\":2457:2461   */\n  dup2\n    /* \"#utility.yul\":2453:2468   */\n  add\n    /* \"#utility.yul\":2445:2468   */\n  swap1\n  pop\n    /* \"#utility.yul\":2167:2475   */\n  swap2\n  swap1\n  pop\n  jump\t// out\n    /* \"#utility.yul\":2481:2727   */\ntag_28:\n    /* \"#utility.yul\":2562:2563   */\n  0x00\n    /* \"#utility.yul\":2572:2685   */\ntag_83:\n    /* \"#utility.yul\":2586:2592   */\n  dup4\n    /* \"#utility.yul\":2583:2584   */\n  dup2\n    /* \"#utility.yul\":2580:2593   */\n  lt\n    /* \"#utility.yul\":2572:2685   */\n  iszero\n  tag_85\n  jumpi\n    /* \"#utility.yul\":2671:2672   */\n  dup1\n    /* \"#utility.yul\":2666:2669   */\n  dup3\n    /* \"#utility.yul\":2662:2673   */\n  add\n    /* \"#utility.yul\":2656:2674   */\n  mload\n    /* \"#utility.yul\":2652:2653   */\n  dup2\n    /* \"#utility.yul\":2647:2650   */\n  dup5\n    /* \"#utility.yul\":2643:2654   */\n  add\n    /* \"#utility.yul\":2636:2675   */\n  mstore\n    /* \"#utility.yul\":2608:2610   */\n  0x20\n    /* \"#utility.yul\":2605:2606   */\n  dup2\n    /* \"#utility.yul\":2601:2611   */\n  add\n    /* \"#utility.yul\":2596:2611   */\n  swap1\n  pop\n    /* \"#utility.yul\":2572:2685   */\n  jump(tag_83)\ntag_85:\n    /* \"#utility.yul\":2719:2720   */\n  0x00\n    /* \"#utility.yul\":2710:2716   */\n  dup5\n    /* \"#utility.yul\":2705:2708   */\n  dup5\n    /* \"#utility.yul\":2701:2717   */\n  add\n    /* \"#utility.yul\":2694:2721   */\n  mstore\n    /* \"#utility.yul\":2543:2727   */\n  pop\n    /* \"#utility.yul\":2481:2727   */\n  pop\n  pop\n  pop\n  jump\t// out\n    /* \"#utility.yul\":2733:3167   */\ntag_29:\n    /* \"#utility.yul\":2822:2827   */\n  0x00\n    /* \"#utility.yul\":2847:2913   */\n  tag_87\n    /* \"#utility.yul\":2863:2912   */\n  tag_88\n    /* \"#utility.yul\":2905:2911   */\n  dup5\n    /* \"#utility.yul\":2863:2912   */\n  tag_27\n  jump\t// in\ntag_88:\n    /* \"#utility.yul\":2847:2913   */\n  tag_26\n  jump\t// in\ntag_87:\n    /* \"#utility.yul\":2838:2913   */\n  swap1\n  pop\n    /* \"#utility.yul\":2936:2942   */\n  dup3\n    /* \"#utility.yul\":2929:2934   */\n  dup2\n    /* \"#utility.yul\":2922:2943   */\n  mstore\n    /* \"#utility.yul\":2974:2978   */\n  0x20\n    /* \"#utility.yul\":2967:2972   */\n  dup2\n    /* \"#utility.yul\":2963:2979   */\n  add\n    /* \"#utility.yul\":3012:3015   */\n  dup5\n    /* \"#utility.yul\":3003:3009   */\n  dup5\n    /* \"#utility.yul\":2998:3001   */\n  dup5\n    /* \"#utility.yul\":2994:3010   */\n  add\n    /* \"#utility.yul\":2991:3016   */\n  gt\n    /* \"#utility.yul\":2988:3100   */\n  iszero\n  tag_89\n  jumpi\n    /* \"#utility.yul\":3019:3098   */\n  tag_90\n  tag_22\n  jump\t// in\ntag_90:\n    /* \"#utility.yul\":2988:3100   */\ntag_89:\n    /* \"#utility.yul\":3109:3161   */\n  tag_91\n    /* \"#utility.yul\":3154:3160   */\n  dup5\n    /* \"#utility.yul\":3149:3152   */\n  dup3\n    /* \"#utility.yul\":3144:3147   */\n  dup6\n    /* \"#utility.yul\":3109:3161   */\n  tag_28\n  jump\t// in\ntag_91:\n    /* \"#utility.yul\":2828:3167   */\n  pop\n    /* \"#utility.yul\":2733:3167   */\n  swap4\n  swap3\n  pop\n  pop\n  pop\n  jump\t// out\n    /* \"#utility.yul\":3187:3542   */\ntag_30:\n    /* \"#utility.yul\":3254:3259   */\n  0x00\n    /* \"#utility.yul\":3303:3306   */\n  dup3\n    /* \"#utility.yul\":3296:3300   */\n  0x1f\n    /* \"#utility.yul\":3288:3294   */\n  dup4\n    /* \"#utility.yul\":3284:3301   */\n  add\n    /* \"#utility.yul\":3280:3307   */\n  slt\n    /* \"#utility.yul\":3270:3392   */\n  tag_93\n  jumpi\n    /* \"#utility.yul\":3311:3390   */\n  tag_94\n  tag_21\n  jump\t// in\ntag_94:\n    /* \"#utility.yul\":3270:3392   */\ntag_93:\n    /* \"#utility.yul\":3421:3427   */\n  dup2\n    /* \"#utility.yul\":3415:3428   */\n  mload\n    /* \"#utility.yul\":3446:3536   */\n  tag_95\n    /* \"#utility.yul\":3532:3535   */\n  dup5\n    /* \"#utility.yul\":3524:3530   */\n  dup3\n    /* \"#utility.yul\":3517:3521   */\n  0x20\n    /* \"#utility.yul\":3509:3515   */\n  dup7\n    /* \"#utility.yul\":3505:3522   */\n  add\n    /* \"#utility.yul\":3446:3536   */\n  tag_29\n  jump\t// in\ntag_95:\n    /* \"#utility.yul\":3437:3536   */\n  swap2\n  pop\n    /* \"#utility.yul\":3260:3542   */\n  pop\n    /* \"#utility.yul\":3187:3542   */\n  swap3\n  swap2\n  pop\n  pop\n  jump\t// out\n    /* \"#utility.yul\":3548:5044   */\ntag_3:\n    /* \"#utility.yul\":3684:3690   */\n  0x00\n    /* \"#utility.yul\":3692:3698   */\n  dup1\n    /* \"#utility.yul\":3700:3706   */\n  0x00\n    /* \"#utility.yul\":3708:3714   */\n  dup1\n    /* \"#utility.yul\":3716:3722   */\n  0x00\n    /* \"#utility.yul\":3765:3768   */\n  0xa0\n    /* \"#utility.yul\":3753:3762   */\n  dup7\n    /* \"#utility.yul\":3744:3751   */\n  dup9\n    /* \"#utility.yul\":3740:3763   */\n  sub\n    /* \"#utility.yul\":3736:3769   */\n  slt\n    /* \"#utility.yul\":3733:3853   */\n  iszero\n  tag_97\n  jumpi\n    /* \"#utility.yul\":3772:3851   */\n  tag_98\n  tag_12\n  jump\t// in\ntag_98:\n    /* \"#utility.yul\":3733:3853   */\ntag_97:\n    /* \"#utility.yul\":3892:3893   */\n  0x00\n    /* \"#utility.yul\":3917:3981   */\n  tag_99\n    /* \"#utility.yul\":3973:3980   */\n  dup9\n    /* \"#utility.yul\":3964:3970   */\n  dup3\n    /* \"#utility.yul\":3953:3962   */\n  dup10\n    /* \"#utility.yul\":3949:3971   */\n  add\n    /* \"#utility.yul\":3917:3981   */\n  tag_16\n  jump\t// in\ntag_99:\n    /* \"#utility.yul\":3907:3981   */\n  swap6\n  pop\n    /* \"#utility.yul\":3863:3991   */\n  pop\n    /* \"#utility.yul\":4030:4032   */\n  0x20\n    /* \"#utility.yul\":4056:4120   */\n  tag_100\n    /* \"#utility.yul\":4112:4119   */\n  dup9\n    /* \"#utility.yul\":4103:4109   */\n  dup3\n    /* \"#utility.yul\":4092:4101   */\n  dup10\n    /* \"#utility.yul\":4088:4110   */\n  add\n    /* \"#utility.yul\":4056:4120   */\n  tag_20\n  jump\t// in\ntag_100:\n    /* \"#utility.yul\":4046:4120   */\n  swap5\n  pop\n    /* \"#utility.yul\":4001:4130   */\n  pop\n    /* \"#utility.yul\":4190:4192   */\n  0x40\n    /* \"#utility.yul\":4179:4188   */\n  dup7\n    /* \"#utility.yul\":4175:4193   */\n  add\n    /* \"#utility.yul\":4169:4194   */\n  mload\n    /* \"#utility.yul\":4221:4239   */\n  0xffffffffffffffff\n    /* \"#utility.yul\":4213:4219   */\n  dup2\n    /* \"#utility.yul\":4210:4240   */\n  gt\n    /* \"#utility.yul\":4207:4324   */\n  iszero\n  tag_101\n  jumpi\n    /* \"#utility.yul\":4243:4322   */\n  tag_102\n  tag_13\n  jump\t// in\ntag_102:\n    /* \"#utility.yul\":4207:4324   */\ntag_101:\n    /* \"#utility.yul\":4348:4422   */\n  tag_103\n    /* \"#utility.yul\":4414:4421   */\n  dup9\n    /* \"#utility.yul\":4405:4411   */\n  dup3\n    /* \"#utility.yul\":4394:4403   */\n  dup10\n    /* \"#utility.yul\":4390:4412   */\n  add\n    /* \"#utility.yul\":4348:4422   */\n  tag_30\n  jump\t// in\ntag_103:\n    /* \"#utility.yul\":4338:4422   */\n  swap4\n  pop\n    /* \"#utility.yul\":4140:4432   */\n  pop\n    /* \"#utility.yul\":4492:4494   */\n  0x60\n    /* \"#utility.yul\":4481:4490   */\n  dup7\n    /* \"#utility.yul\":4477:4495   */\n  add\n    /* \"#utility.yul\":4471:4496   */\n  mload\n    /* \"#utility.yul\":4523:4541   */\n  0xffffffffffffffff\n    /* \"#utility.yul\":4515:4521   */\n  dup2\n    /* \"#utility.yul\":4512:4542   */\n  gt\n    /* \"#utility.yul\":4509:4626   */\n  iszero\n  tag_104\n  jumpi\n    /* \"#utility.yul\":4545:4624   */\n  tag_105\n  tag_13\n  jump\t// in\ntag_105:\n    /* \"#utility.yul\":4509:4626   */\ntag_104:\n    /* \"#utility.yul\":4650:4724   */\n  tag_106\n    /* \"#utility.yul\":4716:4723   */\n  dup9\n    /* \"#utility.yul\":4707:4713   */\n  dup3\n    /* \"#utility.yul\":4696:4705   */\n  dup10\n    /* \"#utility.yul\":4692:4714   */\n  add\n    /* \"#utility.yul\":4650:4724   */\n  tag_30\n  jump\t// in\ntag_106:\n    /* \"#utility.yul\":4640:4724   */\n  swap3\n  pop\n    /* \"#utility.yul\":4442:4734   */\n  pop\n    /* \"#utility.yul\":4794:4797   */\n  0x80\n    /* \"#utility.yul\":4783:4792   */\n  dup7\n    /* \"#utility.yul\":4779:4798   */\n  add\n    /* \"#utility.yul\":4773:4799   */\n  mload\n    /* \"#utility.yul\":4826:4844   */\n  0xffffffffffffffff\n    /* \"#utility.yul\":4818:4824   */\n  dup2\n    /* \"#utility.yul\":4815:4845   */\n  gt\n    /* \"#utility.yul\":4812:4929   */\n  iszero\n  tag_107\n  jumpi\n    /* \"#utility.yul\":4848:4927   */\n  tag_108\n  tag_13\n  jump\t// in\ntag_108:\n    /* \"#utility.yul\":4812:4929   */\ntag_107:\n    /* \"#utility.yul\":4953:5027   */\n  tag_109\n    /* \"#utility.yul\":5019:5026   */\n  dup9\n    /* \"#utility.yul\":5010:5016   */\n  dup3\n    /* \"#utility.yul\":4999:5008   */\n  dup10\n    /* \"#utility.yul\":4995:5017   */\n  add\n    /* \"#utility.yul\":4953:5027   */\n  tag_30\n  jump\t// in\ntag_109:\n    /* \"#utility.yul\":4943:5027   */\n  swap2\n  pop\n    /* \"#utility.yul\":4744:5037   */\n  pop\n    /* \"#utility.yul\":3548:5044   */\n  swap3\n  swap6\n  pop\n  swap3\n  swap6\n  swap1\n  swap4\n  pop\n  jump\t// out\n    /* \"#utility.yul\":5050:5149   */\ntag_31:\n    /* \"#utility.yul\":5102:5108   */\n  0x00\n    /* \"#utility.yul\":5136:5141   */\n  dup2\n    /* \"#utility.yul\":5130:5142   */\n  mload\n    /* \"#utility.yul\":5120:5142   */\n  swap1\n  pop\n    /* \"#utility.yul\":5050:5149   */\n  swap2\n  swap1\n  pop\n  jump\t// out\n    /* \"#utility.yul\":5155:5335   */\ntag_32:\n    /* \"#utility.yul\":5203:5280   */\n  0x4e487b7100000000000000000000000000000000000000000000000000000000\n    /* \"#utility.yul\":5200:5201   */\n  0x00\n    /* \"#utility.yul\":5193:5281   */\n  mstore\n    /* \"#utility.yul\":5300:5304   */\n  0x22\n    /* \"#utility.yul\":5297:5298   */\n  0x04\n    /* \"#utility.yul\":5290:5305   */\n  mstore\n    /* \"#utility.yul\":5324:5328   */\n  0x24\n    /* \"#utility.yul\":5321:5322   */\n  0x00\n    /* \"#utility.yul\":5314:5329   */\n  revert\n    /* \"#utility.yul\":5341:5661   */\ntag_33:\n    /* \"#utility.yul\":5385:5391   */\n  0x00\n    /* \"#utility.yul\":5422:5423   */\n  0x02\n    /* \"#utility.yul\":5416:5420   */\n  dup3\n    /* \"#utility.yul\":5412:5424   */\n  div\n    /* \"#utility.yul\":5402:5424   */\n  swap1\n  pop\n    /* \"#utility.yul\":5469:5470   */\n  0x01\n    /* \"#utility.yul\":5463:5467   */\n  dup3\n    /* \"#utility.yul\":5459:5471   */\n  and\n    /* \"#utility.yul\":5490:5508   */\n  dup1\n    /* \"#utility.yul\":5480:5561   */\n  tag_113\n  jumpi\n    /* \"#utility.yul\":5546:5550   */\n  0x7f\n    /* \"#utility.yul\":5538:5544   */\n  dup3\n    /* \"#utility.yul\":5534:5551   */\n  and\n    /* \"#utility.yul\":5524:5551   */\n  swap2\n  pop\n    /* \"#utility.yul\":5480:5561   */\ntag_113:\n    /* \"#utility.yul\":5608:5610   */\n  0x20\n    /* \"#utility.yul\":5600:5606   */\n  dup3\n    /* \"#utility.yul\":5597:5611   */\n  lt\n    /* \"#utility.yul\":5577:5595   */\n  dup2\n    /* \"#utility.yul\":5574:5612   */\n  sub\n    /* \"#utility.yul\":5571:5655   */\n  tag_114\n  jumpi\n    /* \"#utility.yul\":5627:5645   */\n  tag_115\n  tag_32\n  jump\t// in\ntag_115:\n    /* \"#utility.yul\":5571:5655   */\ntag_114:\n    /* \"#utility.yul\":5392:5661   */\n  pop\n    /* \"#utility.yul\":5341:5661   */\n  swap2\n  swap1\n  pop\n  jump\t// out\n    /* \"#utility.yul\":5667:5808   */\ntag_34:\n    /* \"#utility.yul\":5716:5720   */\n  0x00\n    /* \"#utility.yul\":5739:5742   */\n  dup2\n    /* \"#utility.yul\":5731:5742   */\n  swap1\n  pop\n    /* \"#utility.yul\":5762:5765   */\n  dup2\n    /* \"#utility.yul\":5759:5760   */\n  0x00\n    /* \"#utility.yul\":5752:5766   */\n  mstore\n    /* \"#utility.yul\":5796:5800   */\n  0x20\n    /* \"#utility.yul\":5793:5794   */\n  0x00\n    /* \"#utility.yul\":5783:5801   */\n  keccak256\n    /* \"#utility.yul\":5775:5801   */\n  swap1\n  pop\n    /* \"#utility.yul\":5667:5808   */\n  swap2\n  swap1\n  pop\n  jump\t// out\n    /* \"#utility.yul\":5814:5907   */\ntag_35:\n    /* \"#utility.yul\":5851:5857   */\n  0x00\n    /* \"#utility.yul\":5898:5900   */\n  0x20\n    /* \"#utility.yul\":5893:5895   */\n  0x1f\n    /* \"#utility.yul\":5886:5891   */\n  dup4\n    /* \"#utility.yul\":5882:5896   */\n  add\n    /* \"#utility.yul\":5878:5901   */\n  div\n    /* \"#utility.yul\":5868:5901   */\n  swap1\n  pop\n    /* \"#utility.yul\":5814:5907   */\n  swap2\n  swap1\n  pop\n  jump\t// out\n    /* \"#utility.yul\":5913:6020   */\ntag_36:\n    /* \"#utility.yul\":5957:5965   */\n  0x00\n    /* \"#utility.yul\":6007:6012   */\n  dup3\n    /* \"#utility.yul\":6001:6005   */\n  dup3\n    /* \"#utility.yul\":5997:6013   */\n  shl\n    /* \"#utility.yul\":5976:6013   */\n  swap1\n  pop\n    /* \"#utility.yul\":5913:6020   */\n  swap3\n  swap2\n  pop\n  pop\n  jump\t// out\n    /* \"#utility.yul\":6026:6419   */\ntag_37:\n    /* \"#utility.yul\":6095:6101   */\n  0x00\n    /* \"#utility.yul\":6145:6146   */\n  0x08\n    /* \"#utility.yul\":6133:6143   */\n  dup4\n    /* \"#utility.yul\":6129:6147   */\n  mul\n    /* \"#utility.yul\":6168:6265   */\n  tag_120\n    /* \"#utility.yul\":6198:6264   */\n  0xffffffffffffffffffffffffffffffffffffffffffffffffffffffffffffffff\n    /* \"#utility.yul\":6187:6196   */\n  dup3\n    /* \"#utility.yul\":6168:6265   */\n  tag_36\n  jump\t// in\ntag_120:\n    /* \"#utility.yul\":6286:6325   */\n  tag_121\n    /* \"#utility.yul\":6316:6324   */\n  dup7\n    /* \"#utility.yul\":6305:6314   */\n  dup4\n    /* \"#utility.yul\":6286:6325   */\n  tag_36\n  jump\t// in\ntag_121:\n    /* \"#utility.yul\":6274:6325   */\n  swap6\n  pop\n    /* \"#utility.yul\":6358:6362   */\n  dup1\n    /* \"#utility.yul\":6354:6363   */\n  not\n    /* \"#utility.yul\":6347:6352   */\n  dup5\n    /* \"#utility.yul\":6343:6364   */\n  and\n    /* \"#utility.yul\":6334:6364   */\n  swap4\n  pop\n    /* \"#utility.yul\":6407:6411   */\n  dup1\n    /* \"#utility.yul\":6397:6405   */\n  dup7\n    /* \"#utility.yul\":6393:6412   */\n  and\n    /* \"#utility.yul\":6386:6391   */\n  dup5\n    /* \"#utility.yul\":6383:6413   */\n  or\n    /* \"#utility.yul\":6373:6413   */\n  swap3\n  pop\n    /* \"#utility.yul\":6102:6419   */\n  pop\n  pop\n    /* \"#utility.yul\":6026:6419   */\n  swap4\n  swap3\n  pop\n  pop\n  pop\n  jump\t// out\n    /* \"#utility.yul\":6425:6485   */\ntag_38:\n    /* \"#utility.yul\":6453:6456   */\n  0x00\n    /* \"#utility.yul\":6474:6479   */\n  dup2\n    /* \"#utility.yul\":6467:6479   */\n  swap1\n  pop\n    /* \"#utility.yul\":6425:6485   */\n  swap2\n  swap1\n  pop\n  jump\t// out\n    /* \"#utility.yul\":6491:6633   */\ntag_39:\n    /* \"#utility.yul\":6541:6550   */\n  0x00\n    /* \"#utility.yul\":6574:6627   */\n  tag_124\n    /* \"#utility.yul\":6592:6626   */\n  tag_125\n    /* \"#utility.yul\":6601:6625   */\n  tag_126\n    /* \"#utility.yul\":6619:6624   */\n  dup5\n    /* \"#utility.yul\":6601:6625   */\n  tag_14\n  jump\t// in\ntag_126:\n    /* \"#utility.yul\":6592:6626   */\n  tag_38\n  jump\t// in\ntag_125:\n    /* \"#utility.yul\":6574:6627   */\n  tag_14\n  jump\t// in\ntag_124:\n    /* \"#utility.yul\":6561:6627   */\n  swap1\n  pop\n    /* \"#utility.yul\":6491:6633   */\n  swap2\n  swap1\n  pop\n  jump\t// out\n    /* \"#utility.yul\":6639:6714   */\ntag_40:\n    /* \"#utility.yul\":6682:6685   */\n  0x00\n    /* \"#utility.yul\":6703:6708   */\n  dup2\n    /* \"#utility.yul\":6696:6708   */\n  swap1\n  pop\n    /* \"#utility.yul\":6639:6714   */\n  swap2\n  swap1\n  pop\n  jump\t// out\n    /* \"#utility.yul\":6720:6989   */\ntag_41:\n    /* \"#utility.yul\":6830:6869   */\n  tag_129\n    /* \"#utility.yul\":6861:6868   */\n  dup4\n    /* \"#utility.yul\":6830:6869   */\n  tag_39\n  jump\t// in\ntag_129:\n    /* \"#utility.yul\":6891:6982   */\n  tag_130\n    /* \"#utility.yul\":6940:6981   */\n  tag_131\n    /* \"#utility.yul\":6964:6980   */\n  dup3\n    /* \"#utility.yul\":6940:6981   */\n  tag_40\n  jump\t// in\ntag_131:\n    /* \"#utility.yul\":6932:6938   */\n  dup5\n    /* \"#utility.yul\":6925:6929   */\n  dup5\n    /* \"#utility.yul\":6919:6930   */\n  sload\n    /* \"#utility.yul\":6891:6982   */\n  tag_37\n  jump\t// in\ntag_130:\n    /* \"#utility.yul\":6885:6889   */\n  dup3\n    /* \"#utility.yul\":6878:6983   */\n  sstore\n    /* \"#utility.yul\":6796:6989   */\n  pop\n    /* \"#utility.yul\":6720:6989   */\n  pop\n  pop\n  pop\n  jump\t// out\n    /* \"#utility.yul\":6995:7068   */\ntag_42:\n    /* \"#utility.yul\":7040:7043   */\n  0x00\n    /* \"#utility.yul\":6995:7068   */\n  swap1\n  jump\t// out\n    /* \"#utility.yul\":7074:7263   */\ntag_43:\n    /* \"#utility.yul\":7151:7183   */\n  tag_134\n  tag_42\n  jump\t// in\ntag_134:\n    /* \"#utility.yul\":7192:7257   */\n  tag_135\n    /* \"#utility.yul\":7250:7256   */\n  dup2\n    /* \"#utility.yul\":7242:7248   */\n  dup5\n    /* \"#utility.yul\":7236:7240   */\n  dup5\n    /* \"#utility.yul\":7192:7257   */\n  tag_41\n  jump\t// in\ntag_135:\n    /* \"#utility.yul\":7127:7263   */\n  pop\n    /* \"#utility.yul\":7074:7263   */\n  pop\n  pop\n  jump\t// out\n    /* \"#utility.yul\":7269:7455   */\ntag_44:\n    /* \"#utility.yul\":7329:7449   */\ntag_137:\n    /* \"#utility.yul\":7346:7349   */\n  dup2\n    /* \"#utility.yul\":7339:7344   */\n  dup2\n    /* \"#utility.yul\":7336:7350   */\n  lt\n    /* \"#utility.yul\":7329:7449   */\n  iszero\n  tag_139\n  jumpi\n    /* \"#utility.yul\":7400:7439   */\n  tag_140\n    /* \"#utility.yul\":7437:7438   */\n  0x00\n    /* \"#utility.yul\":7430:7435   */\n  dup3\n    /* \"#utility.yul\":7400:7439   */\n  tag_43\n  jump\t// in\ntag_140:\n    /* \"#utility.yul\":7373:7374   */\n  0x01\n    /* \"#utility.yul\":7366:7371   */\n  dup2\n    /* \"#utility.yul\":7362:7375   */\n  add\n    /* \"#utility.yul\":7353:7375   */\n  swap1\n  pop\n    /* \"#utility.yul\":7329:7449   */\n  jump(tag_137)\ntag_139:\n    /* \"#utility.yul\":7269:7455   */\n  pop\n  pop\n  jump\t// out\n    /* \"#utility.yul\":7461:8004   */\ntag_45:\n    /* \"#utility.yul\":7562:7564   */\n  0x1f\n    /* \"#utility.yul\":7557:7560   */\n  dup3\n    /* \"#utility.yul\":7554:7565   */\n  gt\n    /* \"#utility.yul\":7551:7997   */\n  iszero\n  tag_142\n  jumpi\n    /* \"#utility.yul\":7596:7634   */\n  tag_143\n    /* \"#utility.yul\":7628:7633   */\n  dup2\n    /* \"#utility.yul\":7596:7634   */\n  tag_34\n  jump\t// in\ntag_143:\n    /* \"#utility.yul\":7680:7709   */\n  tag_144\n    /* \"#utility.yul\":7698:7708   */\n  dup5\n    /* \"#utility.yul\":7680:7709   */\n  tag_35\n  jump\t// in\ntag_144:\n    /* \"#utility.yul\":7670:7678   */\n  dup2\n    /* \"#utility.yul\":7666:7710   */\n  add\n    /* \"#utility.yul\":7863:7865   */\n  0x20\n    /* \"#utility.yul\":7851:7861   */\n  dup6\n    /* \"#utility.yul\":7848:7866   */\n  lt\n    /* \"#utility.yul\":7845:7894   */\n  iszero\n  tag_145\n  jumpi\n    /* \"#utility.yul\":7884:7892   */\n  dup2\n    /* \"#utility.yul\":7869:7892   */\n  swap1\n  pop\n    /* \"#utility.yul\":7845:7894   */\ntag_145:\n    /* \"#utility.yul\":7907:7987   */\n  tag_146\n    /* \"#utility.yul\":7963:7985   */\n  tag_147\n    /* \"#utility.yul\":7981:7984   */\n  dup6\n    /* \"#utility.yul\":7963:7985   */\n  tag_35\n  jump\t// in\ntag_147:\n    /* \"#utility.yul\":7953:7961   */\n  dup4\n    /* \"#utility.yul\":7949:7986   */\n  add\n    /* \"#utility.yul\":7936:7947   */\n  dup3\n    /* \"#utility.yul\":7907:7987   */\n  tag_44\n  jump\t// in\ntag_146:\n    /* \"#utility.yul\":7566:7997   */\n  pop\n  pop\n    /* \"#utility.yul\":7551:7997   */\ntag_142:\n    /* \"#utility.yul\":7461:8004   */\n  pop\n  pop\n  pop\n  jump\t// out\n    /* \"#utility.yul\":8010:8127   */\ntag_46:\n    /* \"#utility.yul\":8064:8072   */\n  0x00\n    /* \"#utility.yul\":8114:8119   */\n  dup3\n    /* \"#utility.yul\":8108:8112   */\n  dup3\n    /* \"#utility.yul\":8104:8120   */\n  shr\n    /* \"#utility.yul\":8083:8120   */\n  swap1\n  pop\n    /* \"#utility.yul\":8010:8127   */\n  swap3\n  swap2\n  pop\n  pop\n  jump\t// out\n    /* \"#utility.yul\":8133:8302   */\ntag_47:\n    /* \"#utility.yul\":8177:8183   */\n  0x00\n    /* \"#utility.yul\":8210:8261   */\n  tag_150\n    /* \"#utility.yul\":8258:8259   */\n  0x00\n    /* \"#utility.yul\":8254:8260   */\n  not\n    /* \"#utility.yul\":8246:8251   */\n  dup5\n    /* \"#utility.yul\":8243:8244   */\n  0x08\n    /* \"#utility.yul\":8239:8252   */\n  mul\n    /* \"#utility.yul\":8210:8261   */\n  tag_46\n  jump\t// in\ntag_150:\n    /* \"#utility.yul\":8206:8262   */\n  not\n    /* \"#utility.yul\":8291:8295   */\n  dup1\n    /* \"#utility.yul\":8285:8289   */\n  dup4\n    /* \"#utility.yul\":8281:8296   */\n  and\n    /* \"#utility.yul\":8271:8296   */\n  swap2\n  pop\n    /* \"#utility.yul\":8184:8302   */\n  pop\n    /* \"#utility.yul\":8133:8302   */\n  swap3\n  swap2\n  pop\n  pop\n  jump\t// out\n    /* \"#utility.yul\":8307:8602   */\ntag_48:\n    /* \"#utility.yul\":8383:8387   */\n  0x00\n    /* \"#utility.yul\":8529:8558   */\n  tag_152\n    /* \"#utility.yul\":8554:8557   */\n  dup4\n    /* \"#utility.yul\":8548:8552   */\n  dup4\n    /* \"#utility.yul\":8529:8558   */\n  tag_47\n  jump\t// in\ntag_152:\n    /* \"#utility.yul\":8521:8558   */\n  swap2\n  pop\n    /* \"#utility.yul\":8591:8594   */\n  dup3\n    /* \"#utility.yul\":8588:8589   */\n  0x02\n    /* \"#utility.yul\":8584:8595   */\n  mul\n    /* \"#utility.yul\":8578:8582   */\n  dup3\n    /* \"#utility.yul\":8575:8596   */\n  or\n    /* \"#utility.yul\":8567:8596   */\n  swap1\n  pop\n    /* \"#utility.yul\":8307:8602   */\n  swap3\n  swap2\n  pop\n  pop\n  jump\t// out\n    /* \"#utility.yul\":8607:10002   */\ntag_7:\n    /* \"#utility.yul\":8724:8761   */\n  tag_154\n    /* \"#utility.yul\":8757:8760   */\n  dup3\n    /* \"#utility.yul\":8724:8761   */\n  tag_31\n  jump\t// in\ntag_154:\n    /* \"#utility.yul\":8826:8844   */\n  0xffffffffffffffff\n    /* \"#utility.yul\":8818:8824   */\n  dup2\n    /* \"#utility.yul\":8815:8845   */\n  gt\n    /* \"#utility.yul\":8812:8868   */\n  iszero\n  tag_155\n  jumpi\n    /* \"#utility.yul\":8848:8866   */\n  tag_156\n  tag_24\n  jump\t// in\ntag_156:\n    /* \"#utility.yul\":8812:8868   */\ntag_155:\n    /* \"#utility.yul\":8892:8930   */\n  tag_157\n    /* \"#utility.yul\":8924:8928   */\n  dup3\n    /* \"#utility.yul\":8918:8929   */\n  sload\n    /* \"#utility.yul\":8892:8930   */\n  tag_33\n  jump\t// in\ntag_157:\n    /* \"#utility.yul\":8977:9044   */\n  tag_158\n    /* \"#utility.yul\":9037:9043   */\n  dup3\n    /* \"#utility.yul\":9029:9035   */\n  dup3\n    /* \"#utility.yul\":9023:9027   */\n  dup6\n    /* \"#utility.yul\":8977:9044   */\n  tag_45\n  jump\t// in\ntag_158:\n    /* \"#utility.yul\":9071:9072   */\n  0x00\n    /* \"#utility.yul\":9095:9099   */\n  0x20\n    /* \"#utility.yul\":9082:9099   */\n  swap1\n  pop\n    /* \"#utility.yul\":9127:9129   */\n  0x1f\n    /* \"#utility.yul\":9119:9125   */\n  dup4\n    /* \"#utility.yul\":9116:9130   */\n  gt\n    /* \"#utility.yul\":9144:9145   */\n  0x01\n    /* \"#utility.yul\":9139:9757   */\n  dup2\n  eq\n  tag_160\n  jumpi\n    /* \"#utility.yul\":9801:9802   */\n  0x00\n    /* \"#utility.yul\":9818:9824   */\n  dup5\n    /* \"#utility.yul\":9815:9892   */\n  iszero\n  tag_161\n  jumpi\n    /* \"#utility.yul\":9867:9876   */\n  dup3\n    /* \"#utility.yul\":9862:9865   */\n  dup8\n    /* \"#utility.yul\":9858:9877   */\n  add\n    /* \"#utility.yul\":9852:9878   */\n  mload\n    /* \"#utility.yul\":9843:9878   */\n  swap1\n  pop\n    /* \"#utility.yul\":9815:9892   */\ntag_161:\n    /* \"#utility.yul\":9918:9985   */\n  tag_162\n    /* \"#utility.yul\":9978:9984   */\n  dup6\n    /* \"#utility.yul\":9971:9976   */\n  dup3\n    /* \"#utility.yul\":9918:9985   */\n  tag_48\n  jump\t// in\ntag_162:\n    /* \"#utility.yul\":9912:9916   */\n  dup7\n    /* \"#utility.yul\":9905:9986   */\n  sstore\n    /* \"#utility.yul\":9774:9996   */\n  pop\n    /* \"#utility.yul\":9109:9996   */\n  jump(tag_159)\n    /* \"#utility.yul\":9139:9757   */\ntag_160:\n    /* \"#utility.yul\":9191:9195   */\n  0x1f\n    /* \"#utility.yul\":9187:9196   */\n  not\n    /* \"#utility.yul\":9179:9185   */\n  dup5\n    /* \"#utility.yul\":9175:9197   */\n  and\n    /* \"#utility.yul\":9225:9262   */\n  tag_163\n    /* \"#utility.yul\":9257:9261   */\n  dup7\n    /* \"#utility.yul\":9225:9262   */\n  tag_34\n  jump\t// in\ntag_163:\n    /* \"#utility.yul\":9284:9285   */\n  0x00\n    /* \"#utility.yul\":9298:9506   */\ntag_164:\n    /* \"#utility.yul\":9312:9319   */\n  dup3\n    /* \"#utility.yul\":9309:9310   */\n  dup2\n    /* \"#utility.yul\":9306:9320   */\n  lt\n    /* \"#utility.yul\":9298:9506   */\n  iszero\n  tag_166\n  jumpi\n    /* \"#utility.yul\":9391:9400   */\n  dup5\n    /* \"#utility.yul\":9386:9389   */\n  dup10\n    /* \"#utility.yul\":9382:9401   */\n  add\n    /* \"#utility.yul\":9376:9402   */\n  mload\n    /* \"#utility.yul\":9368:9374   */\n  dup3\n    /* \"#utility.yul\":9361:9403   */\n  sstore\n    /* \"#utility.yul\":9442:9443   */\n  0x01\n    /* \"#utility.yul\":9434:9440   */\n  dup3\n    /* \"#utility.yul\":9430:9444   */\n  add\n    /* \"#utility.yul\":9420:9444   */\n  swap2\n  pop\n    /* \"#utility.yul\":9489:9491   */\n  0x20\n    /* \"#utility.yul\":9478:9487   */\n  dup6\n    /* \"#utility.yul\":9474:9492   */\n  add\n    /* \"#utility.yul\":9461:9492   */\n  swap5\n  pop\n    /* \"#utility.yul\":9335:9339   */\n  0x20\n    /* \"#utility.yul\":9332:9333   */\n  dup2\n    /* \"#utility.yul\":9328:9340   */\n  add\n    /* \"#utility.yul\":9323:9340   */\n  swap1\n  pop\n    /* \"#utility.yul\":9298:9506   */\n  jump(tag_164)\ntag_166:\n    /* \"#utility.yul\":9534:9540   */\n  dup7\n    /* \"#utility.yul\":9525:9532   */\n  dup4\n    /* \"#utility.yul\":9522:9541   */\n  lt\n    /* \"#utility.yul\":9519:9698   */\n  iszero\n  tag_167\n  jumpi\n    /* \"#utility.yul\":9592:9601   */\n  dup5\n    /* \"#utility.yul\":9587:9590   */\n  dup10\n    /* \"#utility.yul\":9583:9602   */\n  add\n    /* \"#utility.yul\":9577:9603   */\n  mload\n    /* \"#utility.yul\":9635:9683   */\n  tag_168\n    /* \"#utility.yul\":9677:9681   */\n  0x1f\n    /* \"#utility.yul\":9669:9675   */\n  dup10\n    /* \"#utility.yul\":9665:9682   */\n  and\n    /* \"#utility.yul\":9654:9663   */\n  dup3\n    /* \"#utility.yul\":9635:9683   */\n  tag_47\n  jump\t// in\ntag_168:\n    /* \"#utility.yul\":9627:9633   */\n  dup4\n    /* \"#utility.yul\":9620:9684   */\n  sstore\n    /* \"#utility.yul\":9542:9698   */\n  pop\n    /* \"#utility.yul\":9519:9698   */\ntag_167:\n    /* \"#utility.yul\":9744:9745   */\n  0x01\n    /* \"#utility.yul\":9740:9741   */\n  0x02\n    /* \"#utility.yul\":9732:9738   */\n  dup9\n    /* \"#utility.yul\":9728:9742   */\n  mul\n    /* \"#utility.yul\":9724:9746   */\n  add\n    /* \"#utility.yul\":9718:9722   */\n  dup9\n    /* \"#utility.yul\":9711:9747   */\n  sstore\n    /* \"#utility.yul\":9146:9757   */\n  pop\n  pop\n  pop\n    /* \"#utility.yul\":9109:9996   */\ntag_159:\n  pop\n    /* \"#utility.yul\":8699:10002   */\n  pop\n  pop\n  pop\n    /* \"#utility.yul\":8607:10002   */\n  pop\n  pop\n  jump\t// out\n    /* \"Campaign.sol\":561:3475  contract Campaign {... */\ntag_10:\n  dataSize(sub_0)\n  dup1\n  dataOffset(sub_0)\n  0x00\n  codecopy\n  0x00\n  return\nstop\n\nsub_0: assembly {\n        /* \"Campaign.sol\":561:3475  contract Campaign {... */\n      mstore(0x40, 0x80)\n      jumpi(tag_1, lt(calldatasize, 0x04))\n      shr(0xe0, calldataload(0x00))\n      dup1\n      0x82fde093\n      gt\n      tag_16\n      jumpi\n      dup1\n      0x97654a8c\n      gt\n      tag_17\n      jumpi\n      dup1\n      0x97654a8c\n      eq\n      tag_12\n      jumpi\n      dup1\n      0xaba83150\n      eq\n      tag_13\n      jumpi\n      dup1\n      0xd7bb99ba\n      eq\n      tag_14\n      jumpi\n      dup1\n      0xd7d1bbdb\n      eq\n      tag_15\n      jumpi\n      jump(tag_1)\n    tag_17:\n      dup1\n      0x82fde093\n      eq\n      tag_9\n      jumpi\n      dup1\n      0x8a9cfd55\n      eq\n      tag_10\n      jumpi\n      dup1\n      0x937e09b1\n      eq\n      tag_11\n      jumpi\n      jump(tag_1)\n    tag_16:\n      dup1\n      0x4051ddac\n      gt\n      tag_18\n      jumpi\n      dup1\n      0x4051ddac\n      eq\n      tag_5\n      jumpi\n      dup1\n      0x481c6a75\n      eq\n      tag_6\n      jumpi\n      dup1\n      0x7e7cd1b3\n      eq\n      tag_7\n      jumpi\n      dup1\n      0x81d12c58\n      eq\n      tag_8\n      jumpi\n      jump(tag_1)\n    tag_18:\n      dup1\n      0x03441006\n      eq\n      tag_2\n      jumpi\n      dup1\n      0x0a144391\n      eq\n      tag_3\n      jumpi\n      dup1\n      0x3410452a\n      eq\n      tag_4\n      jumpi\n    tag_1:\n      0x00\n      dup1\n      revert\n        /* \"Campaign.sol\":2642:2959  function finalizeRequest(uint index) public restricted {... */\n    tag_2:\n      callvalue\n      dup1\n      iszero\n      tag_19\n      jumpi\n      0x00\n      dup1\n      revert\n    tag_19:\n      pop\n      tag_20\n      0x04\n      dup1\n      calldatasize\n      sub\n      dup2\n      add\n      swap1\n      tag_21\n      swap2\n      swap1\n      tag_22\n      jump\t// in\n    tag_21:\n      tag_23\n      jump\t// in\n    tag_20:\n      stop\n        /* \"Campaign.sol\":995:1036  mapping(address => bool) public approvers */\n    tag_3:\n      callvalue\n      dup1\n      iszero\n      tag_24\n      jumpi\n      0x00\n      dup1\n      revert\n    tag_24:\n      pop\n      tag_25\n      0x04\n      dup1\n      calldatasize\n      sub\n      dup2\n      add\n      swap1\n      tag_26\n      swap2\n      swap1\n      tag_27\n      jump\t// in\n    tag_26:\n      tag_28\n      jump\t// in\n    tag_25:\n      mload(0x40)\n      tag_29\n      swap2\n      swap1\n      tag_30\n      jump\t// in\n    tag_29:\n      mload(0x40)\n      dup1\n      swap2\n      sub\n      swap1\n      return\n        /* \"Campaign.sol\":3376:3472  function getRequestsCount() public view returns (uint) {... */\n    tag_4:\n      callvalue\n      dup1\n      iszero\n      tag_31\n      jumpi\n      0x00\n      dup1\n      revert\n    tag_31:\n      pop\n      tag_32\n      tag_33\n      jump\t// in\n    tag_32:\n      mload(0x40)\n      tag_34\n      swap2\n      swap1\n      tag_35\n      jump\t// in\n    tag_34:\n      mload(0x40)\n      dup1\n      swap2\n      sub\n      swap1\n      return\n        /* \"Campaign.sol\":2971:3364  function getSummary() public view returns (... */\n    tag_5:\n      callvalue\n      dup1\n      iszero\n      tag_36\n      jumpi\n      0x00\n      dup1\n      revert\n    tag_36:\n      pop\n      tag_37\n      tag_38\n      jump\t// in\n    tag_37:\n      mload(0x40)\n      tag_39\n      swap9\n      swap8\n      swap7\n      swap6\n      swap5\n      swap4\n      swap3\n      swap2\n      swap1\n      tag_40\n      jump\t// in\n    tag_39:\n      mload(0x40)\n      dup1\n      swap2\n      sub\n      swap1\n      return\n        /* \"Campaign.sol\":826:848  address public manager */\n    tag_6:\n      callvalue\n      dup1\n      iszero\n      tag_41\n      jumpi\n      0x00\n      dup1\n      revert\n    tag_41:\n      pop\n      tag_42\n      tag_43\n      jump\t// in\n    tag_42:\n      mload(0x40)\n      tag_44\n      swap2\n      swap1\n      tag_45\n      jump\t// in\n    tag_44:\n      mload(0x40)\n      dup1\n      swap2\n      sub\n      swap1\n      return\n        /* \"Campaign.sol\":893:919  string public CampaignName */\n    tag_7:\n      callvalue\n      dup1\n      iszero\n      tag_46\n      jumpi\n      0x00\n      dup1\n      revert\n    tag_46:\n      pop\n      tag_47\n      tag_48\n      jump\t// in\n    tag_47:\n      mload(0x40)\n      tag_49\n      swap2\n      swap1\n      tag_50\n      jump\t// in\n    tag_49:\n      mload(0x40)\n      dup1\n      swap2\n      sub\n      swap1\n      return\n        /* \"Campaign.sol\":794:819  Request[] public requests */\n    tag_8:\n      callvalue\n      dup1\n      iszero\n      tag_51\n      jumpi\n      0x00\n      dup1\n      revert\n    tag_51:\n      pop\n      tag_52\n      0x04\n      dup1\n      calldatasize\n      sub\n      dup2\n      add\n      swap1\n      tag_53\n      swap2\n      swap1\n      tag_22\n      jump\t// in\n    tag_53:\n      tag_54\n      jump\t// in\n    tag_52:\n      mload(0x40)\n      tag_55\n      swap6\n      swap5\n      swap4\n      swap3\n      swap2\n      swap1\n      tag_56\n      jump\t// in\n    tag_55:\n      mload(0x40)\n      dup1\n      swap2\n      sub\n      swap1\n      return\n        /* \"Campaign.sol\":1043:1069  uint public approversCount */\n    tag_9:\n      callvalue\n      dup1\n      iszero\n      tag_57\n      jumpi\n      0x00\n      dup1\n      revert\n    tag_57:\n      pop\n      tag_58\n      tag_59\n      jump\t// in\n    tag_58:\n      mload(0x40)\n      tag_60\n      swap2\n      swap1\n      tag_35\n      jump\t// in\n    tag_60:\n      mload(0x40)\n      dup1\n      swap2\n      sub\n      swap1\n      return\n        /* \"Campaign.sol\":1904:2265  function createRequest(string memory description, uint value, address recipient) public restricted {... */\n    tag_10:\n      callvalue\n      dup1\n      iszero\n      tag_61\n      jumpi\n      0x00\n      dup1\n      revert\n    tag_61:\n      pop\n      tag_62\n      0x04\n      dup1\n      calldatasize\n      sub\n      dup2\n      add\n      swap1\n      tag_63\n      swap2\n      swap1\n      tag_64\n      jump\t// in\n    tag_63:\n      tag_65\n      jump\t// in\n    tag_62:\n      stop\n        /* \"Campaign.sol\":855:886  uint public minimumContribution */\n    tag_11:\n      callvalue\n      dup1\n      iszero\n      tag_66\n      jumpi\n      0x00\n      dup1\n      revert\n    tag_66:\n      pop\n      tag_67\n      tag_68\n      jump\t// in\n    tag_67:\n      mload(0x40)\n      tag_69\n      swap2\n      swap1\n      tag_35\n      jump\t// in\n    tag_69:\n      mload(0x40)\n      dup1\n      swap2\n      sub\n      swap1\n      return\n        /* \"Campaign.sol\":926:959  string public CampaignDescription */\n    tag_12:\n      callvalue\n      dup1\n      iszero\n      tag_70\n      jumpi\n      0x00\n      dup1\n      revert\n    tag_70:\n      pop\n      tag_71\n      tag_72\n      jump\t// in\n    tag_71:\n      mload(0x40)\n      tag_73\n      swap2\n      swap1\n      tag_50\n      jump\t// in\n    tag_73:\n      mload(0x40)\n      dup1\n      swap2\n      sub\n      swap1\n      return\n        /* \"Campaign.sol\":966:988  string public imageUrl */\n    tag_13:\n      callvalue\n      dup1\n      iszero\n      tag_74\n      jumpi\n      0x00\n      dup1\n      revert\n    tag_74:\n      pop\n      tag_75\n      tag_76\n      jump\t// in\n    tag_75:\n      mload(0x40)\n      tag_77\n      swap2\n      swap1\n      tag_50\n      jump\t// in\n    tag_77:\n      mload(0x40)\n      dup1\n      swap2\n      sub\n      swap1\n      return\n        /* \"Campaign.sol\":1601:1895  function contribute() public payable {... */\n    tag_14:\n      tag_78\n      tag_79\n      jump\t// in\n    tag_78:\n      stop\n        /* \"Campaign.sol\":2274:2633  function approveRequest(uint index) public {... */\n    tag_15:\n      callvalue\n      dup1\n      iszero\n      tag_80\n      jumpi\n      0x00\n      dup1\n      revert\n    tag_80:\n      pop\n      tag_81\n      0x04\n      dup1\n      calldatasize\n      sub\n      dup2\n      add\n      swap1\n      tag_82\n      swap2\n      swap1\n      tag_22\n      jump\t// in\n    tag_82:\n      tag_83\n      jump\t// in\n    tag_81:\n      stop\n        /* \"Campaign.sol\":2642:2959  function finalizeRequest(uint index) public restricted {... */\n    tag_23:\n        /* \"Campaign.sol\":1134:1141  manager */\n      0x01\n      0x00\n      swap1\n      sload\n      swap1\n      0x0100\n      exp\n      swap1\n      div\n      0xffffffffffffffffffffffffffffffffffffffff\n      and\n        /* \"Campaign.sol\":1120:1141  msg.sender == manager */\n      0xffffffffffffffffffffffffffffffffffffffff\n      and\n        /* \"Campaign.sol\":1120:1130  msg.sender */\n      caller\n        /* \"Campaign.sol\":1120:1141  msg.sender == manager */\n      0xffffffffffffffffffffffffffffffffffffffff\n      and\n      eq\n        /* \"Campaign.sol\":1112:1142  require(msg.sender == manager) */\n      tag_85\n      jumpi\n      0x00\n      dup1\n      revert\n    tag_85:\n        /* \"Campaign.sol\":2708:2731  Request storage request */\n      0x00\n        /* \"Campaign.sol\":2734:2742  requests */\n      dup1\n        /* \"Campaign.sol\":2743:2748  index */\n      dup3\n        /* \"Campaign.sol\":2734:2749  requests[index] */\n      dup2\n      sload\n      dup2\n      lt\n      tag_87\n      jumpi\n      tag_88\n      tag_89\n      jump\t// in\n    tag_88:\n    tag_87:\n      swap1\n      0x00\n      mstore\n      keccak256(0x00, 0x20)\n      swap1\n      0x05\n      mul\n      add\n        /* \"Campaign.sol\":2708:2749  Request storage request = requests[index] */\n      swap1\n      pop\n        /* \"Campaign.sol\":2772:2779  request */\n      dup1\n        /* \"Campaign.sol\":2772:2788  request.complete */\n      0x02\n      add\n      0x14\n      swap1\n      sload\n      swap1\n      0x0100\n      exp\n      swap1\n      div\n      0xff\n      and\n        /* \"Campaign.sol\":2771:2788  !request.complete */\n      iszero\n        /* \"Campaign.sol\":2763:2789  require(!request.complete) */\n      tag_91\n      jumpi\n      0x00\n      dup1\n      revert\n    tag_91:\n        /* \"Campaign.sol\":2850:2851  2 */\n      0x02\n        /* \"Campaign.sol\":2833:2847  approversCount */\n      sload(0x07)\n        /* \"Campaign.sol\":2833:2851  approversCount / 2 */\n      tag_92\n      swap2\n      swap1\n      tag_93\n      jump\t// in\n    tag_92:\n        /* \"Campaign.sol\":2808:2815  request */\n      dup2\n        /* \"Campaign.sol\":2808:2829  request.approvalCount */\n      0x03\n      add\n      sload\n        /* \"Campaign.sol\":2808:2852  request.approvalCount > (approversCount / 2) */\n      gt\n        /* \"Campaign.sol\":2800:2853  require(request.approvalCount > (approversCount / 2)) */\n      tag_94\n      jumpi\n      0x00\n      dup1\n      revert\n    tag_94:\n        /* \"Campaign.sol\":2875:2882  request */\n      dup1\n        /* \"Campaign.sol\":2875:2892  request.recipient */\n      0x02\n      add\n      0x00\n      swap1\n      sload\n      swap1\n      0x0100\n      exp\n      swap1\n      div\n      0xffffffffffffffffffffffffffffffffffffffff\n      and\n        /* \"Campaign.sol\":2867:2902  payable(request.recipient).transfer */\n      0xffffffffffffffffffffffffffffffffffffffff\n      and\n        /* \"Campaign.sol\":2867:2917  payable(request.recipient).transfer(request.value) */\n      0x08fc\n        /* \"Campaign.sol\":2903:2910  request */\n      dup3\n        /* \"Campaign.sol\":2903:2916  request.value */\n      0x01\n      add\n      sload\n        /* \"Campaign.sol\":2867:2917  payable(request.recipient).transfer(request.value) */\n      swap1\n      dup2\n      iszero\n      mul\n      swap1\n      mload(0x40)\n      0x00\n      mload(0x40)\n      dup1\n      dup4\n      sub\n      dup2\n      dup6\n      dup9\n      dup9\n      call\n      swap4\n      pop\n      pop\n      pop\n      pop\n      iszero\n      dup1\n      iszero\n      tag_96\n      jumpi\n      returndatasize\n      0x00\n      dup1\n      returndatacopy\n      revert(0x00, returndatasize)\n    tag_96:\n      pop\n        /* \"Campaign.sol\":2947:2951  true */\n      0x01\n        /* \"Campaign.sol\":2928:2935  request */\n      dup2\n        /* \"Campaign.sol\":2928:2944  request.complete */\n      0x02\n      add\n      0x14\n        /* \"Campaign.sol\":2928:2951  request.complete = true */\n      0x0100\n      exp\n      dup2\n      sload\n      dup2\n      0xff\n      mul\n      not\n      and\n      swap1\n      dup4\n      iszero\n      iszero\n      mul\n      or\n      swap1\n      sstore\n      pop\n        /* \"Campaign.sol\":2697:2959  {... */\n      pop\n        /* \"Campaign.sol\":2642:2959  function finalizeRequest(uint index) public restricted {... */\n      pop\n      jump\t// out\n        /* \"Campaign.sol\":995:1036  mapping(address => bool) public approvers */\n    tag_28:\n      mstore(0x20, 0x06)\n      dup1\n      0x00\n      mstore\n      keccak256(0x00, 0x40)\n      0x00\n      swap2\n      pop\n      sload\n      swap1\n      0x0100\n      exp\n      swap1\n      div\n      0xff\n      and\n      dup2\n      jump\t// out\n        /* \"Campaign.sol\":3376:3472  function getRequestsCount() public view returns (uint) {... */\n    tag_33:\n        /* \"Campaign.sol\":3425:3429  uint */\n      0x00\n        /* \"Campaign.sol\":3449:3457  requests */\n      dup1\n        /* \"Campaign.sol\":3449:3464  requests.length */\n      dup1\n      sload\n      swap1\n      pop\n        /* \"Campaign.sol\":3442:3464  return requests.length */\n      swap1\n      pop\n        /* \"Campaign.sol\":3376:3472  function getRequestsCount() public view returns (uint) {... */\n      swap1\n      jump\t// out\n        /* \"Campaign.sol\":2971:3364  function getSummary() public view returns (... */\n    tag_38:\n        /* \"Campaign.sol\":3022:3026  uint */\n      0x00\n        /* \"Campaign.sol\":3028:3032  uint */\n      dup1\n        /* \"Campaign.sol\":3034:3038  uint */\n      0x00\n        /* \"Campaign.sol\":3040:3044  uint */\n      dup1\n        /* \"Campaign.sol\":3046:3053  address */\n      0x00\n        /* \"Campaign.sol\":3055:3068  string memory */\n      0x60\n        /* \"Campaign.sol\":3070:3083  string memory */\n      dup1\n        /* \"Campaign.sol\":3085:3098  string memory */\n      0x60\n        /* \"Campaign.sol\":3139:3158  minimumContribution */\n      sload(0x02)\n        /* \"Campaign.sol\":3171:3192  address(this).balance */\n      selfbalance\n        /* \"Campaign.sol\":3205:3213  requests */\n      0x00\n        /* \"Campaign.sol\":3205:3220  requests.length */\n      dup1\n      sload\n      swap1\n      pop\n        /* \"Campaign.sol\":3233:3247  approversCount */\n      sload(0x07)\n        /* \"Campaign.sol\":3260:3267  manager */\n      0x01\n      0x00\n      swap1\n      sload\n      swap1\n      0x0100\n      exp\n      swap1\n      div\n      0xffffffffffffffffffffffffffffffffffffffff\n      and\n        /* \"Campaign.sol\":3280:3292  CampaignName */\n      0x03\n        /* \"Campaign.sol\":3305:3324  CampaignDescription */\n      0x04\n        /* \"Campaign.sol\":3337:3345  imageUrl */\n      0x05\n        /* \"Campaign.sol\":3119:3356  return (... */\n      dup3\n      dup1\n      sload\n      tag_99\n      swap1\n      tag_100\n      jump\t// in\n    tag_99:\n      dup1\n      0x1f\n      add\n      0x20\n      dup1\n      swap2\n      div\n      mul\n      0x20\n      add\n      mload(0x40)\n      swap1\n      dup2\n      add\n      0x40\n      mstore\n      dup1\n      swap3\n      swap2\n      swap1\n      dup2\n      dup2\n      mstore\n      0x20\n      add\n      dup3\n      dup1\n      sload\n      tag_101\n      swap1\n      tag_100\n      jump\t// in\n    tag_101:\n      dup1\n      iszero\n      tag_102\n      jumpi\n      dup1\n      0x1f\n      lt\n      tag_103\n      jumpi\n      0x0100\n      dup1\n      dup4\n      sload\n      div\n      mul\n      dup4\n      mstore\n      swap2\n      0x20\n      add\n      swap2\n      jump(tag_102)\n    tag_103:\n      dup3\n      add\n      swap2\n      swap1\n      0x00\n      mstore\n      keccak256(0x00, 0x20)\n      swap1\n    tag_104:\n      dup2\n      sload\n      dup2\n      mstore\n      swap1\n      0x01\n      add\n      swap1\n      0x20\n      add\n      dup1\n      dup4\n      gt\n      tag_104\n      jumpi\n      dup3\n      swap1\n      sub\n      0x1f\n      and\n      dup3\n      add\n      swap2\n    tag_102:\n      pop\n      pop\n      pop\n      pop\n      pop\n      swap3\n      pop\n      dup2\n      dup1\n      sload\n      tag_105\n      swap1\n      tag_100\n      jump\t// in\n    tag_105:\n      dup1\n      0x1f\n      add\n      0x20\n      dup1\n      swap2\n      div\n      mul\n      0x20\n      add\n      mload(0x40)\n      swap1\n      dup2\n      add\n      0x40\n      mstore\n      dup1\n      swap3\n      swap2\n      swap1\n      dup2\n      dup2\n      mstore\n      0x20\n      add\n      dup3\n      dup1\n      sload\n      tag_106\n      swap1\n      tag_100\n      jump\t// in\n    tag_106:\n      dup1\n      iszero\n      tag_107\n      jumpi\n      dup1\n      0x1f\n      lt\n      tag_108\n      jumpi\n      0x0100\n      dup1\n      dup4\n      sload\n      div\n      mul\n      dup4\n      mstore\n      swap2\n      0x20\n      add\n      swap2\n      jump(tag_107)\n    tag_108:\n      dup3\n      add\n      swap2\n      swap1\n      0x00\n      mstore\n      keccak256(0x00, 0x20)\n      swap1\n    tag_109:\n      dup2\n      sload\n      dup2\n      mstore\n      swap1\n      0x01\n      add\n      swap1\n      0x20\n      add\n      dup1\n      dup4\n      gt\n      tag_109\n      jumpi\n      dup3\n      swap1\n      sub\n      0x1f\n      and\n      dup3\n      add\n      swap2\n    tag_107:\n      pop\n      pop\n      pop\n      pop\n      pop\n      swap2\n      pop\n      dup1\n      dup1\n      sload\n      tag_110\n      swap1\n      tag_100\n      jump\t// in\n    tag_110:\n      dup1\n      0x1f\n      add\n      0x20\n      dup1\n      swap2\n      div\n      mul\n      0x20\n      add\n      mload(0x40)\n      swap1\n      dup2\n      add\n      0x40\n      mstore\n      dup1\n      swap3\n      swap2\n      swap1\n      dup2\n      dup2\n      mstore\n      0x20\n      add\n      dup3\n      dup1\n      sload\n      tag_111\n      swap1\n      tag_100\n      jump\t// in\n    tag_111:\n      dup1\n      iszero\n      tag_112\n      jumpi\n      dup1\n      0x1f\n      lt\n      tag_113\n      jumpi\n      0x0100\n      dup1\n      dup4\n      sload\n      div\n      mul\n      dup4\n      mstore\n      swap2\n      0x20\n      add\n      swap2\n      jump(tag_112)\n    tag_113:\n      dup3\n      add\n      swap2\n      swap1\n      0x00\n      mstore\n      keccak256(0x00, 0x20)\n      swap1\n    tag_114:\n      dup2\n      sload\n      dup2\n      mstore\n      swap1\n      0x01\n      add\n      swap1\n      0x20\n      add\n      dup1\n      dup4\n      gt\n      tag_114\n      jumpi\n      dup3\n      swap1\n      sub\n      0x1f\n      and\n      dup3\n      add\n      swap2\n    tag_112:\n      pop\n      pop\n      pop\n      pop\n      pop\n      swap1\n      pop\n      swap8\n      pop\n      swap8\n      pop\n      swap8\n      pop\n      swap8\n      pop\n      swap8\n      pop\n      swap8\n      pop\n      swap8\n      pop\n      swap8\n      pop\n        /* \"Campaign.sol\":2971:3364  function getSummary() public view returns (... */\n      swap1\n      swap2\n      swap3\n      swap4\n      swap5\n      swap6\n      swap7\n      swap8\n      jump\t// out\n        /* \"Campaign.sol\":826:848  address public manager */\n    tag_43:\n      0x01\n      0x00\n      swap1\n      sload\n      swap1\n      0x0100\n      exp\n      swap1\n      div\n      0xffffffffffffffffffffffffffffffffffffffff\n      and\n      dup2\n      jump\t// out\n        /* \"Campaign.sol\":893:919  string public CampaignName */\n    tag_48:\n      0x03\n      dup1\n      sload\n      tag_115\n      swap1\n      tag_100\n      jump\t// in\n    tag_115:\n      dup1\n      0x1f\n      add\n      0x20\n      dup1\n      swap2\n      div\n      mul\n      0x20\n      add\n      mload(0x40)\n      swap1\n      dup2\n      add\n      0x40\n      mstore\n      dup1\n      swap3\n      swap2\n      swap1\n      dup2\n      dup2\n      mstore\n      0x20\n      add\n      dup3\n      dup1\n      sload\n      tag_116\n      swap1\n      tag_100\n      jump\t// in\n    tag_116:\n      dup1\n      iszero\n      tag_117\n      jumpi\n      dup1\n      0x1f\n      lt\n      tag_118\n      jumpi\n      0x0100\n      dup1\n      dup4\n      sload\n      div\n      mul\n      dup4\n      mstore\n      swap2\n      0x20\n      add\n      swap2\n      jump(tag_117)\n    tag_118:\n      dup3\n      add\n      swap2\n      swap1\n      0x00\n      mstore\n      keccak256(0x00, 0x20)\n      swap1\n    tag_119:\n      dup2\n      sload\n      dup2\n      mstore\n      swap1\n      0x01\n      add\n      swap1\n      0x20\n      add\n      dup1\n      dup4\n      gt\n      tag_119\n      jumpi\n      dup3\n      swap1\n      sub\n      0x1f\n      and\n      dup3\n      add\n      swap2\n    tag_117:\n      pop\n      pop\n      pop\n      pop\n      pop\n      dup2\n      jump\t// out\n        /* \"Campaign.sol\":794:819  Request[] public requests */\n    tag_54:\n      0x00\n      dup2\n      dup2\n      sload\n      dup2\n      lt\n      tag_120\n      jumpi\n      0x00\n      dup1\n      revert\n    tag_120:\n      swap1\n      0x00\n      mstore\n      keccak256(0x00, 0x20)\n      swap1\n      0x05\n      mul\n      add\n      0x00\n      swap2\n      pop\n      swap1\n      pop\n      dup1\n      0x00\n      add\n      dup1\n      sload\n      tag_122\n      swap1\n      tag_100\n      jump\t// in\n    tag_122:\n      dup1\n      0x1f\n      add\n      0x20\n      dup1\n      swap2\n      div\n      mul\n      0x20\n      add\n      mload(0x40)\n      swap1\n      dup2\n      add\n      0x40\n      mstore\n      dup1\n      swap3\n      swap2\n      swap1\n      dup2\n      dup2\n      mstore\n      0x20\n      add\n      dup3\n      dup1\n      sload\n      tag_123\n      swap1\n      tag_100\n      jump\t// in\n    tag_123:\n      dup1\n      iszero\n      tag_124\n      jumpi\n      dup1\n      0x1f\n      lt\n      tag_125\n      jumpi\n      0x0100\n      dup1\n      dup4\n      sload\n      div\n      mul\n      dup4\n      mstore\n      swap2\n      0x20\n      add\n      swap2\n      jump(tag_124)\n    tag_125:\n      dup3\n      add\n      swap2\n      swap1\n      0x00\n      mstore\n      keccak256(0x00, 0x20)\n      swap1\n    tag_126:\n      dup2\n      sload\n      dup2\n      mstore\n      swap1\n      0x01\n      add\n      swap1\n      0x20\n      add\n      dup1\n      dup4\n      gt\n      tag_126\n      jumpi\n      dup3\n      swap1\n      sub\n      0x1f\n      and\n      dup3\n      add\n      swap2\n    tag_124:\n      pop\n      pop\n      pop\n      pop\n      pop\n      swap1\n      dup1\n      0x01\n      add\n      sload\n      swap1\n      dup1\n      0x02\n      add\n      0x00\n      swap1\n      sload\n      swap1\n      0x0100\n      exp\n      swap1\n      div\n      0xffffffffffffffffffffffffffffffffffffffff\n      and\n      swap1\n      dup1\n      0x02\n      add\n      0x14\n      swap1\n      sload\n      swap1\n      0x0100\n      exp\n      swap1\n      div\n      0xff\n      and\n      swap1\n      dup1\n      0x03\n      add\n      sload\n      swap1\n      pop\n      dup6\n      jump\t// out\n        /* \"Campaign.sol\":1043:1069  uint public approversCount */\n    tag_59:\n      sload(0x07)\n      dup2\n      jump\t// out\n        /* \"Campaign.sol\":1904:2265  function createRequest(string memory description, uint value, address recipient) public restricted {... */\n    tag_65:\n        /* \"Campaign.sol\":1134:1141  manager */\n      0x01\n      0x00\n      swap1\n      sload\n      swap1\n      0x0100\n      exp\n      swap1\n      div\n      0xffffffffffffffffffffffffffffffffffffffff\n      and\n        /* \"Campaign.sol\":1120:1141  msg.sender == manager */\n      0xffffffffffffffffffffffffffffffffffffffff\n      and\n        /* \"Campaign.sol\":1120:1130  msg.sender */\n      caller\n        /* \"Campaign.sol\":1120:1141  msg.sender == manager */\n      0xffffffffffffffffffffffffffffffffffffffff\n      and\n      eq\n        /* \"Campaign.sol\":1112:1142  require(msg.sender == manager) */\n      tag_128\n      jumpi\n      0x00\n      dup1\n      revert\n    tag_128:\n        /* \"Campaign.sol\":2014:2040  Request storage newRequest */\n      0x00\n        /* \"Campaign.sol\":2043:2051  requests */\n      dup1\n        /* \"Campaign.sol\":2043:2058  requests.push() */\n      0x01\n      dup2\n      0x01\n      dup2\n      sload\n      add\n      dup1\n      dup3\n      sstore\n      dup1\n      swap2\n      pop\n      pop\n      sub\n      swap1\n      0x00\n      mstore\n      keccak256(0x00, 0x20)\n      swap1\n      0x05\n      mul\n      add\n        /* \"Campaign.sol\":2014:2058  Request storage newRequest = requests.push() */\n      swap1\n      pop\n        /* \"Campaign.sol\":2095:2106  description */\n      dup4\n        /* \"Campaign.sol\":2070:2080  newRequest */\n      dup2\n        /* \"Campaign.sol\":2070:2092  newRequest.description */\n      0x00\n      add\n        /* \"Campaign.sol\":2070:2106  newRequest.description = description */\n      swap1\n      dup2\n      tag_131\n      swap2\n      swap1\n      tag_132\n      jump\t// in\n    tag_131:\n      pop\n        /* \"Campaign.sol\":2135:2140  value */\n      dup3\n        /* \"Campaign.sol\":2117:2127  newRequest */\n      dup2\n        /* \"Campaign.sol\":2117:2133  newRequest.value */\n      0x01\n      add\n        /* \"Campaign.sol\":2117:2140  newRequest.value= value */\n      dup2\n      swap1\n      sstore\n      pop\n        /* \"Campaign.sol\":2173:2182  recipient */\n      dup2\n        /* \"Campaign.sol\":2151:2161  newRequest */\n      dup2\n        /* \"Campaign.sol\":2151:2171  newRequest.recipient */\n      0x02\n      add\n      0x00\n        /* \"Campaign.sol\":2151:2182  newRequest.recipient= recipient */\n      0x0100\n      exp\n      dup2\n      sload\n      dup2\n      0xffffffffffffffffffffffffffffffffffffffff\n      mul\n      not\n      and\n      swap1\n      dup4\n      0xffffffffffffffffffffffffffffffffffffffff\n      and\n      mul\n      or\n      swap1\n      sstore\n      pop\n        /* \"Campaign.sol\":2214:2219  false */\n      0x00\n        /* \"Campaign.sol\":2193:2203  newRequest */\n      dup2\n        /* \"Campaign.sol\":2193:2212  newRequest.complete */\n      0x02\n      add\n      0x14\n        /* \"Campaign.sol\":2193:2219  newRequest.complete= false */\n      0x0100\n      exp\n      dup2\n      sload\n      dup2\n      0xff\n      mul\n      not\n      and\n      swap1\n      dup4\n      iszero\n      iszero\n      mul\n      or\n      swap1\n      sstore\n      pop\n        /* \"Campaign.sol\":2256:2257  0 */\n      0x00\n        /* \"Campaign.sol\":2230:2240  newRequest */\n      dup2\n        /* \"Campaign.sol\":2230:2254  newRequest.approvalCount */\n      0x03\n      add\n        /* \"Campaign.sol\":2230:2257  newRequest.approvalCount= 0 */\n      dup2\n      swap1\n      sstore\n      pop\n        /* \"Campaign.sol\":2003:2265  {... */\n      pop\n        /* \"Campaign.sol\":1904:2265  function createRequest(string memory description, uint value, address recipient) public restricted {... */\n      pop\n      pop\n      pop\n      jump\t// out\n        /* \"Campaign.sol\":855:886  uint public minimumContribution */\n    tag_68:\n      sload(0x02)\n      dup2\n      jump\t// out\n        /* \"Campaign.sol\":926:959  string public CampaignDescription */\n    tag_72:\n      0x04\n      dup1\n      sload\n      tag_133\n      swap1\n      tag_100\n      jump\t// in\n    tag_133:\n      dup1\n      0x1f\n      add\n      0x20\n      dup1\n      swap2\n      div\n      mul\n      0x20\n      add\n      mload(0x40)\n      swap1\n      dup2\n      add\n      0x40\n      mstore\n      dup1\n      swap3\n      swap2\n      swap1\n      dup2\n      dup2\n      mstore\n      0x20\n      add\n      dup3\n      dup1\n      sload\n      tag_134\n      swap1\n      tag_100\n      jump\t// in\n    tag_134:\n      dup1\n      iszero\n      tag_135\n      jumpi\n      dup1\n      0x1f\n      lt\n      tag_136\n      jumpi\n      0x0100\n      dup1\n      dup4\n      sload\n      div\n      mul\n      dup4\n      mstore\n      swap2\n      0x20\n      add\n      swap2\n      jump(tag_135)\n    tag_136:\n      dup3\n      add\n      swap2\n      swap1\n      0x00\n      mstore\n      keccak256(0x00, 0x20)\n      swap1\n    tag_137:\n      dup2\n      sload\n      dup2\n      mstore\n      swap1\n      0x01\n      add\n      swap1\n      0x20\n      add\n      dup1\n      dup4\n      gt\n      tag_137\n      jumpi\n      dup3\n      swap1\n      sub\n      0x1f\n      and\n      dup3\n      add\n      swap2\n    tag_135:\n      pop\n      pop\n      pop\n      pop\n      pop\n      dup2\n      jump\t// out\n        /* \"Campaign.sol\":966:988  string public imageUrl */\n    tag_76:\n      0x05\n      dup1\n      sload\n      tag_138\n      swap1\n      tag_100\n      jump\t// in\n    tag_138:\n      dup1\n      0x1f\n      add\n      0x20\n      dup1\n      swap2\n      div\n      mul\n      0x20\n      add\n      mload(0x40)\n      swap1\n      dup2\n      add\n      0x40\n      mstore\n      dup1\n      swap3\n      swap2\n      swap1\n      dup2\n      dup2\n      mstore\n      0x20\n      add\n      dup3\n      dup1\n      sload\n      tag_139\n      swap1\n      tag_100\n      jump\t// in\n    tag_139:\n      dup1\n      iszero\n      tag_140\n      jumpi\n      dup1\n      0x1f\n      lt\n      tag_141\n      jumpi\n      0x0100\n      dup1\n      dup4\n      sload\n      div\n      mul\n      dup4\n      mstore\n      swap2\n      0x20\n      add\n      swap2\n      jump(tag_140)\n    tag_141:\n      dup3\n      add\n      swap2\n      swap1\n      0x00\n      mstore\n      keccak256(0x00, 0x20)\n      swap1\n    tag_142:\n      dup2\n      sload\n      dup2\n      mstore\n      swap1\n      0x01\n      add\n      swap1\n      0x20\n      add\n      dup1\n      dup4\n      gt\n      tag_142\n      jumpi\n      dup3\n      swap1\n      sub\n      0x1f\n      and\n      dup3\n      add\n      swap2\n    tag_140:\n      pop\n      pop\n      pop\n      pop\n      pop\n      dup2\n      jump\t// out\n        /* \"Campaign.sol\":1601:1895  function contribute() public payable {... */\n    tag_79:\n        /* \"Campaign.sol\":1669:1688  minimumContribution */\n      sload(0x02)\n        /* \"Campaign.sol\":1657:1666  msg.value */\n      callvalue\n        /* \"Campaign.sol\":1657:1688  msg.value > minimumContribution */\n      gt\n        /* \"Campaign.sol\":1649:1689  require(msg.value > minimumContribution) */\n      tag_144\n      jumpi\n      0x00\n      dup1\n      revert\n    tag_144:\n        /* \"Campaign.sol\":1705:1714  approvers */\n      0x06\n        /* \"Campaign.sol\":1705:1726  approvers[msg.sender] */\n      0x00\n        /* \"Campaign.sol\":1715:1725  msg.sender */\n      caller\n        /* \"Campaign.sol\":1705:1726  approvers[msg.sender] */\n      0xffffffffffffffffffffffffffffffffffffffff\n      and\n      0xffffffffffffffffffffffffffffffffffffffff\n      and\n      dup2\n      mstore\n      0x20\n      add\n      swap1\n      dup2\n      mstore\n      0x20\n      add\n      0x00\n      keccak256\n      0x00\n      swap1\n      sload\n      swap1\n      0x0100\n      exp\n      swap1\n      div\n      0xff\n      and\n        /* \"Campaign.sol\":1700:1816  if (!approvers[msg.sender]) {... */\n      tag_145\n      jumpi\n        /* \"Campaign.sol\":1745:1759  approversCount */\n      0x07\n      0x00\n        /* \"Campaign.sol\":1745:1761  approversCount++ */\n      dup2\n      sload\n      dup1\n      swap3\n      swap2\n      swap1\n      tag_146\n      swap1\n      tag_147\n      jump\t// in\n    tag_146:\n      swap2\n      swap1\n      pop\n      sstore\n      pop\n        /* \"Campaign.sol\":1800:1804  true */\n      0x01\n        /* \"Campaign.sol\":1776:1785  approvers */\n      0x06\n        /* \"Campaign.sol\":1776:1797  approvers[msg.sender] */\n      0x00\n        /* \"Campaign.sol\":1786:1796  msg.sender */\n      caller\n        /* \"Campaign.sol\":1776:1797  approvers[msg.sender] */\n      0xffffffffffffffffffffffffffffffffffffffff\n      and\n      0xffffffffffffffffffffffffffffffffffffffff\n      and\n      dup2\n      mstore\n      0x20\n      add\n      swap1\n      dup2\n      mstore\n      0x20\n      add\n      0x00\n      keccak256\n      0x00\n        /* \"Campaign.sol\":1776:1804  approvers[msg.sender] = true */\n      0x0100\n      exp\n      dup2\n      sload\n      dup2\n      0xff\n      mul\n      not\n      and\n      swap1\n      dup4\n      iszero\n      iszero\n      mul\n      or\n      swap1\n      sstore\n      pop\n        /* \"Campaign.sol\":1700:1816  if (!approvers[msg.sender]) {... */\n    tag_145:\n        /* \"Campaign.sol\":1601:1895  function contribute() public payable {... */\n      jump\t// out\n        /* \"Campaign.sol\":2274:2633  function approveRequest(uint index) public {... */\n    tag_83:\n        /* \"Campaign.sol\":2328:2351  Request storage request */\n      0x00\n        /* \"Campaign.sol\":2354:2362  requests */\n      dup1\n        /* \"Campaign.sol\":2363:2368  index */\n      dup3\n        /* \"Campaign.sol\":2354:2369  requests[index] */\n      dup2\n      sload\n      dup2\n      lt\n      tag_149\n      jumpi\n      tag_150\n      tag_89\n      jump\t// in\n    tag_150:\n    tag_149:\n      swap1\n      0x00\n      mstore\n      keccak256(0x00, 0x20)\n      swap1\n      0x05\n      mul\n      add\n        /* \"Campaign.sol\":2328:2369  Request storage request = requests[index] */\n      swap1\n      pop\n        /* \"Campaign.sol\":2391:2400  approvers */\n      0x06\n        /* \"Campaign.sol\":2391:2412  approvers[msg.sender] */\n      0x00\n        /* \"Campaign.sol\":2401:2411  msg.sender */\n      caller\n        /* \"Campaign.sol\":2391:2412  approvers[msg.sender] */\n      0xffffffffffffffffffffffffffffffffffffffff\n      and\n      0xffffffffffffffffffffffffffffffffffffffff\n      and\n      dup2\n      mstore\n      0x20\n      add\n      swap1\n      dup2\n      mstore\n      0x20\n      add\n      0x00\n      keccak256\n      0x00\n      swap1\n      sload\n      swap1\n      0x0100\n      exp\n      swap1\n      div\n      0xff\n      and\n        /* \"Campaign.sol\":2383:2413  require(approvers[msg.sender]) */\n      tag_152\n      jumpi\n      0x00\n      dup1\n      revert\n    tag_152:\n        /* \"Campaign.sol\":2471:2478  request */\n      dup1\n        /* \"Campaign.sol\":2471:2488  request.approvals */\n      0x04\n      add\n        /* \"Campaign.sol\":2471:2500  request.approvals[msg.sender] */\n      0x00\n        /* \"Campaign.sol\":2489:2499  msg.sender */\n      caller\n        /* \"Campaign.sol\":2471:2500  request.approvals[msg.sender] */\n      0xffffffffffffffffffffffffffffffffffffffff\n      and\n      0xffffffffffffffffffffffffffffffffffffffff\n      and\n      dup2\n      mstore\n      0x20\n      add\n      swap1\n      dup2\n      mstore\n      0x20\n      add\n      0x00\n      keccak256\n      0x00\n      swap1\n      sload\n      swap1\n      0x0100\n      exp\n      swap1\n      div\n      0xff\n      and\n        /* \"Campaign.sol\":2470:2500  !request.approvals[msg.sender] */\n      iszero\n        /* \"Campaign.sol\":2462:2501  require(!request.approvals[msg.sender]) */\n      tag_153\n      jumpi\n      0x00\n      dup1\n      revert\n    tag_153:\n        /* \"Campaign.sol\":2587:2591  true */\n      0x01\n        /* \"Campaign.sol\":2555:2562  request */\n      dup2\n        /* \"Campaign.sol\":2555:2572  request.approvals */\n      0x04\n      add\n        /* \"Campaign.sol\":2555:2584  request.approvals[msg.sender] */\n      0x00\n        /* \"Campaign.sol\":2573:2583  msg.sender */\n      caller\n        /* \"Campaign.sol\":2555:2584  request.approvals[msg.sender] */\n      0xffffffffffffffffffffffffffffffffffffffff\n      and\n      0xffffffffffffffffffffffffffffffffffffffff\n      and\n      dup2\n      mstore\n      0x20\n      add\n      swap1\n      dup2\n      mstore\n      0x20\n      add\n      0x00\n      keccak256\n      0x00\n        /* \"Campaign.sol\":2555:2591  request.approvals[msg.sender] = true */\n      0x0100\n      exp\n      dup2\n      sload\n      dup2\n      0xff\n      mul\n      not\n      and\n      swap1\n      dup4\n      iszero\n      iszero\n      mul\n      or\n      swap1\n      sstore\n      pop\n        /* \"Campaign.sol\":2602:2609  request */\n      dup1\n        /* \"Campaign.sol\":2602:2623  request.approvalCount */\n      0x03\n      add\n      0x00\n        /* \"Campaign.sol\":2602:2625  request.approvalCount++ */\n      dup2\n      sload\n      dup1\n      swap3\n      swap2\n      swap1\n      tag_154\n      swap1\n      tag_147\n      jump\t// in\n    tag_154:\n      swap2\n      swap1\n      pop\n      sstore\n      pop\n        /* \"Campaign.sol\":2317:2633  {... */\n      pop\n        /* \"Campaign.sol\":2274:2633  function approveRequest(uint index) public {... */\n      pop\n      jump\t// out\n        /* \"#utility.yul\":7:82   */\n    tag_155:\n        /* \"#utility.yul\":40:46   */\n      0x00\n        /* \"#utility.yul\":73:75   */\n      0x40\n        /* \"#utility.yul\":67:76   */\n      mload\n        /* \"#utility.yul\":57:76   */\n      swap1\n      pop\n        /* \"#utility.yul\":7:82   */\n      swap1\n      jump\t// out\n        /* \"#utility.yul\":88:205   */\n    tag_156:\n        /* \"#utility.yul\":197:198   */\n      0x00\n        /* \"#utility.yul\":194:195   */\n      dup1\n        /* \"#utility.yul\":187:199   */\n      revert\n        /* \"#utility.yul\":211:328   */\n    tag_157:\n        /* \"#utility.yul\":320:321   */\n      0x00\n        /* \"#utility.yul\":317:318   */\n      dup1\n        /* \"#utility.yul\":310:322   */\n      revert\n        /* \"#utility.yul\":334:411   */\n    tag_158:\n        /* \"#utility.yul\":371:378   */\n      0x00\n        /* \"#utility.yul\":400:405   */\n      dup2\n        /* \"#utility.yul\":389:405   */\n      swap1\n      pop\n        /* \"#utility.yul\":334:411   */\n      swap2\n      swap1\n      pop\n      jump\t// out\n        /* \"#utility.yul\":417:539   */\n    tag_159:\n        /* \"#utility.yul\":490:514   */\n      tag_207\n        /* \"#utility.yul\":508:513   */\n      dup2\n        /* \"#utility.yul\":490:514   */\n      tag_158\n      jump\t// in\n    tag_207:\n        /* \"#utility.yul\":483:488   */\n      dup2\n        /* \"#utility.yul\":480:515   */\n      eq\n        /* \"#utility.yul\":470:533   */\n      tag_208\n      jumpi\n        /* \"#utility.yul\":529:530   */\n      0x00\n        /* \"#utility.yul\":526:527   */\n      dup1\n        /* \"#utility.yul\":519:531   */\n      revert\n        /* \"#utility.yul\":470:533   */\n    tag_208:\n        /* \"#utility.yul\":417:539   */\n      pop\n      jump\t// out\n        /* \"#utility.yul\":545:684   */\n    tag_160:\n        /* \"#utility.yul\":591:596   */\n      0x00\n        /* \"#utility.yul\":629:635   */\n      dup2\n        /* \"#utility.yul\":616:636   */\n      calldataload\n        /* \"#utility.yul\":607:636   */\n      swap1\n      pop\n        /* \"#utility.yul\":645:678   */\n      tag_210\n        /* \"#utility.yul\":672:677   */\n      dup2\n        /* \"#utility.yul\":645:678   */\n      tag_159\n      jump\t// in\n    tag_210:\n        /* \"#utility.yul\":545:684   */\n      swap3\n      swap2\n      pop\n      pop\n      jump\t// out\n        /* \"#utility.yul\":690:1019   */\n    tag_22:\n        /* \"#utility.yul\":749:755   */\n      0x00\n        /* \"#utility.yul\":798:800   */\n      0x20\n        /* \"#utility.yul\":786:795   */\n      dup3\n        /* \"#utility.yul\":777:784   */\n      dup5\n        /* \"#utility.yul\":773:796   */\n      sub\n        /* \"#utility.yul\":769:801   */\n      slt\n        /* \"#utility.yul\":766:885   */\n      iszero\n      tag_212\n      jumpi\n        /* \"#utility.yul\":804:883   */\n      tag_213\n      tag_156\n      jump\t// in\n    tag_213:\n        /* \"#utility.yul\":766:885   */\n    tag_212:\n        /* \"#utility.yul\":924:925   */\n      0x00\n        /* \"#utility.yul\":949:1002   */\n      tag_214\n        /* \"#utility.yul\":994:1001   */\n      dup5\n        /* \"#utility.yul\":985:991   */\n      dup3\n        /* \"#utility.yul\":974:983   */\n      dup6\n        /* \"#utility.yul\":970:992   */\n      add\n        /* \"#utility.yul\":949:1002   */\n      tag_160\n      jump\t// in\n    tag_214:\n        /* \"#utility.yul\":939:1002   */\n      swap2\n      pop\n        /* \"#utility.yul\":895:1012   */\n      pop\n        /* \"#utility.yul\":690:1019   */\n      swap3\n      swap2\n      pop\n      pop\n      jump\t// out\n        /* \"#utility.yul\":1025:1151   */\n    tag_161:\n        /* \"#utility.yul\":1062:1069   */\n      0x00\n        /* \"#utility.yul\":1102:1144   */\n      0xffffffffffffffffffffffffffffffffffffffff\n        /* \"#utility.yul\":1095:1100   */\n      dup3\n        /* \"#utility.yul\":1091:1145   */\n      and\n        /* \"#utility.yul\":1080:1145   */\n      swap1\n      pop\n        /* \"#utility.yul\":1025:1151   */\n      swap2\n      swap1\n      pop\n      jump\t// out\n        /* \"#utility.yul\":1157:1253   */\n    tag_162:\n        /* \"#utility.yul\":1194:1201   */\n      0x00\n        /* \"#utility.yul\":1223:1247   */\n      tag_217\n        /* \"#utility.yul\":1241:1246   */\n      dup3\n        /* \"#utility.yul\":1223:1247   */\n      tag_161\n      jump\t// in\n    tag_217:\n        /* \"#utility.yul\":1212:1247   */\n      swap1\n      pop\n        /* \"#utility.yul\":1157:1253   */\n      swap2\n      swap1\n      pop\n      jump\t// out\n        /* \"#utility.yul\":1259:1381   */\n    tag_163:\n        /* \"#utility.yul\":1332:1356   */\n      tag_219\n        /* \"#utility.yul\":1350:1355   */\n      dup2\n        /* \"#utility.yul\":1332:1356   */\n      tag_162\n      jump\t// in\n    tag_219:\n        /* \"#utility.yul\":1325:1330   */\n      dup2\n        /* \"#utility.yul\":1322:1357   */\n      eq\n        /* \"#utility.yul\":1312:1375   */\n      tag_220\n      jumpi\n        /* \"#utility.yul\":1371:1372   */\n      0x00\n        /* \"#utility.yul\":1368:1369   */\n      dup1\n        /* \"#utility.yul\":1361:1373   */\n      revert\n        /* \"#utility.yul\":1312:1375   */\n    tag_220:\n        /* \"#utility.yul\":1259:1381   */\n      pop\n      jump\t// out\n        /* \"#utility.yul\":1387:1526   */\n    tag_164:\n        /* \"#utility.yul\":1433:1438   */\n      0x00\n        /* \"#utility.yul\":1471:1477   */\n      dup2\n        /* \"#utility.yul\":1458:1478   */\n      calldataload\n        /* \"#utility.yul\":1449:1478   */\n      swap1\n      pop\n        /* \"#utility.yul\":1487:1520   */\n      tag_222\n        /* \"#utility.yul\":1514:1519   */\n      dup2\n        /* \"#utility.yul\":1487:1520   */\n      tag_163\n      jump\t// in\n    tag_222:\n        /* \"#utility.yul\":1387:1526   */\n      swap3\n      swap2\n      pop\n      pop\n      jump\t// out\n        /* \"#utility.yul\":1532:1861   */\n    tag_27:\n        /* \"#utility.yul\":1591:1597   */\n      0x00\n        /* \"#utility.yul\":1640:1642   */\n      0x20\n        /* \"#utility.yul\":1628:1637   */\n      dup3\n        /* \"#utility.yul\":1619:1626   */\n      dup5\n        /* \"#utility.yul\":1615:1638   */\n      sub\n        /* \"#utility.yul\":1611:1643   */\n      slt\n        /* \"#utility.yul\":1608:1727   */\n      iszero\n      tag_224\n      jumpi\n        /* \"#utility.yul\":1646:1725   */\n      tag_225\n      tag_156\n      jump\t// in\n    tag_225:\n        /* \"#utility.yul\":1608:1727   */\n    tag_224:\n        /* \"#utility.yul\":1766:1767   */\n      0x00\n        /* \"#utility.yul\":1791:1844   */\n      tag_226\n        /* \"#utility.yul\":1836:1843   */\n      dup5\n        /* \"#utility.yul\":1827:1833   */\n      dup3\n        /* \"#utility.yul\":1816:1825   */\n      dup6\n        /* \"#utility.yul\":1812:1834   */\n      add\n        /* \"#utility.yul\":1791:1844   */\n      tag_164\n      jump\t// in\n    tag_226:\n        /* \"#utility.yul\":1781:1844   */\n      swap2\n      pop\n        /* \"#utility.yul\":1737:1854   */\n      pop\n        /* \"#utility.yul\":1532:1861   */\n      swap3\n      swap2\n      pop\n      pop\n      jump\t// out\n        /* \"#utility.yul\":1867:1957   */\n    tag_165:\n        /* \"#utility.yul\":1901:1908   */\n      0x00\n        /* \"#utility.yul\":1944:1949   */\n      dup2\n        /* \"#utility.yul\":1937:1950   */\n      iszero\n        /* \"#utility.yul\":1930:1951   */\n      iszero\n        /* \"#utility.yul\":1919:1951   */\n      swap1\n      pop\n        /* \"#utility.yul\":1867:1957   */\n      swap2\n      swap1\n      pop\n      jump\t// out\n        /* \"#utility.yul\":1963:2072   */\n    tag_166:\n        /* \"#utility.yul\":2044:2065   */\n      tag_229\n        /* \"#utility.yul\":2059:2064   */\n      dup2\n        /* \"#utility.yul\":2044:2065   */\n      tag_165\n      jump\t// in\n    tag_229:\n        /* \"#utility.yul\":2039:2042   */\n      dup3\n        /* \"#utility.yul\":2032:2066   */\n      mstore\n        /* \"#utility.yul\":1963:2072   */\n      pop\n      pop\n      jump\t// out\n        /* \"#utility.yul\":2078:2288   */\n    tag_30:\n        /* \"#utility.yul\":2165:2169   */\n      0x00\n        /* \"#utility.yul\":2203:2205   */\n      0x20\n        /* \"#utility.yul\":2192:2201   */\n      dup3\n        /* \"#utility.yul\":2188:2206   */\n      add\n        /* \"#utility.yul\":2180:2206   */\n      swap1\n      pop\n        /* \"#utility.yul\":2216:2281   */\n      tag_231\n        /* \"#utility.yul\":2278:2279   */\n      0x00\n        /* \"#utility.yul\":2267:2276   */\n      dup4\n        /* \"#utility.yul\":2263:2280   */\n      add\n        /* \"#utility.yul\":2254:2260   */\n      dup5\n        /* \"#utility.yul\":2216:2281   */\n      tag_166\n      jump\t// in\n    tag_231:\n        /* \"#utility.yul\":2078:2288   */\n      swap3\n      swap2\n      pop\n      pop\n      jump\t// out\n        /* \"#utility.yul\":2294:2412   */\n    tag_167:\n        /* \"#utility.yul\":2381:2405   */\n      tag_233\n        /* \"#utility.yul\":2399:2404   */\n      dup2\n        /* \"#utility.yul\":2381:2405   */\n      tag_158\n      jump\t// in\n    tag_233:\n        /* \"#utility.yul\":2376:2379   */\n      dup3\n        /* \"#utility.yul\":2369:2406   */\n      mstore\n        /* \"#utility.yul\":2294:2412   */\n      pop\n      pop\n      jump\t// out\n        /* \"#utility.yul\":2418:2640   */\n    tag_35:\n        /* \"#utility.yul\":2511:2515   */\n      0x00\n        /* \"#utility.yul\":2549:2551   */\n      0x20\n        /* \"#utility.yul\":2538:2547   */\n      dup3\n        /* \"#utility.yul\":2534:2552   */\n      add\n        /* \"#utility.yul\":2526:2552   */\n      swap1\n      pop\n        /* \"#utility.yul\":2562:2633   */\n      tag_235\n        /* \"#utility.yul\":2630:2631   */\n      0x00\n        /* \"#utility.yul\":2619:2628   */\n      dup4\n        /* \"#utility.yul\":2615:2632   */\n      add\n        /* \"#utility.yul\":2606:2612   */\n      dup5\n        /* \"#utility.yul\":2562:2633   */\n      tag_167\n      jump\t// in\n    tag_235:\n        /* \"#utility.yul\":2418:2640   */\n      swap3\n      swap2\n      pop\n      pop\n      jump\t// out\n        /* \"#utility.yul\":2646:2764   */\n    tag_168:\n        /* \"#utility.yul\":2733:2757   */\n      tag_237\n        /* \"#utility.yul\":2751:2756   */\n      dup2\n        /* \"#utility.yul\":2733:2757   */\n      tag_162\n      jump\t// in\n    tag_237:\n        /* \"#utility.yul\":2728:2731   */\n      dup3\n        /* \"#utility.yul\":2721:2758   */\n      mstore\n        /* \"#utility.yul\":2646:2764   */\n      pop\n      pop\n      jump\t// out\n        /* \"#utility.yul\":2770:2869   */\n    tag_169:\n        /* \"#utility.yul\":2822:2828   */\n      0x00\n        /* \"#utility.yul\":2856:2861   */\n      dup2\n        /* \"#utility.yul\":2850:2862   */\n      mload\n        /* \"#utility.yul\":2840:2862   */\n      swap1\n      pop\n        /* \"#utility.yul\":2770:2869   */\n      swap2\n      swap1\n      pop\n      jump\t// out\n        /* \"#utility.yul\":2875:3044   */\n    tag_170:\n        /* \"#utility.yul\":2959:2970   */\n      0x00\n        /* \"#utility.yul\":2993:2999   */\n      dup3\n        /* \"#utility.yul\":2988:2991   */\n      dup3\n        /* \"#utility.yul\":2981:3000   */\n      mstore\n        /* \"#utility.yul\":3033:3037   */\n      0x20\n        /* \"#utility.yul\":3028:3031   */\n      dup3\n        /* \"#utility.yul\":3024:3038   */\n      add\n        /* \"#utility.yul\":3009:3038   */\n      swap1\n      pop\n        /* \"#utility.yul\":2875:3044   */\n      swap3\n      swap2\n      pop\n      pop\n      jump\t// out\n        /* \"#utility.yul\":3050:3296   */\n    tag_171:\n        /* \"#utility.yul\":3131:3132   */\n      0x00\n        /* \"#utility.yul\":3141:3254   */\n    tag_241:\n        /* \"#utility.yul\":3155:3161   */\n      dup4\n        /* \"#utility.yul\":3152:3153   */\n      dup2\n        /* \"#utility.yul\":3149:3162   */\n      lt\n        /* \"#utility.yul\":3141:3254   */\n      iszero\n      tag_243\n      jumpi\n        /* \"#utility.yul\":3240:3241   */\n      dup1\n        /* \"#utility.yul\":3235:3238   */\n      dup3\n        /* \"#utility.yul\":3231:3242   */\n      add\n        /* \"#utility.yul\":3225:3243   */\n      mload\n        /* \"#utility.yul\":3221:3222   */\n      dup2\n        /* \"#utility.yul\":3216:3219   */\n      dup5\n        /* \"#utility.yul\":3212:3223   */\n      add\n        /* \"#utility.yul\":3205:3244   */\n      mstore\n        /* \"#utility.yul\":3177:3179   */\n      0x20\n        /* \"#utility.yul\":3174:3175   */\n      dup2\n        /* \"#utility.yul\":3170:3180   */\n      add\n        /* \"#utility.yul\":3165:3180   */\n      swap1\n      pop\n        /* \"#utility.yul\":3141:3254   */\n      jump(tag_241)\n    tag_243:\n        /* \"#utility.yul\":3288:3289   */\n      0x00\n        /* \"#utility.yul\":3279:3285   */\n      dup5\n        /* \"#utility.yul\":3274:3277   */\n      dup5\n        /* \"#utility.yul\":3270:3286   */\n      add\n        /* \"#utility.yul\":3263:3290   */\n      mstore\n        /* \"#utility.yul\":3112:3296   */\n      pop\n        /* \"#utility.yul\":3050:3296   */\n      pop\n      pop\n      pop\n      jump\t// out\n        /* \"#utility.yul\":3302:3404   */\n    tag_172:\n        /* \"#utility.yul\":3343:3349   */\n      0x00\n        /* \"#utility.yul\":3394:3396   */\n      0x1f\n        /* \"#utility.yul\":3390:3397   */\n      not\n        /* \"#utility.yul\":3385:3387   */\n      0x1f\n        /* \"#utility.yul\":3378:3383   */\n      dup4\n        /* \"#utility.yul\":3374:3388   */\n      add\n        /* \"#utility.yul\":3370:3398   */\n      and\n        /* \"#utility.yul\":3360:3398   */\n      swap1\n      pop\n        /* \"#utility.yul\":3302:3404   */\n      swap2\n      swap1\n      pop\n      jump\t// out\n        /* \"#utility.yul\":3410:3787   */\n    tag_173:\n        /* \"#utility.yul\":3498:3501   */\n      0x00\n        /* \"#utility.yul\":3526:3565   */\n      tag_246\n        /* \"#utility.yul\":3559:3564   */\n      dup3\n        /* \"#utility.yul\":3526:3565   */\n      tag_169\n      jump\t// in\n    tag_246:\n        /* \"#utility.yul\":3581:3652   */\n      tag_247\n        /* \"#utility.yul\":3645:3651   */\n      dup2\n        /* \"#utility.yul\":3640:3643   */\n      dup6\n        /* \"#utility.yul\":3581:3652   */\n      tag_170\n      jump\t// in\n    tag_247:\n        /* \"#utility.yul\":3574:3652   */\n      swap4\n      pop\n        /* \"#utility.yul\":3661:3726   */\n      tag_248\n        /* \"#utility.yul\":3719:3725   */\n      dup2\n        /* \"#utility.yul\":3714:3717   */\n      dup6\n        /* \"#utility.yul\":3707:3711   */\n      0x20\n        /* \"#utility.yul\":3700:3705   */\n      dup7\n        /* \"#utility.yul\":3696:3712   */\n      add\n        /* \"#utility.yul\":3661:3726   */\n      tag_171\n      jump\t// in\n    tag_248:\n        /* \"#utility.yul\":3751:3780   */\n      tag_249\n        /* \"#utility.yul\":3773:3779   */\n      dup2\n        /* \"#utility.yul\":3751:3780   */\n      tag_172\n      jump\t// in\n    tag_249:\n        /* \"#utility.yul\":3746:3749   */\n      dup5\n        /* \"#utility.yul\":3742:3781   */\n      add\n        /* \"#utility.yul\":3735:3781   */\n      swap2\n      pop\n        /* \"#utility.yul\":3502:3787   */\n      pop\n        /* \"#utility.yul\":3410:3787   */\n      swap3\n      swap2\n      pop\n      pop\n      jump\t// out\n        /* \"#utility.yul\":3793:5063   */\n    tag_40:\n        /* \"#utility.yul\":4142:4146   */\n      0x00\n        /* \"#utility.yul\":4180:4183   */\n      0x0100\n        /* \"#utility.yul\":4169:4178   */\n      dup3\n        /* \"#utility.yul\":4165:4184   */\n      add\n        /* \"#utility.yul\":4157:4184   */\n      swap1\n      pop\n        /* \"#utility.yul\":4194:4265   */\n      tag_251\n        /* \"#utility.yul\":4262:4263   */\n      0x00\n        /* \"#utility.yul\":4251:4260   */\n      dup4\n        /* \"#utility.yul\":4247:4264   */\n      add\n        /* \"#utility.yul\":4238:4244   */\n      dup12\n        /* \"#utility.yul\":4194:4265   */\n      tag_167\n      jump\t// in\n    tag_251:\n        /* \"#utility.yul\":4275:4347   */\n      tag_252\n        /* \"#utility.yul\":4343:4345   */\n      0x20\n        /* \"#utility.yul\":4332:4341   */\n      dup4\n        /* \"#utility.yul\":4328:4346   */\n      add\n        /* \"#utility.yul\":4319:4325   */\n      dup11\n        /* \"#utility.yul\":4275:4347   */\n      tag_167\n      jump\t// in\n    tag_252:\n        /* \"#utility.yul\":4357:4429   */\n      tag_253\n        /* \"#utility.yul\":4425:4427   */\n      0x40\n        /* \"#utility.yul\":4414:4423   */\n      dup4\n        /* \"#utility.yul\":4410:4428   */\n      add\n        /* \"#utility.yul\":4401:4407   */\n      dup10\n        /* \"#utility.yul\":4357:4429   */\n      tag_167\n      jump\t// in\n    tag_253:\n        /* \"#utility.yul\":4439:4511   */\n      tag_254\n        /* \"#utility.yul\":4507:4509   */\n      0x60\n        /* \"#utility.yul\":4496:4505   */\n      dup4\n        /* \"#utility.yul\":4492:4510   */\n      add\n        /* \"#utility.yul\":4483:4489   */\n      dup9\n        /* \"#utility.yul\":4439:4511   */\n      tag_167\n      jump\t// in\n    tag_254:\n        /* \"#utility.yul\":4521:4594   */\n      tag_255\n        /* \"#utility.yul\":4589:4592   */\n      0x80\n        /* \"#utility.yul\":4578:4587   */\n      dup4\n        /* \"#utility.yul\":4574:4593   */\n      add\n        /* \"#utility.yul\":4565:4571   */\n      dup8\n        /* \"#utility.yul\":4521:4594   */\n      tag_168\n      jump\t// in\n    tag_255:\n        /* \"#utility.yul\":4642:4651   */\n      dup2\n        /* \"#utility.yul\":4636:4640   */\n      dup2\n        /* \"#utility.yul\":4632:4652   */\n      sub\n        /* \"#utility.yul\":4626:4629   */\n      0xa0\n        /* \"#utility.yul\":4615:4624   */\n      dup4\n        /* \"#utility.yul\":4611:4630   */\n      add\n        /* \"#utility.yul\":4604:4653   */\n      mstore\n        /* \"#utility.yul\":4670:4748   */\n      tag_256\n        /* \"#utility.yul\":4743:4747   */\n      dup2\n        /* \"#utility.yul\":4734:4740   */\n      dup7\n        /* \"#utility.yul\":4670:4748   */\n      tag_173\n      jump\t// in\n    tag_256:\n        /* \"#utility.yul\":4662:4748   */\n      swap1\n      pop\n        /* \"#utility.yul\":4796:4805   */\n      dup2\n        /* \"#utility.yul\":4790:4794   */\n      dup2\n        /* \"#utility.yul\":4786:4806   */\n      sub\n        /* \"#utility.yul\":4780:4783   */\n      0xc0\n        /* \"#utility.yul\":4769:4778   */\n      dup4\n        /* \"#utility.yul\":4765:4784   */\n      add\n        /* \"#utility.yul\":4758:4807   */\n      mstore\n        /* \"#utility.yul\":4824:4902   */\n      tag_257\n        /* \"#utility.yul\":4897:4901   */\n      dup2\n        /* \"#utility.yul\":4888:4894   */\n      dup6\n        /* \"#utility.yul\":4824:4902   */\n      tag_173\n      jump\t// in\n    tag_257:\n        /* \"#utility.yul\":4816:4902   */\n      swap1\n      pop\n        /* \"#utility.yul\":4950:4959   */\n      dup2\n        /* \"#utility.yul\":4944:4948   */\n      dup2\n        /* \"#utility.yul\":4940:4960   */\n      sub\n        /* \"#utility.yul\":4934:4937   */\n      0xe0\n        /* \"#utility.yul\":4923:4932   */\n      dup4\n        /* \"#utility.yul\":4919:4938   */\n      add\n        /* \"#utility.yul\":4912:4961   */\n      mstore\n        /* \"#utility.yul\":4978:5056   */\n      tag_258\n        /* \"#utility.yul\":5051:5055   */\n      dup2\n        /* \"#utility.yul\":5042:5048   */\n      dup5\n        /* \"#utility.yul\":4978:5056   */\n      tag_173\n      jump\t// in\n    tag_258:\n        /* \"#utility.yul\":4970:5056   */\n      swap1\n      pop\n        /* \"#utility.yul\":3793:5063   */\n      swap10\n      swap9\n      pop\n      pop\n      pop\n      pop\n      pop\n      pop\n      pop\n      pop\n      pop\n      jump\t// out\n        /* \"#utility.yul\":5069:5291   */\n    tag_45:\n        /* \"#utility.yul\":5162:5166   */\n      0x00\n        /* \"#utility.yul\":5200:5202   */\n      0x20\n        /* \"#utility.yul\":5189:5198   */\n      dup3\n        /* \"#utility.yul\":5185:5203   */\n      add\n        /* \"#utility.yul\":5177:5203   */\n      swap1\n      pop\n        /* \"#utility.yul\":5213:5284   */\n      tag_260\n        /* \"#utility.yul\":5281:5282   */\n      0x00\n        /* \"#utility.yul\":5270:5279   */\n      dup4\n        /* \"#utility.yul\":5266:5283   */\n      add\n        /* \"#utility.yul\":5257:5263   */\n      dup5\n        /* \"#utility.yul\":5213:5284   */\n      tag_168\n      jump\t// in\n    tag_260:\n        /* \"#utility.yul\":5069:5291   */\n      swap3\n      swap2\n      pop\n      pop\n      jump\t// out\n        /* \"#utility.yul\":5297:5610   */\n    tag_50:\n        /* \"#utility.yul\":5410:5414   */\n      0x00\n        /* \"#utility.yul\":5448:5450   */\n      0x20\n        /* \"#utility.yul\":5437:5446   */\n      dup3\n        /* \"#utility.yul\":5433:5451   */\n      add\n        /* \"#utility.yul\":5425:5451   */\n      swap1\n      pop\n        /* \"#utility.yul\":5497:5506   */\n      dup2\n        /* \"#utility.yul\":5491:5495   */\n      dup2\n        /* \"#utility.yul\":5487:5507   */\n      sub\n        /* \"#utility.yul\":5483:5484   */\n      0x00\n        /* \"#utility.yul\":5472:5481   */\n      dup4\n        /* \"#utility.yul\":5468:5485   */\n      add\n        /* \"#utility.yul\":5461:5508   */\n      mstore\n        /* \"#utility.yul\":5525:5603   */\n      tag_262\n        /* \"#utility.yul\":5598:5602   */\n      dup2\n        /* \"#utility.yul\":5589:5595   */\n      dup5\n        /* \"#utility.yul\":5525:5603   */\n      tag_173\n      jump\t// in\n    tag_262:\n        /* \"#utility.yul\":5517:5603   */\n      swap1\n      pop\n        /* \"#utility.yul\":5297:5610   */\n      swap3\n      swap2\n      pop\n      pop\n      jump\t// out\n        /* \"#utility.yul\":5616:6359   */\n    tag_56:\n        /* \"#utility.yul\":5835:5839   */\n      0x00\n        /* \"#utility.yul\":5873:5876   */\n      0xa0\n        /* \"#utility.yul\":5862:5871   */\n      dup3\n        /* \"#utility.yul\":5858:5877   */\n      add\n        /* \"#utility.yul\":5850:5877   */\n      swap1\n      pop\n        /* \"#utility.yul\":5923:5932   */\n      dup2\n        /* \"#utility.yul\":5917:5921   */\n      dup2\n        /* \"#utility.yul\":5913:5933   */\n      sub\n        /* \"#utility.yul\":5909:5910   */\n      0x00\n        /* \"#utility.yul\":5898:5907   */\n      dup4\n        /* \"#utility.yul\":5894:5911   */\n      add\n        /* \"#utility.yul\":5887:5934   */\n      mstore\n        /* \"#utility.yul\":5951:6029   */\n      tag_264\n        /* \"#utility.yul\":6024:6028   */\n      dup2\n        /* \"#utility.yul\":6015:6021   */\n      dup9\n        /* \"#utility.yul\":5951:6029   */\n      tag_173\n      jump\t// in\n    tag_264:\n        /* \"#utility.yul\":5943:6029   */\n      swap1\n      pop\n        /* \"#utility.yul\":6039:6111   */\n      tag_265\n        /* \"#utility.yul\":6107:6109   */\n      0x20\n        /* \"#utility.yul\":6096:6105   */\n      dup4\n        /* \"#utility.yul\":6092:6110   */\n      add\n        /* \"#utility.yul\":6083:6089   */\n      dup8\n        /* \"#utility.yul\":6039:6111   */\n      tag_167\n      jump\t// in\n    tag_265:\n        /* \"#utility.yul\":6121:6193   */\n      tag_266\n        /* \"#utility.yul\":6189:6191   */\n      0x40\n        /* \"#utility.yul\":6178:6187   */\n      dup4\n        /* \"#utility.yul\":6174:6192   */\n      add\n        /* \"#utility.yul\":6165:6171   */\n      dup7\n        /* \"#utility.yul\":6121:6193   */\n      tag_168\n      jump\t// in\n    tag_266:\n        /* \"#utility.yul\":6203:6269   */\n      tag_267\n        /* \"#utility.yul\":6265:6267   */\n      0x60\n        /* \"#utility.yul\":6254:6263   */\n      dup4\n        /* \"#utility.yul\":6250:6268   */\n      add\n        /* \"#utility.yul\":6241:6247   */\n      dup6\n        /* \"#utility.yul\":6203:6269   */\n      tag_166\n      jump\t// in\n    tag_267:\n        /* \"#utility.yul\":6279:6352   */\n      tag_268\n        /* \"#utility.yul\":6347:6350   */\n      0x80\n        /* \"#utility.yul\":6336:6345   */\n      dup4\n        /* \"#utility.yul\":6332:6351   */\n      add\n        /* \"#utility.yul\":6323:6329   */\n      dup5\n        /* \"#utility.yul\":6279:6352   */\n      tag_167\n      jump\t// in\n    tag_268:\n        /* \"#utility.yul\":5616:6359   */\n      swap7\n      swap6\n      pop\n      pop\n      pop\n      pop\n      pop\n      pop\n      jump\t// out\n        /* \"#utility.yul\":6365:6482   */\n    tag_174:\n        /* \"#utility.yul\":6474:6475   */\n      0x00\n        /* \"#utility.yul\":6471:6472   */\n      dup1\n        /* \"#utility.yul\":6464:6476   */\n      revert\n        /* \"#utility.yul\":6488:6605   */\n    tag_175:\n        /* \"#utility.yul\":6597:6598   */\n      0x00\n        /* \"#utility.yul\":6594:6595   */\n      dup1\n        /* \"#utility.yul\":6587:6599   */\n      revert\n        /* \"#utility.yul\":6611:6791   */\n    tag_176:\n        /* \"#utility.yul\":6659:6736   */\n      0x4e487b7100000000000000000000000000000000000000000000000000000000\n        /* \"#utility.yul\":6656:6657   */\n      0x00\n        /* \"#utility.yul\":6649:6737   */\n      mstore\n        /* \"#utility.yul\":6756:6760   */\n      0x41\n        /* \"#utility.yul\":6753:6754   */\n      0x04\n        /* \"#utility.yul\":6746:6761   */\n      mstore\n        /* \"#utility.yul\":6780:6784   */\n      0x24\n        /* \"#utility.yul\":6777:6778   */\n      0x00\n        /* \"#utility.yul\":6770:6785   */\n      revert\n        /* \"#utility.yul\":6797:7078   */\n    tag_177:\n        /* \"#utility.yul\":6880:6907   */\n      tag_273\n        /* \"#utility.yul\":6902:6906   */\n      dup3\n        /* \"#utility.yul\":6880:6907   */\n      tag_172\n      jump\t// in\n    tag_273:\n        /* \"#utility.yul\":6872:6878   */\n      dup2\n        /* \"#utility.yul\":6868:6908   */\n      add\n        /* \"#utility.yul\":7010:7016   */\n      dup2\n        /* \"#utility.yul\":6998:7008   */\n      dup2\n        /* \"#utility.yul\":6995:7017   */\n      lt\n        /* \"#utility.yul\":6974:6992   */\n      0xffffffffffffffff\n        /* \"#utility.yul\":6962:6972   */\n      dup3\n        /* \"#utility.yul\":6959:6993   */\n      gt\n        /* \"#utility.yul\":6956:7018   */\n      or\n        /* \"#utility.yul\":6953:7041   */\n      iszero\n      tag_274\n      jumpi\n        /* \"#utility.yul\":7021:7039   */\n      tag_275\n      tag_176\n      jump\t// in\n    tag_275:\n        /* \"#utility.yul\":6953:7041   */\n    tag_274:\n        /* \"#utility.yul\":7061:7071   */\n      dup1\n        /* \"#utility.yul\":7057:7059   */\n      0x40\n        /* \"#utility.yul\":7050:7072   */\n      mstore\n        /* \"#utility.yul\":6840:7078   */\n      pop\n        /* \"#utility.yul\":6797:7078   */\n      pop\n      pop\n      jump\t// out\n        /* \"#utility.yul\":7084:7213   */\n    tag_178:\n        /* \"#utility.yul\":7118:7124   */\n      0x00\n        /* \"#utility.yul\":7145:7165   */\n      tag_277\n      tag_155\n      jump\t// in\n    tag_277:\n        /* \"#utility.yul\":7135:7165   */\n      swap1\n      pop\n        /* \"#utility.yul\":7174:7207   */\n      tag_278\n        /* \"#utility.yul\":7202:7206   */\n      dup3\n        /* \"#utility.yul\":7194:7200   */\n      dup3\n        /* \"#utility.yul\":7174:7207   */\n      tag_177\n      jump\t// in\n    tag_278:\n        /* \"#utility.yul\":7084:7213   */\n      swap2\n      swap1\n      pop\n      jump\t// out\n        /* \"#utility.yul\":7219:7527   */\n    tag_179:\n        /* \"#utility.yul\":7281:7285   */\n      0x00\n        /* \"#utility.yul\":7371:7389   */\n      0xffffffffffffffff\n        /* \"#utility.yul\":7363:7369   */\n      dup3\n        /* \"#utility.yul\":7360:7390   */\n      gt\n        /* \"#utility.yul\":7357:7413   */\n      iszero\n      tag_280\n      jumpi\n        /* \"#utility.yul\":7393:7411   */\n      tag_281\n      tag_176\n      jump\t// in\n    tag_281:\n        /* \"#utility.yul\":7357:7413   */\n    tag_280:\n        /* \"#utility.yul\":7431:7460   */\n      tag_282\n        /* \"#utility.yul\":7453:7459   */\n      dup3\n        /* \"#utility.yul\":7431:7460   */\n      tag_172\n      jump\t// in\n    tag_282:\n        /* \"#utility.yul\":7423:7460   */\n      swap1\n      pop\n        /* \"#utility.yul\":7515:7519   */\n      0x20\n        /* \"#utility.yul\":7509:7513   */\n      dup2\n        /* \"#utility.yul\":7505:7520   */\n      add\n        /* \"#utility.yul\":7497:7520   */\n      swap1\n      pop\n        /* \"#utility.yul\":7219:7527   */\n      swap2\n      swap1\n      pop\n      jump\t// out\n        /* \"#utility.yul\":7533:7679   */\n    tag_180:\n        /* \"#utility.yul\":7630:7636   */\n      dup3\n        /* \"#utility.yul\":7625:7628   */\n      dup2\n        /* \"#utility.yul\":7620:7623   */\n      dup4\n        /* \"#utility.yul\":7607:7637   */\n      calldatacopy\n        /* \"#utility.yul\":7671:7672   */\n      0x00\n        /* \"#utility.yul\":7662:7668   */\n      dup4\n        /* \"#utility.yul\":7657:7660   */\n      dup4\n        /* \"#utility.yul\":7653:7669   */\n      add\n        /* \"#utility.yul\":7646:7673   */\n      mstore\n        /* \"#utility.yul\":7533:7679   */\n      pop\n      pop\n      pop\n      jump\t// out\n        /* \"#utility.yul\":7685:8110   */\n    tag_181:\n        /* \"#utility.yul\":7763:7768   */\n      0x00\n        /* \"#utility.yul\":7788:7854   */\n      tag_285\n        /* \"#utility.yul\":7804:7853   */\n      tag_286\n        /* \"#utility.yul\":7846:7852   */\n      dup5\n        /* \"#utility.yul\":7804:7853   */\n      tag_179\n      jump\t// in\n    tag_286:\n        /* \"#utility.yul\":7788:7854   */\n      tag_178\n      jump\t// in\n    tag_285:\n        /* \"#utility.yul\":7779:7854   */\n      swap1\n      pop\n        /* \"#utility.yul\":7877:7883   */\n      dup3\n        /* \"#utility.yul\":7870:7875   */\n      dup2\n        /* \"#utility.yul\":7863:7884   */\n      mstore\n        /* \"#utility.yul\":7915:7919   */\n      0x20\n        /* \"#utility.yul\":7908:7913   */\n      dup2\n        /* \"#utility.yul\":7904:7920   */\n      add\n        /* \"#utility.yul\":7953:7956   */\n      dup5\n        /* \"#utility.yul\":7944:7950   */\n      dup5\n        /* \"#utility.yul\":7939:7942   */\n      dup5\n        /* \"#utility.yul\":7935:7951   */\n      add\n        /* \"#utility.yul\":7932:7957   */\n      gt\n        /* \"#utility.yul\":7929:8041   */\n      iszero\n      tag_287\n      jumpi\n        /* \"#utility.yul\":7960:8039   */\n      tag_288\n      tag_175\n      jump\t// in\n    tag_288:\n        /* \"#utility.yul\":7929:8041   */\n    tag_287:\n        /* \"#utility.yul\":8050:8104   */\n      tag_289\n        /* \"#utility.yul\":8097:8103   */\n      dup5\n        /* \"#utility.yul\":8092:8095   */\n      dup3\n        /* \"#utility.yul\":8087:8090   */\n      dup6\n        /* \"#utility.yul\":8050:8104   */\n      tag_180\n      jump\t// in\n    tag_289:\n        /* \"#utility.yul\":7769:8110   */\n      pop\n        /* \"#utility.yul\":7685:8110   */\n      swap4\n      swap3\n      pop\n      pop\n      pop\n      jump\t// out\n        /* \"#utility.yul\":8130:8470   */\n    tag_182:\n        /* \"#utility.yul\":8186:8191   */\n      0x00\n        /* \"#utility.yul\":8235:8238   */\n      dup3\n        /* \"#utility.yul\":8228:8232   */\n      0x1f\n        /* \"#utility.yul\":8220:8226   */\n      dup4\n        /* \"#utility.yul\":8216:8233   */\n      add\n        /* \"#utility.yul\":8212:8239   */\n      slt\n        /* \"#utility.yul\":8202:8324   */\n      tag_291\n      jumpi\n        /* \"#utility.yul\":8243:8322   */\n      tag_292\n      tag_174\n      jump\t// in\n    tag_292:\n        /* \"#utility.yul\":8202:8324   */\n    tag_291:\n        /* \"#utility.yul\":8360:8366   */\n      dup2\n        /* \"#utility.yul\":8347:8367   */\n      calldataload\n        /* \"#utility.yul\":8385:8464   */\n      tag_293\n        /* \"#utility.yul\":8460:8463   */\n      dup5\n        /* \"#utility.yul\":8452:8458   */\n      dup3\n        /* \"#utility.yul\":8445:8449   */\n      0x20\n        /* \"#utility.yul\":8437:8443   */\n      dup7\n        /* \"#utility.yul\":8433:8450   */\n      add\n        /* \"#utility.yul\":8385:8464   */\n      tag_181\n      jump\t// in\n    tag_293:\n        /* \"#utility.yul\":8376:8464   */\n      swap2\n      pop\n        /* \"#utility.yul\":8192:8470   */\n      pop\n        /* \"#utility.yul\":8130:8470   */\n      swap3\n      swap2\n      pop\n      pop\n      jump\t// out\n        /* \"#utility.yul\":8476:9275   */\n    tag_64:\n        /* \"#utility.yul\":8563:8569   */\n      0x00\n        /* \"#utility.yul\":8571:8577   */\n      dup1\n        /* \"#utility.yul\":8579:8585   */\n      0x00\n        /* \"#utility.yul\":8628:8630   */\n      0x60\n        /* \"#utility.yul\":8616:8625   */\n      dup5\n        /* \"#utility.yul\":8607:8614   */\n      dup7\n        /* \"#utility.yul\":8603:8626   */\n      sub\n        /* \"#utility.yul\":8599:8631   */\n      slt\n        /* \"#utility.yul\":8596:8715   */\n      iszero\n      tag_295\n      jumpi\n        /* \"#utility.yul\":8634:8713   */\n      tag_296\n      tag_156\n      jump\t// in\n    tag_296:\n        /* \"#utility.yul\":8596:8715   */\n    tag_295:\n        /* \"#utility.yul\":8782:8783   */\n      0x00\n        /* \"#utility.yul\":8771:8780   */\n      dup5\n        /* \"#utility.yul\":8767:8784   */\n      add\n        /* \"#utility.yul\":8754:8785   */\n      calldataload\n        /* \"#utility.yul\":8812:8830   */\n      0xffffffffffffffff\n        /* \"#utility.yul\":8804:8810   */\n      dup2\n        /* \"#utility.yul\":8801:8831   */\n      gt\n        /* \"#utility.yul\":8798:8915   */\n      iszero\n      tag_297\n      jumpi\n        /* \"#utility.yul\":8834:8913   */\n      tag_298\n      tag_157\n      jump\t// in\n    tag_298:\n        /* \"#utility.yul\":8798:8915   */\n    tag_297:\n        /* \"#utility.yul\":8939:9002   */\n      tag_299\n        /* \"#utility.yul\":8994:9001   */\n      dup7\n        /* \"#utility.yul\":8985:8991   */\n      dup3\n        /* \"#utility.yul\":8974:8983   */\n      dup8\n        /* \"#utility.yul\":8970:8992   */\n      add\n        /* \"#utility.yul\":8939:9002   */\n      tag_182\n      jump\t// in\n    tag_299:\n        /* \"#utility.yul\":8929:9002   */\n      swap4\n      pop\n        /* \"#utility.yul\":8725:9012   */\n      pop\n        /* \"#utility.yul\":9051:9053   */\n      0x20\n        /* \"#utility.yul\":9077:9130   */\n      tag_300\n        /* \"#utility.yul\":9122:9129   */\n      dup7\n        /* \"#utility.yul\":9113:9119   */\n      dup3\n        /* \"#utility.yul\":9102:9111   */\n      dup8\n        /* \"#utility.yul\":9098:9120   */\n      add\n        /* \"#utility.yul\":9077:9130   */\n      tag_160\n      jump\t// in\n    tag_300:\n        /* \"#utility.yul\":9067:9130   */\n      swap3\n      pop\n        /* \"#utility.yul\":9022:9140   */\n      pop\n        /* \"#utility.yul\":9179:9181   */\n      0x40\n        /* \"#utility.yul\":9205:9258   */\n      tag_301\n        /* \"#utility.yul\":9250:9257   */\n      dup7\n        /* \"#utility.yul\":9241:9247   */\n      dup3\n        /* \"#utility.yul\":9230:9239   */\n      dup8\n        /* \"#utility.yul\":9226:9248   */\n      add\n        /* \"#utility.yul\":9205:9258   */\n      tag_164\n      jump\t// in\n    tag_301:\n        /* \"#utility.yul\":9195:9258   */\n      swap2\n      pop\n        /* \"#utility.yul\":9150:9268   */\n      pop\n        /* \"#utility.yul\":8476:9275   */\n      swap3\n      pop\n      swap3\n      pop\n      swap3\n      jump\t// out\n        /* \"#utility.yul\":9281:9461   */\n    tag_89:\n        /* \"#utility.yul\":9329:9406   */\n      0x4e487b7100000000000000000000000000000000000000000000000000000000\n        /* \"#utility.yul\":9326:9327   */\n      0x00\n        /* \"#utility.yul\":9319:9407   */\n      mstore\n        /* \"#utility.yul\":9426:9430   */\n      0x32\n        /* \"#utility.yul\":9423:9424   */\n      0x04\n        /* \"#utility.yul\":9416:9431   */\n      mstore\n        /* \"#utility.yul\":9450:9454   */\n      0x24\n        /* \"#utility.yul\":9447:9448   */\n      0x00\n        /* \"#utility.yul\":9440:9455   */\n      revert\n        /* \"#utility.yul\":9467:9647   */\n    tag_183:\n        /* \"#utility.yul\":9515:9592   */\n      0x4e487b7100000000000000000000000000000000000000000000000000000000\n        /* \"#utility.yul\":9512:9513   */\n      0x00\n        /* \"#utility.yul\":9505:9593   */\n      mstore\n        /* \"#utility.yul\":9612:9616   */\n      0x12\n        /* \"#utility.yul\":9609:9610   */\n      0x04\n        /* \"#utility.yul\":9602:9617   */\n      mstore\n        /* \"#utility.yul\":9636:9640   */\n      0x24\n        /* \"#utility.yul\":9633:9634   */\n      0x00\n        /* \"#utility.yul\":9626:9641   */\n      revert\n        /* \"#utility.yul\":9653:9833   */\n    tag_184:\n        /* \"#utility.yul\":9701:9778   */\n      0x4e487b7100000000000000000000000000000000000000000000000000000000\n        /* \"#utility.yul\":9698:9699   */\n      0x00\n        /* \"#utility.yul\":9691:9779   */\n      mstore\n        /* \"#utility.yul\":9798:9802   */\n      0x11\n        /* \"#utility.yul\":9795:9796   */\n      0x04\n        /* \"#utility.yul\":9788:9803   */\n      mstore\n        /* \"#utility.yul\":9822:9826   */\n      0x24\n        /* \"#utility.yul\":9819:9820   */\n      0x00\n        /* \"#utility.yul\":9812:9827   */\n      revert\n        /* \"#utility.yul\":9839:10024   */\n    tag_93:\n        /* \"#utility.yul\":9879:9880   */\n      0x00\n        /* \"#utility.yul\":9896:9916   */\n      tag_306\n        /* \"#utility.yul\":9914:9915   */\n      dup3\n        /* \"#utility.yul\":9896:9916   */\n      tag_158\n      jump\t// in\n    tag_306:\n        /* \"#utility.yul\":9891:9916   */\n      swap2\n      pop\n        /* \"#utility.yul\":9930:9950   */\n      tag_307\n        /* \"#utility.yul\":9948:9949   */\n      dup4\n        /* \"#utility.yul\":9930:9950   */\n      tag_158\n      jump\t// in\n    tag_307:\n        /* \"#utility.yul\":9925:9950   */\n      swap3\n      pop\n        /* \"#utility.yul\":9969:9970   */\n      dup3\n        /* \"#utility.yul\":9959:9994   */\n      tag_308\n      jumpi\n        /* \"#utility.yul\":9974:9992   */\n      tag_309\n      tag_183\n      jump\t// in\n    tag_309:\n        /* \"#utility.yul\":9959:9994   */\n    tag_308:\n        /* \"#utility.yul\":10016:10017   */\n      dup3\n        /* \"#utility.yul\":10013:10014   */\n      dup3\n        /* \"#utility.yul\":10009:10018   */\n      div\n        /* \"#utility.yul\":10004:10018   */\n      swap1\n      pop\n        /* \"#utility.yul\":9839:10024   */\n      swap3\n      swap2\n      pop\n      pop\n      jump\t// out\n        /* \"#utility.yul\":10030:10210   */\n    tag_185:\n        /* \"#utility.yul\":10078:10155   */\n      0x4e487b7100000000000000000000000000000000000000000000000000000000\n        /* \"#utility.yul\":10075:10076   */\n      0x00\n        /* \"#utility.yul\":10068:10156   */\n      mstore\n        /* \"#utility.yul\":10175:10179   */\n      0x22\n        /* \"#utility.yul\":10172:10173   */\n      0x04\n        /* \"#utility.yul\":10165:10180   */\n      mstore\n        /* \"#utility.yul\":10199:10203   */\n      0x24\n        /* \"#utility.yul\":10196:10197   */\n      0x00\n        /* \"#utility.yul\":10189:10204   */\n      revert\n        /* \"#utility.yul\":10216:10536   */\n    tag_100:\n        /* \"#utility.yul\":10260:10266   */\n      0x00\n        /* \"#utility.yul\":10297:10298   */\n      0x02\n        /* \"#utility.yul\":10291:10295   */\n      dup3\n        /* \"#utility.yul\":10287:10299   */\n      div\n        /* \"#utility.yul\":10277:10299   */\n      swap1\n      pop\n        /* \"#utility.yul\":10344:10345   */\n      0x01\n        /* \"#utility.yul\":10338:10342   */\n      dup3\n        /* \"#utility.yul\":10334:10346   */\n      and\n        /* \"#utility.yul\":10365:10383   */\n      dup1\n        /* \"#utility.yul\":10355:10436   */\n      tag_312\n      jumpi\n        /* \"#utility.yul\":10421:10425   */\n      0x7f\n        /* \"#utility.yul\":10413:10419   */\n      dup3\n        /* \"#utility.yul\":10409:10426   */\n      and\n        /* \"#utility.yul\":10399:10426   */\n      swap2\n      pop\n        /* \"#utility.yul\":10355:10436   */\n    tag_312:\n        /* \"#utility.yul\":10483:10485   */\n      0x20\n        /* \"#utility.yul\":10475:10481   */\n      dup3\n        /* \"#utility.yul\":10472:10486   */\n      lt\n        /* \"#utility.yul\":10452:10470   */\n      dup2\n        /* \"#utility.yul\":10449:10487   */\n      sub\n        /* \"#utility.yul\":10446:10530   */\n      tag_313\n      jumpi\n        /* \"#utility.yul\":10502:10520   */\n      tag_314\n      tag_185\n      jump\t// in\n    tag_314:\n        /* \"#utility.yul\":10446:10530   */\n    tag_313:\n        /* \"#utility.yul\":10267:10536   */\n      pop\n        /* \"#utility.yul\":10216:10536   */\n      swap2\n      swap1\n      pop\n      jump\t// out\n        /* \"#utility.yul\":10542:10683   */\n    tag_186:\n        /* \"#utility.yul\":10591:10595   */\n      0x00\n        /* \"#utility.yul\":10614:10617   */\n      dup2\n        /* \"#utility.yul\":10606:10617   */\n      swap1\n      pop\n        /* \"#utility.yul\":10637:10640   */\n      dup2\n        /* \"#utility.yul\":10634:10635   */\n      0x00\n        /* \"#utility.yul\":10627:10641   */\n      mstore\n        /* \"#utility.yul\":10671:10675   */\n      0x20\n        /* \"#utility.yul\":10668:10669   */\n      0x00\n        /* \"#utility.yul\":10658:10676   */\n      keccak256\n        /* \"#utility.yul\":10650:10676   */\n      swap1\n      pop\n        /* \"#utility.yul\":10542:10683   */\n      swap2\n      swap1\n      pop\n      jump\t// out\n        /* \"#utility.yul\":10689:10782   */\n    tag_187:\n        /* \"#utility.yul\":10726:10732   */\n      0x00\n        /* \"#utility.yul\":10773:10775   */\n      0x20\n        /* \"#utility.yul\":10768:10770   */\n      0x1f\n        /* \"#utility.yul\":10761:10766   */\n      dup4\n        /* \"#utility.yul\":10757:10771   */\n      add\n        /* \"#utility.yul\":10753:10776   */\n      div\n        /* \"#utility.yul\":10743:10776   */\n      swap1\n      pop\n        /* \"#utility.yul\":10689:10782   */\n      swap2\n      swap1\n      pop\n      jump\t// out\n        /* \"#utility.yul\":10788:10895   */\n    tag_188:\n        /* \"#utility.yul\":10832:10840   */\n      0x00\n        /* \"#utility.yul\":10882:10887   */\n      dup3\n        /* \"#utility.yul\":10876:10880   */\n      dup3\n        /* \"#utility.yul\":10872:10888   */\n      shl\n        /* \"#utility.yul\":10851:10888   */\n      swap1\n      pop\n        /* \"#utility.yul\":10788:10895   */\n      swap3\n      swap2\n      pop\n      pop\n      jump\t// out\n        /* \"#utility.yul\":10901:11294   */\n    tag_189:\n        /* \"#utility.yul\":10970:10976   */\n      0x00\n        /* \"#utility.yul\":11020:11021   */\n      0x08\n        /* \"#utility.yul\":11008:11018   */\n      dup4\n        /* \"#utility.yul\":11004:11022   */\n      mul\n        /* \"#utility.yul\":11043:11140   */\n      tag_319\n        /* \"#utility.yul\":11073:11139   */\n      0xffffffffffffffffffffffffffffffffffffffffffffffffffffffffffffffff\n        /* \"#utility.yul\":11062:11071   */\n      dup3\n        /* \"#utility.yul\":11043:11140   */\n      tag_188\n      jump\t// in\n    tag_319:\n        /* \"#utility.yul\":11161:11200   */\n      tag_320\n        /* \"#utility.yul\":11191:11199   */\n      dup7\n        /* \"#utility.yul\":11180:11189   */\n      dup4\n        /* \"#utility.yul\":11161:11200   */\n      tag_188\n      jump\t// in\n    tag_320:\n        /* \"#utility.yul\":11149:11200   */\n      swap6\n      pop\n        /* \"#utility.yul\":11233:11237   */\n      dup1\n        /* \"#utility.yul\":11229:11238   */\n      not\n        /* \"#utility.yul\":11222:11227   */\n      dup5\n        /* \"#utility.yul\":11218:11239   */\n      and\n        /* \"#utility.yul\":11209:11239   */\n      swap4\n      pop\n        /* \"#utility.yul\":11282:11286   */\n      dup1\n        /* \"#utility.yul\":11272:11280   */\n      dup7\n        /* \"#utility.yul\":11268:11287   */\n      and\n        /* \"#utility.yul\":11261:11266   */\n      dup5\n        /* \"#utility.yul\":11258:11288   */\n      or\n        /* \"#utility.yul\":11248:11288   */\n      swap3\n      pop\n        /* \"#utility.yul\":10977:11294   */\n      pop\n      pop\n        /* \"#utility.yul\":10901:11294   */\n      swap4\n      swap3\n      pop\n      pop\n      pop\n      jump\t// out\n        /* \"#utility.yul\":11300:11360   */\n    tag_190:\n        /* \"#utility.yul\":11328:11331   */\n      0x00\n        /* \"#utility.yul\":11349:11354   */\n      dup2\n        /* \"#utility.yul\":11342:11354   */\n      swap1\n      pop\n        /* \"#utility.yul\":11300:11360   */\n      swap2\n      swap1\n      pop\n      jump\t// out\n        /* \"#utility.yul\":11366:11508   */\n    tag_191:\n        /* \"#utility.yul\":11416:11425   */\n      0x00\n        /* \"#utility.yul\":11449:11502   */\n      tag_323\n        /* \"#utility.yul\":11467:11501   */\n      tag_324\n        /* \"#utility.yul\":11476:11500   */\n      tag_325\n        /* \"#utility.yul\":11494:11499   */\n      dup5\n        /* \"#utility.yul\":11476:11500   */\n      tag_158\n      jump\t// in\n    tag_325:\n        /* \"#utility.yul\":11467:11501   */\n      tag_190\n      jump\t// in\n    tag_324:\n        /* \"#utility.yul\":11449:11502   */\n      tag_158\n      jump\t// in\n    tag_323:\n        /* \"#utility.yul\":11436:11502   */\n      swap1\n      pop\n        /* \"#utility.yul\":11366:11508   */\n      swap2\n      swap1\n      pop\n      jump\t// out\n        /* \"#utility.yul\":11514:11589   */\n    tag_192:\n        /* \"#utility.yul\":11557:11560   */\n      0x00\n        /* \"#utility.yul\":11578:11583   */\n      dup2\n        /* \"#utility.yul\":11571:11583   */\n      swap1\n      pop\n        /* \"#utility.yul\":11514:11589   */\n      swap2\n      swap1\n      pop\n      jump\t// out\n        /* \"#utility.yul\":11595:11864   */\n    tag_193:\n        /* \"#utility.yul\":11705:11744   */\n      tag_328\n        /* \"#utility.yul\":11736:11743   */\n      dup4\n        /* \"#utility.yul\":11705:11744   */\n      tag_191\n      jump\t// in\n    tag_328:\n        /* \"#utility.yul\":11766:11857   */\n      tag_329\n        /* \"#utility.yul\":11815:11856   */\n      tag_330\n        /* \"#utility.yul\":11839:11855   */\n      dup3\n        /* \"#utility.yul\":11815:11856   */\n      tag_192\n      jump\t// in\n    tag_330:\n        /* \"#utility.yul\":11807:11813   */\n      dup5\n        /* \"#utility.yul\":11800:11804   */\n      dup5\n        /* \"#utility.yul\":11794:11805   */\n      sload\n        /* \"#utility.yul\":11766:11857   */\n      tag_189\n      jump\t// in\n    tag_329:\n        /* \"#utility.yul\":11760:11764   */\n      dup3\n        /* \"#utility.yul\":11753:11858   */\n      sstore\n        /* \"#utility.yul\":11671:11864   */\n      pop\n        /* \"#utility.yul\":11595:11864   */\n      pop\n      pop\n      pop\n      jump\t// out\n        /* \"#utility.yul\":11870:11943   */\n    tag_194:\n        /* \"#utility.yul\":11915:11918   */\n      0x00\n        /* \"#utility.yul\":11870:11943   */\n      swap1\n      jump\t// out\n        /* \"#utility.yul\":11949:12138   */\n    tag_195:\n        /* \"#utility.yul\":12026:12058   */\n      tag_333\n      tag_194\n      jump\t// in\n    tag_333:\n        /* \"#utility.yul\":12067:12132   */\n      tag_334\n        /* \"#utility.yul\":12125:12131   */\n      dup2\n        /* \"#utility.yul\":12117:12123   */\n      dup5\n        /* \"#utility.yul\":12111:12115   */\n      dup5\n        /* \"#utility.yul\":12067:12132   */\n      tag_193\n      jump\t// in\n    tag_334:\n        /* \"#utility.yul\":12002:12138   */\n      pop\n        /* \"#utility.yul\":11949:12138   */\n      pop\n      pop\n      jump\t// out\n        /* \"#utility.yul\":12144:12330   */\n    tag_196:\n        /* \"#utility.yul\":12204:12324   */\n    tag_336:\n        /* \"#utility.yul\":12221:12224   */\n      dup2\n        /* \"#utility.yul\":12214:12219   */\n      dup2\n        /* \"#utility.yul\":12211:12225   */\n      lt\n        /* \"#utility.yul\":12204:12324   */\n      iszero\n      tag_338\n      jumpi\n        /* \"#utility.yul\":12275:12314   */\n      tag_339\n        /* \"#utility.yul\":12312:12313   */\n      0x00\n        /* \"#utility.yul\":12305:12310   */\n      dup3\n        /* \"#utility.yul\":12275:12314   */\n      tag_195\n      jump\t// in\n    tag_339:\n        /* \"#utility.yul\":12248:12249   */\n      0x01\n        /* \"#utility.yul\":12241:12246   */\n      dup2\n        /* \"#utility.yul\":12237:12250   */\n      add\n        /* \"#utility.yul\":12228:12250   */\n      swap1\n      pop\n        /* \"#utility.yul\":12204:12324   */\n      jump(tag_336)\n    tag_338:\n        /* \"#utility.yul\":12144:12330   */\n      pop\n      pop\n      jump\t// out\n        /* \"#utility.yul\":12336:12879   */\n    tag_197:\n        /* \"#utility.yul\":12437:12439   */\n      0x1f\n        /* \"#utility.yul\":12432:12435   */\n      dup3\n        /* \"#utility.yul\":12429:12440   */\n      gt\n        /* \"#utility.yul\":12426:12872   */\n      iszero\n      tag_341\n      jumpi\n        /* \"#utility.yul\":12471:12509   */\n      tag_342\n        /* \"#utility.yul\":12503:12508   */\n      dup2\n        /* \"#utility.yul\":12471:12509   */\n      tag_186\n      jump\t// in\n    tag_342:\n        /* \"#utility.yul\":12555:12584   */\n      tag_343\n        /* \"#utility.yul\":12573:12583   */\n      dup5\n        /* \"#utility.yul\":12555:12584   */\n      tag_187\n      jump\t// in\n    tag_343:\n        /* \"#utility.yul\":12545:12553   */\n      dup2\n        /* \"#utility.yul\":12541:12585   */\n      add\n        /* \"#utility.yul\":12738:12740   */\n      0x20\n        /* \"#utility.yul\":12726:12736   */\n      dup6\n        /* \"#utility.yul\":12723:12741   */\n      lt\n        /* \"#utility.yul\":12720:12769   */\n      iszero\n      tag_344\n      jumpi\n        /* \"#utility.yul\":12759:12767   */\n      dup2\n        /* \"#utility.yul\":12744:12767   */\n      swap1\n      pop\n        /* \"#utility.yul\":12720:12769   */\n    tag_344:\n        /* \"#utility.yul\":12782:12862   */\n      tag_345\n        /* \"#utility.yul\":12838:12860   */\n      tag_346\n        /* \"#utility.yul\":12856:12859   */\n      dup6\n        /* \"#utility.yul\":12838:12860   */\n      tag_187\n      jump\t// in\n    tag_346:\n        /* \"#utility.yul\":12828:12836   */\n      dup4\n        /* \"#utility.yul\":12824:12861   */\n      add\n        /* \"#utility.yul\":12811:12822   */\n      dup3\n        /* \"#utility.yul\":12782:12862   */\n      tag_196\n      jump\t// in\n    tag_345:\n        /* \"#utility.yul\":12441:12872   */\n      pop\n      pop\n        /* \"#utility.yul\":12426:12872   */\n    tag_341:\n        /* \"#utility.yul\":12336:12879   */\n      pop\n      pop\n      pop\n      jump\t// out\n        /* \"#utility.yul\":12885:13002   */\n    tag_198:\n        /* \"#utility.yul\":12939:12947   */\n      0x00\n        /* \"#utility.yul\":12989:12994   */\n      dup3\n        /* \"#utility.yul\":12983:12987   */\n      dup3\n        /* \"#utility.yul\":12979:12995   */\n      shr\n        /* \"#utility.yul\":12958:12995   */\n      swap1\n      pop\n        /* \"#utility.yul\":12885:13002   */\n      swap3\n      swap2\n      pop\n      pop\n      jump\t// out\n        /* \"#utility.yul\":13008:13177   */\n    tag_199:\n        /* \"#utility.yul\":13052:13058   */\n      0x00\n        /* \"#utility.yul\":13085:13136   */\n      tag_349\n        /* \"#utility.yul\":13133:13134   */\n      0x00\n        /* \"#utility.yul\":13129:13135   */\n      not\n        /* \"#utility.yul\":13121:13126   */\n      dup5\n        /* \"#utility.yul\":13118:13119   */\n      0x08\n        /* \"#utility.yul\":13114:13127   */\n      mul\n        /* \"#utility.yul\":13085:13136   */\n      tag_198\n      jump\t// in\n    tag_349:\n        /* \"#utility.yul\":13081:13137   */\n      not\n        /* \"#utility.yul\":13166:13170   */\n      dup1\n        /* \"#utility.yul\":13160:13164   */\n      dup4\n        /* \"#utility.yul\":13156:13171   */\n      and\n        /* \"#utility.yul\":13146:13171   */\n      swap2\n      pop\n        /* \"#utility.yul\":13059:13177   */\n      pop\n        /* \"#utility.yul\":13008:13177   */\n      swap3\n      swap2\n      pop\n      pop\n      jump\t// out\n        /* \"#utility.yul\":13182:13477   */\n    tag_200:\n        /* \"#utility.yul\":13258:13262   */\n      0x00\n        /* \"#utility.yul\":13404:13433   */\n      tag_351\n        /* \"#utility.yul\":13429:13432   */\n      dup4\n        /* \"#utility.yul\":13423:13427   */\n      dup4\n        /* \"#utility.yul\":13404:13433   */\n      tag_199\n      jump\t// in\n    tag_351:\n        /* \"#utility.yul\":13396:13433   */\n      swap2\n      pop\n        /* \"#utility.yul\":13466:13469   */\n      dup3\n        /* \"#utility.yul\":13463:13464   */\n      0x02\n        /* \"#utility.yul\":13459:13470   */\n      mul\n        /* \"#utility.yul\":13453:13457   */\n      dup3\n        /* \"#utility.yul\":13450:13471   */\n      or\n        /* \"#utility.yul\":13442:13471   */\n      swap1\n      pop\n        /* \"#utility.yul\":13182:13477   */\n      swap3\n      swap2\n      pop\n      pop\n      jump\t// out\n        /* \"#utility.yul\":13482:14877   */\n    tag_132:\n        /* \"#utility.yul\":13599:13636   */\n      tag_353\n        /* \"#utility.yul\":13632:13635   */\n      dup3\n        /* \"#utility.yul\":13599:13636   */\n      tag_169\n      jump\t// in\n    tag_353:\n        /* \"#utility.yul\":13701:13719   */\n      0xffffffffffffffff\n        /* \"#utility.yul\":13693:13699   */\n      dup2\n        /* \"#utility.yul\":13690:13720   */\n      gt\n        /* \"#utility.yul\":13687:13743   */\n      iszero\n      tag_354\n      jumpi\n        /* \"#utility.yul\":13723:13741   */\n      tag_355\n      tag_176\n      jump\t// in\n    tag_355:\n        /* \"#utility.yul\":13687:13743   */\n    tag_354:\n        /* \"#utility.yul\":13767:13805   */\n      tag_356\n        /* \"#utility.yul\":13799:13803   */\n      dup3\n        /* \"#utility.yul\":13793:13804   */\n      sload\n        /* \"#utility.yul\":13767:13805   */\n      tag_100\n      jump\t// in\n    tag_356:\n        /* \"#utility.yul\":13852:13919   */\n      tag_357\n        /* \"#utility.yul\":13912:13918   */\n      dup3\n        /* \"#utility.yul\":13904:13910   */\n      dup3\n        /* \"#utility.yul\":13898:13902   */\n      dup6\n        /* \"#utility.yul\":13852:13919   */\n      tag_197\n      jump\t// in\n    tag_357:\n        /* \"#utility.yul\":13946:13947   */\n      0x00\n        /* \"#utility.yul\":13970:13974   */\n      0x20\n        /* \"#utility.yul\":13957:13974   */\n      swap1\n      pop\n        /* \"#utility.yul\":14002:14004   */\n      0x1f\n        /* \"#utility.yul\":13994:14000   */\n      dup4\n        /* \"#utility.yul\":13991:14005   */\n      gt\n        /* \"#utility.yul\":14019:14020   */\n      0x01\n        /* \"#utility.yul\":14014:14632   */\n      dup2\n      eq\n      tag_359\n      jumpi\n        /* \"#utility.yul\":14676:14677   */\n      0x00\n        /* \"#utility.yul\":14693:14699   */\n      dup5\n        /* \"#utility.yul\":14690:14767   */\n      iszero\n      tag_360\n      jumpi\n        /* \"#utility.yul\":14742:14751   */\n      dup3\n        /* \"#utility.yul\":14737:14740   */\n      dup8\n        /* \"#utility.yul\":14733:14752   */\n      add\n        /* \"#utility.yul\":14727:14753   */\n      mload\n        /* \"#utility.yul\":14718:14753   */\n      swap1\n      pop\n        /* \"#utility.yul\":14690:14767   */\n    tag_360:\n        /* \"#utility.yul\":14793:14860   */\n      tag_361\n        /* \"#utility.yul\":14853:14859   */\n      dup6\n        /* \"#utility.yul\":14846:14851   */\n      dup3\n        /* \"#utility.yul\":14793:14860   */\n      tag_200\n      jump\t// in\n    tag_361:\n        /* \"#utility.yul\":14787:14791   */\n      dup7\n        /* \"#utility.yul\":14780:14861   */\n      sstore\n        /* \"#utility.yul\":14649:14871   */\n      pop\n        /* \"#utility.yul\":13984:14871   */\n      jump(tag_358)\n        /* \"#utility.yul\":14014:14632   */\n    tag_359:\n        /* \"#utility.yul\":14066:14070   */\n      0x1f\n        /* \"#utility.yul\":14062:14071   */\n      not\n        /* \"#utility.yul\":14054:14060   */\n      dup5\n        /* \"#utility.yul\":14050:14072   */\n      and\n        /* \"#utility.yul\":14100:14137   */\n      tag_362\n        /* \"#utility.yul\":14132:14136   */\n      dup7\n        /* \"#utility.yul\":14100:14137   */\n      tag_186\n      jump\t// in\n    tag_362:\n        /* \"#utility.yul\":14159:14160   */\n      0x00\n        /* \"#utility.yul\":14173:14381   */\n    tag_363:\n        /* \"#utility.yul\":14187:14194   */\n      dup3\n        /* \"#utility.yul\":14184:14185   */\n      dup2\n        /* \"#utility.yul\":14181:14195   */\n      lt\n        /* \"#utility.yul\":14173:14381   */\n      iszero\n      tag_365\n      jumpi\n        /* \"#utility.yul\":14266:14275   */\n      dup5\n        /* \"#utility.yul\":14261:14264   */\n      dup10\n        /* \"#utility.yul\":14257:14276   */\n      add\n        /* \"#utility.yul\":14251:14277   */\n      mload\n        /* \"#utility.yul\":14243:14249   */\n      dup3\n        /* \"#utility.yul\":14236:14278   */\n      sstore\n        /* \"#utility.yul\":14317:14318   */\n      0x01\n        /* \"#utility.yul\":14309:14315   */\n      dup3\n        /* \"#utility.yul\":14305:14319   */\n      add\n        /* \"#utility.yul\":14295:14319   */\n      swap2\n      pop\n        /* \"#utility.yul\":14364:14366   */\n      0x20\n        /* \"#utility.yul\":14353:14362   */\n      dup6\n        /* \"#utility.yul\":14349:14367   */\n      add\n        /* \"#utility.yul\":14336:14367   */\n      swap5\n      pop\n        /* \"#utility.yul\":14210:14214   */\n      0x20\n        /* \"#utility.yul\":14207:14208   */\n      dup2\n        /* \"#utility.yul\":14203:14215   */\n      add\n        /* \"#utility.yul\":14198:14215   */\n      swap1\n      pop\n        /* \"#utility.yul\":14173:14381   */\n      jump(tag_363)\n    tag_365:\n        /* \"#utility.yul\":14409:14415   */\n      dup7\n        /* \"#utility.yul\":14400:14407   */\n      dup4\n        /* \"#utility.yul\":14397:14416   */\n      lt\n        /* \"#utility.yul\":14394:14573   */\n      iszero\n      tag_366\n      jumpi\n        /* \"#utility.yul\":14467:14476   */\n      dup5\n        /* \"#utility.yul\":14462:14465   */\n      dup10\n        /* \"#utility.yul\":14458:14477   */\n      add\n        /* \"#utility.yul\":14452:14478   */\n      mload\n        /* \"#utility.yul\":14510:14558   */\n      tag_367\n        /* \"#utility.yul\":14552:14556   */\n      0x1f\n        /* \"#utility.yul\":14544:14550   */\n      dup10\n        /* \"#utility.yul\":14540:14557   */\n      and\n        /* \"#utility.yul\":14529:14538   */\n      dup3\n        /* \"#utility.yul\":14510:14558   */\n      tag_199\n      jump\t// in\n    tag_367:\n        /* \"#utility.yul\":14502:14508   */\n      dup4\n        /* \"#utility.yul\":14495:14559   */\n      sstore\n        /* \"#utility.yul\":14417:14573   */\n      pop\n        /* \"#utility.yul\":14394:14573   */\n    tag_366:\n        /* \"#utility.yul\":14619:14620   */\n      0x01\n        /* \"#utility.yul\":14615:14616   */\n      0x02\n        /* \"#utility.yul\":14607:14613   */\n      dup9\n        /* \"#utility.yul\":14603:14617   */\n      mul\n        /* \"#utility.yul\":14599:14621   */\n      add\n        /* \"#utility.yul\":14593:14597   */\n      dup9\n        /* \"#utility.yul\":14586:14622   */\n      sstore\n        /* \"#utility.yul\":14021:14632   */\n      pop\n      pop\n      pop\n        /* \"#utility.yul\":13984:14871   */\n    tag_358:\n      pop\n        /* \"#utility.yul\":13574:14877   */\n      pop\n      pop\n      pop\n        /* \"#utility.yul\":13482:14877   */\n      pop\n      pop\n      jump\t// out\n        /* \"#utility.yul\":14883:15116   */\n    tag_147:\n        /* \"#utility.yul\":14922:14925   */\n      0x00\n        /* \"#utility.yul\":14945:14969   */\n      tag_369\n        /* \"#utility.yul\":14963:14968   */\n      dup3\n        /* \"#utility.yul\":14945:14969   */\n      tag_158\n      jump\t// in\n    tag_369:\n        /* \"#utility.yul\":14936:14969   */\n      swap2\n      pop\n        /* \"#utility.yul\":14991:15057   */\n      0xffffffffffffffffffffffffffffffffffffffffffffffffffffffffffffffff\n        /* \"#utility.yul\":14984:14989   */\n      dup3\n        /* \"#utility.yul\":14981:15058   */\n      sub\n        /* \"#utility.yul\":14978:15081   */\n      tag_370\n      jumpi\n        /* \"#utility.yul\":15061:15079   */\n      tag_371\n      tag_184\n      jump\t// in\n    tag_371:\n        /* \"#utility.yul\":14978:15081   */\n    tag_370:\n        /* \"#utility.yul\":15108:15109   */\n      0x01\n        /* \"#utility.yul\":15101:15106   */\n      dup3\n        /* \"#utility.yul\":15097:15110   */\n      add\n        /* \"#utility.yul\":15090:15110   */\n      swap1\n      pop\n        /* \"#utility.yul\":14883:15116   */\n      swap2\n      swap1\n      pop\n      jump\t// out\n\n    auxdata: 0xa264697066735822122016ca257f543a0070746d76c41599508148baf6dde4b03a13bf2a6f5222cb156964736f6c63430008180033\n}\n","bytecode":{"linkReferences":{},"object":"608060405234801562000010575f80fd5b5060405162001bda38038062001bda8339818101604052810190620000369190620002dc565b8360015f6101000a81548173ffffffffffffffffffffffffffffffffffffffff021916908373ffffffffffffffffffffffffffffffffffffffff1602179055508460028190555082600390816200008e9190620005eb565b508160049081620000a09190620005eb565b508060059081620000b29190620005eb565b505050505050620006cf565b5f604051905090565b5f80fd5b5f80fd5b5f819050919050565b620000e381620000cf565b8114620000ee575f80fd5b50565b5f815190506200010181620000d8565b92915050565b5f73ffffffffffffffffffffffffffffffffffffffff82169050919050565b5f620001328262000107565b9050919050565b620001448162000126565b81146200014f575f80fd5b50565b5f81519050620001628162000139565b92915050565b5f80fd5b5f80fd5b5f601f19601f8301169050919050565b7f4e487b71000000000000000000000000000000000000000000000000000000005f52604160045260245ffd5b620001b88262000170565b810181811067ffffffffffffffff82111715620001da57620001d962000180565b5b80604052505050565b5f620001ee620000be565b9050620001fc8282620001ad565b919050565b5f67ffffffffffffffff8211156200021e576200021d62000180565b5b620002298262000170565b9050602081019050919050565b5f5b838110156200025557808201518184015260208101905062000238565b5f8484015250505050565b5f62000276620002708462000201565b620001e3565b9050828152602081018484840111156200029557620002946200016c565b5b620002a284828562000236565b509392505050565b5f82601f830112620002c157620002c062000168565b5b8151620002d384826020860162000260565b91505092915050565b5f805f805f60a08688031215620002f857620002f7620000c7565b5b5f6200030788828901620000f1565b95505060206200031a8882890162000152565b945050604086015167ffffffffffffffff8111156200033e576200033d620000cb565b5b6200034c88828901620002aa565b935050606086015167ffffffffffffffff81111562000370576200036f620000cb565b5b6200037e88828901620002aa565b925050608086015167ffffffffffffffff811115620003a257620003a1620000cb565b5b620003b088828901620002aa565b9150509295509295909350565b5f81519050919050565b7f4e487b71000000000000000000000000000000000000000000000000000000005f52602260045260245ffd5b5f60028204905060018216806200040c57607f821691505b602082108103620004225762000421620003c7565b5b50919050565b5f819050815f5260205f209050919050565b5f6020601f8301049050919050565b5f82821b905092915050565b5f60088302620004867fffffffffffffffffffffffffffffffffffffffffffffffffffffffffffffffff8262000449565b62000492868362000449565b95508019841693508086168417925050509392505050565b5f819050919050565b5f620004d3620004cd620004c784620000cf565b620004aa565b620000cf565b9050919050565b5f819050919050565b620004ee83620004b3565b62000506620004fd82620004da565b84845462000455565b825550505050565b5f90565b6200051c6200050e565b62000529818484620004e3565b505050565b5b818110156200055057620005445f8262000512565b6001810190506200052f565b5050565b601f8211156200059f57620005698162000428565b62000574846200043a565b8101602085101562000584578190505b6200059c62000593856200043a565b8301826200052e565b50505b505050565b5f82821c905092915050565b5f620005c15f1984600802620005a4565b1980831691505092915050565b5f620005db8383620005b0565b9150826002028217905092915050565b620005f682620003bd565b67ffffffffffffffff81111562000612576200061162000180565b5b6200061e8254620003f4565b6200062b82828562000554565b5f60209050601f83116001811462000661575f84156200064c578287015190505b620006588582620005ce565b865550620006c7565b601f198416620006718662000428565b5f5b828110156200069a5784890151825560018201915060208501945060208101905062000673565b86831015620006ba5784890151620006b6601f891682620005b0565b8355505b6001600288020188555050505b505050505050565b6114fd80620006dd5f395ff3fe6080604052600436106100dc575f3560e01c806382fde0931161007e57806397654a8c1161005857806397654a8c146102af578063aba83150146102d9578063d7bb99ba14610303578063d7d1bbdb1461030d576100dc565b806382fde093146102335780638a9cfd551461025d578063937e09b114610285576100dc565b80634051ddac116100ba5780634051ddac1461016e578063481c6a751461019f5780637e7cd1b3146101c957806381d12c58146101f3576100dc565b806303441006146100e05780630a144391146101085780633410452a14610144575b5f80fd5b3480156100eb575f80fd5b5061010660048036038101906101019190610ca2565b610335565b005b348015610113575f80fd5b5061012e60048036038101906101299190610d27565b610473565b60405161013b9190610d6c565b60405180910390f35b34801561014f575f80fd5b50610158610490565b6040516101659190610d94565b60405180910390f35b348015610179575f80fd5b5061018261049b565b604051610196989796959493929190610e46565b60405180910390f35b3480156101aa575f80fd5b506101b3610691565b6040516101c09190610ed7565b60405180910390f35b3480156101d4575f80fd5b506101dd6106b6565b6040516101ea9190610ef0565b60405180910390f35b3480156101fe575f80fd5b5061021960048036038101906102149190610ca2565b610742565b60405161022a959493929190610f10565b60405180910390f35b34801561023e575f80fd5b50610247610834565b6040516102549190610d94565b60405180910390f35b348015610268575f80fd5b50610283600480360381019061027e9190611094565b61083a565b005b348015610290575f80fd5b50610299610939565b6040516102a69190610d94565b60405180910390f35b3480156102ba575f80fd5b506102c361093f565b6040516102d09190610ef0565b60405180910390f35b3480156102e4575f80fd5b506102ed6109cb565b6040516102fa9190610ef0565b60405180910390f35b61030b610a57565b005b348015610318575f80fd5b50610333600480360381019061032e9190610ca2565b610b21565b005b60015f9054906101000a900473ffffffffffffffffffffffffffffffffffffffff1673ffffffffffffffffffffffffffffffffffffffff163373ffffffffffffffffffffffffffffffffffffffff161461038d575f80fd5b5f8082815481106103a1576103a0611100565b5b905f5260205f20906005020190508060020160149054906101000a900460ff16156103ca575f80fd5b60026007546103d99190611187565b8160030154116103e7575f80fd5b806002015f9054906101000a900473ffffffffffffffffffffffffffffffffffffffff1673ffffffffffffffffffffffffffffffffffffffff166108fc826001015490811502906040515f60405180830381858888f19350505050158015610451573d5f803e3d5ffd5b5060018160020160146101000a81548160ff0219169083151502179055505050565b6006602052805f5260405f205f915054906101000a900460ff1681565b5f8080549050905090565b5f805f805f6060806060600254475f8054905060075460015f9054906101000a900473ffffffffffffffffffffffffffffffffffffffff166003600460058280546104e5906111e4565b80601f0160208091040260200160405190810160405280929190818152602001828054610511906111e4565b801561055c5780601f106105335761010080835404028352916020019161055c565b820191905f5260205f20905b81548152906001019060200180831161053f57829003601f168201915b5050505050925081805461056f906111e4565b80601f016020809104026020016040519081016040528092919081815260200182805461059b906111e4565b80156105e65780601f106105bd576101008083540402835291602001916105e6565b820191905f5260205f20905b8154815290600101906020018083116105c957829003601f168201915b505050505091508080546105f9906111e4565b80601f0160208091040260200160405190810160405280929190818152602001828054610625906111e4565b80156106705780601f1061064757610100808354040283529160200191610670565b820191905f5260205f20905b81548152906001019060200180831161065357829003601f168201915b50505050509050975097509750975097509750975097509091929394959697565b60015f9054906101000a900473ffffffffffffffffffffffffffffffffffffffff1681565b600380546106c3906111e4565b80601f01602080910402602001604051908101604052809291908181526020018280546106ef906111e4565b801561073a5780601f106107115761010080835404028352916020019161073a565b820191905f5260205f20905b81548152906001019060200180831161071d57829003601f168201915b505050505081565b5f8181548110610750575f80fd5b905f5260205f2090600502015f91509050805f01805461076f906111e4565b80601f016020809104026020016040519081016040528092919081815260200182805461079b906111e4565b80156107e65780601f106107bd576101008083540402835291602001916107e6565b820191905f5260205f20905b8154815290600101906020018083116107c957829003601f168201915b505050505090806001015490806002015f9054906101000a900473ffffffffffffffffffffffffffffffffffffffff16908060020160149054906101000a900460ff16908060030154905085565b60075481565b60015f9054906101000a900473ffffffffffffffffffffffffffffffffffffffff1673ffffffffffffffffffffffffffffffffffffffff163373ffffffffffffffffffffffffffffffffffffffff1614610892575f80fd5b5f8060018160018154018082558091505003905f5260205f209060050201905083815f0190816108c291906113b1565b5082816001018190555081816002015f6101000a81548173ffffffffffffffffffffffffffffffffffffffff021916908373ffffffffffffffffffffffffffffffffffffffff1602179055505f8160020160146101000a81548160ff0219169083151502179055505f816003018190555050505050565b60025481565b6004805461094c906111e4565b80601f0160208091040260200160405190810160405280929190818152602001828054610978906111e4565b80156109c35780601f1061099a576101008083540402835291602001916109c3565b820191905f5260205f20905b8154815290600101906020018083116109a657829003601f168201915b505050505081565b600580546109d8906111e4565b80601f0160208091040260200160405190810160405280929190818152602001828054610a04906111e4565b8015610a4f5780601f10610a2657610100808354040283529160200191610a4f565b820191905f5260205f20905b815481529060010190602001808311610a3257829003601f168201915b505050505081565b6002543411610a64575f80fd5b60065f3373ffffffffffffffffffffffffffffffffffffffff1673ffffffffffffffffffffffffffffffffffffffff1681526020019081526020015f205f9054906101000a900460ff16610b1f5760075f815480929190610ac490611480565b9190505550600160065f3373ffffffffffffffffffffffffffffffffffffffff1673ffffffffffffffffffffffffffffffffffffffff1681526020019081526020015f205f6101000a81548160ff0219169083151502179055505b565b5f808281548110610b3557610b34611100565b5b905f5260205f209060050201905060065f3373ffffffffffffffffffffffffffffffffffffffff1673ffffffffffffffffffffffffffffffffffffffff1681526020019081526020015f205f9054906101000a900460ff16610b95575f80fd5b806004015f3373ffffffffffffffffffffffffffffffffffffffff1673ffffffffffffffffffffffffffffffffffffffff1681526020019081526020015f205f9054906101000a900460ff1615610bea575f80fd5b6001816004015f3373ffffffffffffffffffffffffffffffffffffffff1673ffffffffffffffffffffffffffffffffffffffff1681526020019081526020015f205f6101000a81548160ff021916908315150217905550806003015f815480929190610c5590611480565b91905055505050565b5f604051905090565b5f80fd5b5f80fd5b5f819050919050565b610c8181610c6f565b8114610c8b575f80fd5b50565b5f81359050610c9c81610c78565b92915050565b5f60208284031215610cb757610cb6610c67565b5b5f610cc484828501610c8e565b91505092915050565b5f73ffffffffffffffffffffffffffffffffffffffff82169050919050565b5f610cf682610ccd565b9050919050565b610d0681610cec565b8114610d10575f80fd5b50565b5f81359050610d2181610cfd565b92915050565b5f60208284031215610d3c57610d3b610c67565b5b5f610d4984828501610d13565b91505092915050565b5f8115159050919050565b610d6681610d52565b82525050565b5f602082019050610d7f5f830184610d5d565b92915050565b610d8e81610c6f565b82525050565b5f602082019050610da75f830184610d85565b92915050565b610db681610cec565b82525050565b5f81519050919050565b5f82825260208201905092915050565b5f5b83811015610df3578082015181840152602081019050610dd8565b5f8484015250505050565b5f601f19601f8301169050919050565b5f610e1882610dbc565b610e228185610dc6565b9350610e32818560208601610dd6565b610e3b81610dfe565b840191505092915050565b5f61010082019050610e5a5f83018b610d85565b610e67602083018a610d85565b610e746040830189610d85565b610e816060830188610d85565b610e8e6080830187610dad565b81810360a0830152610ea08186610e0e565b905081810360c0830152610eb48185610e0e565b905081810360e0830152610ec88184610e0e565b90509998505050505050505050565b5f602082019050610eea5f830184610dad565b92915050565b5f6020820190508181035f830152610f088184610e0e565b905092915050565b5f60a0820190508181035f830152610f288188610e0e565b9050610f376020830187610d85565b610f446040830186610dad565b610f516060830185610d5d565b610f5e6080830184610d85565b9695505050505050565b5f80fd5b5f80fd5b7f4e487b71000000000000000000000000000000000000000000000000000000005f52604160045260245ffd5b610fa682610dfe565b810181811067ffffffffffffffff82111715610fc557610fc4610f70565b5b80604052505050565b5f610fd7610c5e565b9050610fe38282610f9d565b919050565b5f67ffffffffffffffff82111561100257611001610f70565b5b61100b82610dfe565b9050602081019050919050565b828183375f83830152505050565b5f61103861103384610fe8565b610fce565b90508281526020810184848401111561105457611053610f6c565b5b61105f848285611018565b509392505050565b5f82601f83011261107b5761107a610f68565b5b813561108b848260208601611026565b91505092915050565b5f805f606084860312156110ab576110aa610c67565b5b5f84013567ffffffffffffffff8111156110c8576110c7610c6b565b5b6110d486828701611067565b93505060206110e586828701610c8e565b92505060406110f686828701610d13565b9150509250925092565b7f4e487b71000000000000000000000000000000000000000000000000000000005f52603260045260245ffd5b7f4e487b71000000000000000000000000000000000000000000000000000000005f52601260045260245ffd5b7f4e487b71000000000000000000000000000000000000000000000000000000005f52601160045260245ffd5b5f61119182610c6f565b915061119c83610c6f565b9250826111ac576111ab61112d565b5b828204905092915050565b7f4e487b71000000000000000000000000000000000000000000000000000000005f52602260045260245ffd5b5f60028204905060018216806111fb57607f821691505b60208210810361120e5761120d6111b7565b5b50919050565b5f819050815f5260205f209050919050565b5f6020601f8301049050919050565b5f82821b905092915050565b5f600883026112707fffffffffffffffffffffffffffffffffffffffffffffffffffffffffffffffff82611235565b61127a8683611235565b95508019841693508086168417925050509392505050565b5f819050919050565b5f6112b56112b06112ab84610c6f565b611292565b610c6f565b9050919050565b5f819050919050565b6112ce8361129b565b6112e26112da826112bc565b848454611241565b825550505050565b5f90565b6112f66112ea565b6113018184846112c5565b505050565b5b81811015611324576113195f826112ee565b600181019050611307565b5050565b601f8211156113695761133a81611214565b61134384611226565b81016020851015611352578190505b61136661135e85611226565b830182611306565b50505b505050565b5f82821c905092915050565b5f6113895f198460080261136e565b1980831691505092915050565b5f6113a1838361137a565b9150826002028217905092915050565b6113ba82610dbc565b67ffffffffffffffff8111156113d3576113d2610f70565b5b6113dd82546111e4565b6113e8828285611328565b5f60209050601f831160018114611419575f8415611407578287015190505b6114118582611396565b865550611478565b601f19841661142786611214565b5f5b8281101561144e57848901518255600182019150602085019450602081019050611429565b8683101561146b5784890151611467601f89168261137a565b8355505b6001600288020188555050505b505050505050565b5f61148a82610c6f565b91507fffffffffffffffffffffffffffffffffffffffffffffffffffffffffffffffff82036114bc576114bb61115a565b5b60018201905091905056fea264697066735822122016ca257f543a0070746d76c41599508148baf6dde4b03a13bf2a6f5222cb156964736f6c63430008180033","opcodes":"PUSH1 0x80 PUSH1 0x40 MSTORE CALLVALUE DUP1 ISZERO PUSH3 0x10 JUMPI PUSH0 DUP1 REVERT JUMPDEST POP PUSH1 0x40 MLOAD PUSH3 0x1BDA CODESIZE SUB DUP1 PUSH3 0x1BDA DUP4 CODECOPY DUP2 DUP2 ADD PUSH1 0x40 MSTORE DUP2 ADD SWAP1 PUSH3 0x36 SWAP2 SWAP1 PUSH3 0x2DC JUMP JUMPDEST DUP4 PUSH1 0x1 PUSH0 PUSH2 0x100 EXP DUP2 SLOAD DUP2 PUSH20 0xFFFFFFFFFFFFFFFFFFFFFFFFFFFFFFFFFFFFFFFF MUL NOT AND SWAP1 DUP4 PUSH20 0xFFFFFFFFFFFFFFFFFFFFFFFFFFFFFFFFFFFFFFFF AND MUL OR SWAP1 SSTORE POP DUP5 PUSH1 0x2 DUP2 SWAP1 SSTORE POP DUP3 PUSH1 0x3 SWAP1 DUP2 PUSH3 0x8E SWAP2 SWAP1 PUSH3 0x5EB JUMP JUMPDEST POP DUP2 PUSH1 0x4 SWAP1 DUP2 PUSH3 0xA0 SWAP2 SWAP1 PUSH3 0x5EB JUMP JUMPDEST POP DUP1 PUSH1 0x5 SWAP1 DUP2 PUSH3 0xB2 SWAP2 SWAP1 PUSH3 0x5EB JUMP JUMPDEST POP POP POP POP POP POP PUSH3 0x6CF JUMP JUMPDEST PUSH0 PUSH1 0x40 MLOAD SWAP1 POP SWAP1 JUMP JUMPDEST PUSH0 DUP1 REVERT JUMPDEST PUSH0 DUP1 REVERT JUMPDEST PUSH0 DUP2 SWAP1 POP SWAP2 SWAP1 POP JUMP JUMPDEST PUSH3 0xE3 DUP2 PUSH3 0xCF JUMP JUMPDEST DUP2 EQ PUSH3 0xEE JUMPI PUSH0 DUP1 REVERT JUMPDEST POP JUMP JUMPDEST PUSH0 DUP2 MLOAD SWAP1 POP PUSH3 0x101 DUP2 PUSH3 0xD8 JUMP JUMPDEST SWAP3 SWAP2 POP POP JUMP JUMPDEST PUSH0 PUSH20 0xFFFFFFFFFFFFFFFFFFFFFFFFFFFFFFFFFFFFFFFF DUP3 AND SWAP1 POP SWAP2 SWAP1 POP JUMP JUMPDEST PUSH0 PUSH3 0x132 DUP3 PUSH3 0x107 JUMP JUMPDEST SWAP1 POP SWAP2 SWAP1 POP JUMP JUMPDEST PUSH3 0x144 DUP2 PUSH3 0x126 JUMP JUMPDEST DUP2 EQ PUSH3 0x14F JUMPI PUSH0 DUP1 REVERT JUMPDEST POP JUMP JUMPDEST PUSH0 DUP2 MLOAD SWAP1 POP PUSH3 0x162 DUP2 PUSH3 0x139 JUMP JUMPDEST SWAP3 SWAP2 POP POP JUMP JUMPDEST PUSH0 DUP1 REVERT JUMPDEST PUSH0 DUP1 REVERT JUMPDEST PUSH0 PUSH1 0x1F NOT PUSH1 0x1F DUP4 ADD AND SWAP1 POP SWAP2 SWAP1 POP JUMP JUMPDEST PUSH32 0x4E487B7100000000000000000000000000000000000000000000000000000000 PUSH0 MSTORE PUSH1 0x41 PUSH1 0x4 MSTORE PUSH1 0x24 PUSH0 REVERT JUMPDEST PUSH3 0x1B8 DUP3 PUSH3 0x170 JUMP JUMPDEST DUP2 ADD DUP2 DUP2 LT PUSH8 0xFFFFFFFFFFFFFFFF DUP3 GT OR ISZERO PUSH3 0x1DA JUMPI PUSH3 0x1D9 PUSH3 0x180 JUMP JUMPDEST JUMPDEST DUP1 PUSH1 0x40 MSTORE POP POP POP JUMP JUMPDEST PUSH0 PUSH3 0x1EE PUSH3 0xBE JUMP JUMPDEST SWAP1 POP PUSH3 0x1FC DUP3 DUP3 PUSH3 0x1AD JUMP JUMPDEST SWAP2 SWAP1 POP JUMP JUMPDEST PUSH0 PUSH8 0xFFFFFFFFFFFFFFFF DUP3 GT ISZERO PUSH3 0x21E JUMPI PUSH3 0x21D PUSH3 0x180 JUMP JUMPDEST JUMPDEST PUSH3 0x229 DUP3 PUSH3 0x170 JUMP JUMPDEST SWAP1 POP PUSH1 0x20 DUP2 ADD SWAP1 POP SWAP2 SWAP1 POP JUMP JUMPDEST PUSH0 JUMPDEST DUP4 DUP2 LT ISZERO PUSH3 0x255 JUMPI DUP1 DUP3 ADD MLOAD DUP2 DUP5 ADD MSTORE PUSH1 0x20 DUP2 ADD SWAP1 POP PUSH3 0x238 JUMP JUMPDEST PUSH0 DUP5 DUP5 ADD MSTORE POP POP POP POP JUMP JUMPDEST PUSH0 PUSH3 0x276 PUSH3 0x270 DUP5 PUSH3 0x201 JUMP JUMPDEST PUSH3 0x1E3 JUMP JUMPDEST SWAP1 POP DUP3 DUP2 MSTORE PUSH1 0x20 DUP2 ADD DUP5 DUP5 DUP5 ADD GT ISZERO PUSH3 0x295 JUMPI PUSH3 0x294 PUSH3 0x16C JUMP JUMPDEST JUMPDEST PUSH3 0x2A2 DUP5 DUP3 DUP6 PUSH3 0x236 JUMP JUMPDEST POP SWAP4 SWAP3 POP POP POP JUMP JUMPDEST PUSH0 DUP3 PUSH1 0x1F DUP4 ADD SLT PUSH3 0x2C1 JUMPI PUSH3 0x2C0 PUSH3 0x168 JUMP JUMPDEST JUMPDEST DUP2 MLOAD PUSH3 0x2D3 DUP5 DUP3 PUSH1 0x20 DUP7 ADD PUSH3 0x260 JUMP JUMPDEST SWAP2 POP POP SWAP3 SWAP2 POP POP JUMP JUMPDEST PUSH0 DUP1 PUSH0 DUP1 PUSH0 PUSH1 0xA0 DUP7 DUP9 SUB SLT ISZERO PUSH3 0x2F8 JUMPI PUSH3 0x2F7 PUSH3 0xC7 JUMP JUMPDEST JUMPDEST PUSH0 PUSH3 0x307 DUP9 DUP3 DUP10 ADD PUSH3 0xF1 JUMP JUMPDEST SWAP6 POP POP PUSH1 0x20 PUSH3 0x31A DUP9 DUP3 DUP10 ADD PUSH3 0x152 JUMP JUMPDEST SWAP5 POP POP PUSH1 0x40 DUP7 ADD MLOAD PUSH8 0xFFFFFFFFFFFFFFFF DUP2 GT ISZERO PUSH3 0x33E JUMPI PUSH3 0x33D PUSH3 0xCB JUMP JUMPDEST JUMPDEST PUSH3 0x34C DUP9 DUP3 DUP10 ADD PUSH3 0x2AA JUMP JUMPDEST SWAP4 POP POP PUSH1 0x60 DUP7 ADD MLOAD PUSH8 0xFFFFFFFFFFFFFFFF DUP2 GT ISZERO PUSH3 0x370 JUMPI PUSH3 0x36F PUSH3 0xCB JUMP JUMPDEST JUMPDEST PUSH3 0x37E DUP9 DUP3 DUP10 ADD PUSH3 0x2AA JUMP JUMPDEST SWAP3 POP POP PUSH1 0x80 DUP7 ADD MLOAD PUSH8 0xFFFFFFFFFFFFFFFF DUP2 GT ISZERO PUSH3 0x3A2 JUMPI PUSH3 0x3A1 PUSH3 0xCB JUMP JUMPDEST JUMPDEST PUSH3 0x3B0 DUP9 DUP3 DUP10 ADD PUSH3 0x2AA JUMP JUMPDEST SWAP2 POP POP SWAP3 SWAP6 POP SWAP3 SWAP6 SWAP1 SWAP4 POP JUMP JUMPDEST PUSH0 DUP2 MLOAD SWAP1 POP SWAP2 SWAP1 POP JUMP JUMPDEST PUSH32 0x4E487B7100000000000000000000000000000000000000000000000000000000 PUSH0 MSTORE PUSH1 0x22 PUSH1 0x4 MSTORE PUSH1 0x24 PUSH0 REVERT JUMPDEST PUSH0 PUSH1 0x2 DUP3 DIV SWAP1 POP PUSH1 0x1 DUP3 AND DUP1 PUSH3 0x40C JUMPI PUSH1 0x7F DUP3 AND SWAP2 POP JUMPDEST PUSH1 0x20 DUP3 LT DUP2 SUB PUSH3 0x422 JUMPI PUSH3 0x421 PUSH3 0x3C7 JUMP JUMPDEST JUMPDEST POP SWAP2 SWAP1 POP JUMP JUMPDEST PUSH0 DUP2 SWAP1 POP DUP2 PUSH0 MSTORE PUSH1 0x20 PUSH0 KECCAK256 SWAP1 POP SWAP2 SWAP1 POP JUMP JUMPDEST PUSH0 PUSH1 0x20 PUSH1 0x1F DUP4 ADD DIV SWAP1 POP SWAP2 SWAP1 POP JUMP JUMPDEST PUSH0 DUP3 DUP3 SHL SWAP1 POP SWAP3 SWAP2 POP POP JUMP JUMPDEST PUSH0 PUSH1 0x8 DUP4 MUL PUSH3 0x486 PUSH32 0xFFFFFFFFFFFFFFFFFFFFFFFFFFFFFFFFFFFFFFFFFFFFFFFFFFFFFFFFFFFFFFFF DUP3 PUSH3 0x449 JUMP JUMPDEST PUSH3 0x492 DUP7 DUP4 PUSH3 0x449 JUMP JUMPDEST SWAP6 POP DUP1 NOT DUP5 AND SWAP4 POP DUP1 DUP7 AND DUP5 OR SWAP3 POP POP POP SWAP4 SWAP3 POP POP POP JUMP JUMPDEST PUSH0 DUP2 SWAP1 POP SWAP2 SWAP1 POP JUMP JUMPDEST PUSH0 PUSH3 0x4D3 PUSH3 0x4CD PUSH3 0x4C7 DUP5 PUSH3 0xCF JUMP JUMPDEST PUSH3 0x4AA JUMP JUMPDEST PUSH3 0xCF JUMP JUMPDEST SWAP1 POP SWAP2 SWAP1 POP JUMP JUMPDEST PUSH0 DUP2 SWAP1 POP SWAP2 SWAP1 POP JUMP JUMPDEST PUSH3 0x4EE DUP4 PUSH3 0x4B3 JUMP JUMPDEST PUSH3 0x506 PUSH3 0x4FD DUP3 PUSH3 0x4DA JUMP JUMPDEST DUP5 DUP5 SLOAD PUSH3 0x455 JUMP JUMPDEST DUP3 SSTORE POP POP POP POP JUMP JUMPDEST PUSH0 SWAP1 JUMP JUMPDEST PUSH3 0x51C PUSH3 0x50E JUMP JUMPDEST PUSH3 0x529 DUP2 DUP5 DUP5 PUSH3 0x4E3 JUMP JUMPDEST POP POP POP JUMP JUMPDEST JUMPDEST DUP2 DUP2 LT ISZERO PUSH3 0x550 JUMPI PUSH3 0x544 PUSH0 DUP3 PUSH3 0x512 JUMP JUMPDEST PUSH1 0x1 DUP2 ADD SWAP1 POP PUSH3 0x52F JUMP JUMPDEST POP POP JUMP JUMPDEST PUSH1 0x1F DUP3 GT ISZERO PUSH3 0x59F JUMPI PUSH3 0x569 DUP2 PUSH3 0x428 JUMP JUMPDEST PUSH3 0x574 DUP5 PUSH3 0x43A JUMP JUMPDEST DUP2 ADD PUSH1 0x20 DUP6 LT ISZERO PUSH3 0x584 JUMPI DUP2 SWAP1 POP JUMPDEST PUSH3 0x59C PUSH3 0x593 DUP6 PUSH3 0x43A JUMP JUMPDEST DUP4 ADD DUP3 PUSH3 0x52E JUMP JUMPDEST POP POP JUMPDEST POP POP POP JUMP JUMPDEST PUSH0 DUP3 DUP3 SHR SWAP1 POP SWAP3 SWAP2 POP POP JUMP JUMPDEST PUSH0 PUSH3 0x5C1 PUSH0 NOT DUP5 PUSH1 0x8 MUL PUSH3 0x5A4 JUMP JUMPDEST NOT DUP1 DUP4 AND SWAP2 POP POP SWAP3 SWAP2 POP POP JUMP JUMPDEST PUSH0 PUSH3 0x5DB DUP4 DUP4 PUSH3 0x5B0 JUMP JUMPDEST SWAP2 POP DUP3 PUSH1 0x2 MUL DUP3 OR SWAP1 POP SWAP3 SWAP2 POP POP JUMP JUMPDEST PUSH3 0x5F6 DUP3 PUSH3 0x3BD JUMP JUMPDEST PUSH8 0xFFFFFFFFFFFFFFFF DUP2 GT ISZERO PUSH3 0x612 JUMPI PUSH3 0x611 PUSH3 0x180 JUMP JUMPDEST JUMPDEST PUSH3 0x61E DUP3 SLOAD PUSH3 0x3F4 JUMP JUMPDEST PUSH3 0x62B DUP3 DUP3 DUP6 PUSH3 0x554 JUMP JUMPDEST PUSH0 PUSH1 0x20 SWAP1 POP PUSH1 0x1F DUP4 GT PUSH1 0x1 DUP2 EQ PUSH3 0x661 JUMPI PUSH0 DUP5 ISZERO PUSH3 0x64C JUMPI DUP3 DUP8 ADD MLOAD SWAP1 POP JUMPDEST PUSH3 0x658 DUP6 DUP3 PUSH3 0x5CE JUMP JUMPDEST DUP7 SSTORE POP PUSH3 0x6C7 JUMP JUMPDEST PUSH1 0x1F NOT DUP5 AND PUSH3 0x671 DUP7 PUSH3 0x428 JUMP JUMPDEST PUSH0 JUMPDEST DUP3 DUP2 LT ISZERO PUSH3 0x69A JUMPI DUP5 DUP10 ADD MLOAD DUP3 SSTORE PUSH1 0x1 DUP3 ADD SWAP2 POP PUSH1 0x20 DUP6 ADD SWAP5 POP PUSH1 0x20 DUP2 ADD SWAP1 POP PUSH3 0x673 JUMP JUMPDEST DUP7 DUP4 LT ISZERO PUSH3 0x6BA JUMPI DUP5 DUP10 ADD MLOAD PUSH3 0x6B6 PUSH1 0x1F DUP10 AND DUP3 PUSH3 0x5B0 JUMP JUMPDEST DUP4 SSTORE POP JUMPDEST PUSH1 0x1 PUSH1 0x2 DUP9 MUL ADD DUP9 SSTORE POP POP POP JUMPDEST POP POP POP POP POP POP JUMP JUMPDEST PUSH2 0x14FD DUP1 PUSH3 0x6DD PUSH0 CODECOPY PUSH0 RETURN INVALID PUSH1 0x80 PUSH1 0x40 MSTORE PUSH1 0x4 CALLDATASIZE LT PUSH2 0xDC JUMPI PUSH0 CALLDATALOAD PUSH1 0xE0 SHR DUP1 PUSH4 0x82FDE093 GT PUSH2 0x7E JUMPI DUP1 PUSH4 0x97654A8C GT PUSH2 0x58 JUMPI DUP1 PUSH4 0x97654A8C EQ PUSH2 0x2AF JUMPI DUP1 PUSH4 0xABA83150 EQ PUSH2 0x2D9 JUMPI DUP1 PUSH4 0xD7BB99BA EQ PUSH2 0x303 JUMPI DUP1 PUSH4 0xD7D1BBDB EQ PUSH2 0x30D JUMPI PUSH2 0xDC JUMP JUMPDEST DUP1 PUSH4 0x82FDE093 EQ PUSH2 0x233 JUMPI DUP1 PUSH4 0x8A9CFD55 EQ PUSH2 0x25D JUMPI DUP1 PUSH4 0x937E09B1 EQ PUSH2 0x285 JUMPI PUSH2 0xDC JUMP JUMPDEST DUP1 PUSH4 0x4051DDAC GT PUSH2 0xBA JUMPI DUP1 PUSH4 0x4051DDAC EQ PUSH2 0x16E JUMPI DUP1 PUSH4 0x481C6A75 EQ PUSH2 0x19F JUMPI DUP1 PUSH4 0x7E7CD1B3 EQ PUSH2 0x1C9 JUMPI DUP1 PUSH4 0x81D12C58 EQ PUSH2 0x1F3 JUMPI PUSH2 0xDC JUMP JUMPDEST DUP1 PUSH4 0x3441006 EQ PUSH2 0xE0 JUMPI DUP1 PUSH4 0xA144391 EQ PUSH2 0x108 JUMPI DUP1 PUSH4 0x3410452A EQ PUSH2 0x144 JUMPI JUMPDEST PUSH0 DUP1 REVERT JUMPDEST CALLVALUE DUP1 ISZERO PUSH2 0xEB JUMPI PUSH0 DUP1 REVERT JUMPDEST POP PUSH2 0x106 PUSH1 0x4 DUP1 CALLDATASIZE SUB DUP2 ADD SWAP1 PUSH2 0x101 SWAP2 SWAP1 PUSH2 0xCA2 JUMP JUMPDEST PUSH2 0x335 JUMP JUMPDEST STOP JUMPDEST CALLVALUE DUP1 ISZERO PUSH2 0x113 JUMPI PUSH0 DUP1 REVERT JUMPDEST POP PUSH2 0x12E PUSH1 0x4 DUP1 CALLDATASIZE SUB DUP2 ADD SWAP1 PUSH2 0x129 SWAP2 SWAP1 PUSH2 0xD27 JUMP JUMPDEST PUSH2 0x473 JUMP JUMPDEST PUSH1 0x40 MLOAD PUSH2 0x13B SWAP2 SWAP1 PUSH2 0xD6C JUMP JUMPDEST PUSH1 0x40 MLOAD DUP1 SWAP2 SUB SWAP1 RETURN JUMPDEST CALLVALUE DUP1 ISZERO PUSH2 0x14F JUMPI PUSH0 DUP1 REVERT JUMPDEST POP PUSH2 0x158 PUSH2 0x490 JUMP JUMPDEST PUSH1 0x40 MLOAD PUSH2 0x165 SWAP2 SWAP1 PUSH2 0xD94 JUMP JUMPDEST PUSH1 0x40 MLOAD DUP1 SWAP2 SUB SWAP1 RETURN JUMPDEST CALLVALUE DUP1 ISZERO PUSH2 0x179 JUMPI PUSH0 DUP1 REVERT JUMPDEST POP PUSH2 0x182 PUSH2 0x49B JUMP JUMPDEST PUSH1 0x40 MLOAD PUSH2 0x196 SWAP9 SWAP8 SWAP7 SWAP6 SWAP5 SWAP4 SWAP3 SWAP2 SWAP1 PUSH2 0xE46 JUMP JUMPDEST PUSH1 0x40 MLOAD DUP1 SWAP2 SUB SWAP1 RETURN JUMPDEST CALLVALUE DUP1 ISZERO PUSH2 0x1AA JUMPI PUSH0 DUP1 REVERT JUMPDEST POP PUSH2 0x1B3 PUSH2 0x691 JUMP JUMPDEST PUSH1 0x40 MLOAD PUSH2 0x1C0 SWAP2 SWAP1 PUSH2 0xED7 JUMP JUMPDEST PUSH1 0x40 MLOAD DUP1 SWAP2 SUB SWAP1 RETURN JUMPDEST CALLVALUE DUP1 ISZERO PUSH2 0x1D4 JUMPI PUSH0 DUP1 REVERT JUMPDEST POP PUSH2 0x1DD PUSH2 0x6B6 JUMP JUMPDEST PUSH1 0x40 MLOAD PUSH2 0x1EA SWAP2 SWAP1 PUSH2 0xEF0 JUMP JUMPDEST PUSH1 0x40 MLOAD DUP1 SWAP2 SUB SWAP1 RETURN JUMPDEST CALLVALUE DUP1 ISZERO PUSH2 0x1FE JUMPI PUSH0 DUP1 REVERT JUMPDEST POP PUSH2 0x219 PUSH1 0x4 DUP1 CALLDATASIZE SUB DUP2 ADD SWAP1 PUSH2 0x214 SWAP2 SWAP1 PUSH2 0xCA2 JUMP JUMPDEST PUSH2 0x742 JUMP JUMPDEST PUSH1 0x40 MLOAD PUSH2 0x22A SWAP6 SWAP5 SWAP4 SWAP3 SWAP2 SWAP1 PUSH2 0xF10 JUMP JUMPDEST PUSH1 0x40 MLOAD DUP1 SWAP2 SUB SWAP1 RETURN JUMPDEST CALLVALUE DUP1 ISZERO PUSH2 0x23E JUMPI PUSH0 DUP1 REVERT JUMPDEST POP PUSH2 0x247 PUSH2 0x834 JUMP JUMPDEST PUSH1 0x40 MLOAD PUSH2 0x254 SWAP2 SWAP1 PUSH2 0xD94 JUMP JUMPDEST PUSH1 0x40 MLOAD DUP1 SWAP2 SUB SWAP1 RETURN JUMPDEST CALLVALUE DUP1 ISZERO PUSH2 0x268 JUMPI PUSH0 DUP1 REVERT JUMPDEST POP PUSH2 0x283 PUSH1 0x4 DUP1 CALLDATASIZE SUB DUP2 ADD SWAP1 PUSH2 0x27E SWAP2 SWAP1 PUSH2 0x1094 JUMP JUMPDEST PUSH2 0x83A JUMP JUMPDEST STOP JUMPDEST CALLVALUE DUP1 ISZERO PUSH2 0x290 JUMPI PUSH0 DUP1 REVERT JUMPDEST POP PUSH2 0x299 PUSH2 0x939 JUMP JUMPDEST PUSH1 0x40 MLOAD PUSH2 0x2A6 SWAP2 SWAP1 PUSH2 0xD94 JUMP JUMPDEST PUSH1 0x40 MLOAD DUP1 SWAP2 SUB SWAP1 RETURN JUMPDEST CALLVALUE DUP1 ISZERO PUSH2 0x2BA JUMPI PUSH0 DUP1 REVERT JUMPDEST POP PUSH2 0x2C3 PUSH2 0x93F JUMP JUMPDEST PUSH1 0x40 MLOAD PUSH2 0x2D0 SWAP2 SWAP1 PUSH2 0xEF0 JUMP JUMPDEST PUSH1 0x40 MLOAD DUP1 SWAP2 SUB SWAP1 RETURN JUMPDEST CALLVALUE DUP1 ISZERO PUSH2 0x2E4 JUMPI PUSH0 DUP1 REVERT JUMPDEST POP PUSH2 0x2ED PUSH2 0x9CB JUMP JUMPDEST PUSH1 0x40 MLOAD PUSH2 0x2FA SWAP2 SWAP1 PUSH2 0xEF0 JUMP JUMPDEST PUSH1 0x40 MLOAD DUP1 SWAP2 SUB SWAP1 RETURN JUMPDEST PUSH2 0x30B PUSH2 0xA57 JUMP JUMPDEST STOP JUMPDEST CALLVALUE DUP1 ISZERO PUSH2 0x318 JUMPI PUSH0 DUP1 REVERT JUMPDEST POP PUSH2 0x333 PUSH1 0x4 DUP1 CALLDATASIZE SUB DUP2 ADD SWAP1 PUSH2 0x32E SWAP2 SWAP1 PUSH2 0xCA2 JUMP JUMPDEST PUSH2 0xB21 JUMP JUMPDEST STOP JUMPDEST PUSH1 0x1 PUSH0 SWAP1 SLOAD SWAP1 PUSH2 0x100 EXP SWAP1 DIV PUSH20 0xFFFFFFFFFFFFFFFFFFFFFFFFFFFFFFFFFFFFFFFF AND PUSH20 0xFFFFFFFFFFFFFFFFFFFFFFFFFFFFFFFFFFFFFFFF AND CALLER PUSH20 0xFFFFFFFFFFFFFFFFFFFFFFFFFFFFFFFFFFFFFFFF AND EQ PUSH2 0x38D JUMPI PUSH0 DUP1 REVERT JUMPDEST PUSH0 DUP1 DUP3 DUP2 SLOAD DUP2 LT PUSH2 0x3A1 JUMPI PUSH2 0x3A0 PUSH2 0x1100 JUMP JUMPDEST JUMPDEST SWAP1 PUSH0 MSTORE PUSH1 0x20 PUSH0 KECCAK256 SWAP1 PUSH1 0x5 MUL ADD SWAP1 POP DUP1 PUSH1 0x2 ADD PUSH1 0x14 SWAP1 SLOAD SWAP1 PUSH2 0x100 EXP SWAP1 DIV PUSH1 0xFF AND ISZERO PUSH2 0x3CA JUMPI PUSH0 DUP1 REVERT JUMPDEST PUSH1 0x2 PUSH1 0x7 SLOAD PUSH2 0x3D9 SWAP2 SWAP1 PUSH2 0x1187 JUMP JUMPDEST DUP2 PUSH1 0x3 ADD SLOAD GT PUSH2 0x3E7 JUMPI PUSH0 DUP1 REVERT JUMPDEST DUP1 PUSH1 0x2 ADD PUSH0 SWAP1 SLOAD SWAP1 PUSH2 0x100 EXP SWAP1 DIV PUSH20 0xFFFFFFFFFFFFFFFFFFFFFFFFFFFFFFFFFFFFFFFF AND PUSH20 0xFFFFFFFFFFFFFFFFFFFFFFFFFFFFFFFFFFFFFFFF AND PUSH2 0x8FC DUP3 PUSH1 0x1 ADD SLOAD SWAP1 DUP2 ISZERO MUL SWAP1 PUSH1 0x40 MLOAD PUSH0 PUSH1 0x40 MLOAD DUP1 DUP4 SUB DUP2 DUP6 DUP9 DUP9 CALL SWAP4 POP POP POP POP ISZERO DUP1 ISZERO PUSH2 0x451 JUMPI RETURNDATASIZE PUSH0 DUP1 RETURNDATACOPY RETURNDATASIZE PUSH0 REVERT JUMPDEST POP PUSH1 0x1 DUP2 PUSH1 0x2 ADD PUSH1 0x14 PUSH2 0x100 EXP DUP2 SLOAD DUP2 PUSH1 0xFF MUL NOT AND SWAP1 DUP4 ISZERO ISZERO MUL OR SWAP1 SSTORE POP POP POP JUMP JUMPDEST PUSH1 0x6 PUSH1 0x20 MSTORE DUP1 PUSH0 MSTORE PUSH1 0x40 PUSH0 KECCAK256 PUSH0 SWAP2 POP SLOAD SWAP1 PUSH2 0x100 EXP SWAP1 DIV PUSH1 0xFF AND DUP2 JUMP JUMPDEST PUSH0 DUP1 DUP1 SLOAD SWAP1 POP SWAP1 POP SWAP1 JUMP JUMPDEST PUSH0 DUP1 PUSH0 DUP1 PUSH0 PUSH1 0x60 DUP1 PUSH1 0x60 PUSH1 0x2 SLOAD SELFBALANCE PUSH0 DUP1 SLOAD SWAP1 POP PUSH1 0x7 SLOAD PUSH1 0x1 PUSH0 SWAP1 SLOAD SWAP1 PUSH2 0x100 EXP SWAP1 DIV PUSH20 0xFFFFFFFFFFFFFFFFFFFFFFFFFFFFFFFFFFFFFFFF AND PUSH1 0x3 PUSH1 0x4 PUSH1 0x5 DUP3 DUP1 SLOAD PUSH2 0x4E5 SWAP1 PUSH2 0x11E4 JUMP JUMPDEST DUP1 PUSH1 0x1F ADD PUSH1 0x20 DUP1 SWAP2 DIV MUL PUSH1 0x20 ADD PUSH1 0x40 MLOAD SWAP1 DUP2 ADD PUSH1 0x40 MSTORE DUP1 SWAP3 SWAP2 SWAP1 DUP2 DUP2 MSTORE PUSH1 0x20 ADD DUP3 DUP1 SLOAD PUSH2 0x511 SWAP1 PUSH2 0x11E4 JUMP JUMPDEST DUP1 ISZERO PUSH2 0x55C JUMPI DUP1 PUSH1 0x1F LT PUSH2 0x533 JUMPI PUSH2 0x100 DUP1 DUP4 SLOAD DIV MUL DUP4 MSTORE SWAP2 PUSH1 0x20 ADD SWAP2 PUSH2 0x55C JUMP JUMPDEST DUP3 ADD SWAP2 SWAP1 PUSH0 MSTORE PUSH1 0x20 PUSH0 KECCAK256 SWAP1 JUMPDEST DUP2 SLOAD DUP2 MSTORE SWAP1 PUSH1 0x1 ADD SWAP1 PUSH1 0x20 ADD DUP1 DUP4 GT PUSH2 0x53F JUMPI DUP3 SWAP1 SUB PUSH1 0x1F AND DUP3 ADD SWAP2 JUMPDEST POP POP POP POP POP SWAP3 POP DUP2 DUP1 SLOAD PUSH2 0x56F SWAP1 PUSH2 0x11E4 JUMP JUMPDEST DUP1 PUSH1 0x1F ADD PUSH1 0x20 DUP1 SWAP2 DIV MUL PUSH1 0x20 ADD PUSH1 0x40 MLOAD SWAP1 DUP2 ADD PUSH1 0x40 MSTORE DUP1 SWAP3 SWAP2 SWAP1 DUP2 DUP2 MSTORE PUSH1 0x20 ADD DUP3 DUP1 SLOAD PUSH2 0x59B SWAP1 PUSH2 0x11E4 JUMP JUMPDEST DUP1 ISZERO PUSH2 0x5E6 JUMPI DUP1 PUSH1 0x1F LT PUSH2 0x5BD JUMPI PUSH2 0x100 DUP1 DUP4 SLOAD DIV MUL DUP4 MSTORE SWAP2 PUSH1 0x20 ADD SWAP2 PUSH2 0x5E6 JUMP JUMPDEST DUP3 ADD SWAP2 SWAP1 PUSH0 MSTORE PUSH1 0x20 PUSH0 KECCAK256 SWAP1 JUMPDEST DUP2 SLOAD DUP2 MSTORE SWAP1 PUSH1 0x1 ADD SWAP1 PUSH1 0x20 ADD DUP1 DUP4 GT PUSH2 0x5C9 JUMPI DUP3 SWAP1 SUB PUSH1 0x1F AND DUP3 ADD SWAP2 JUMPDEST POP POP POP POP POP SWAP2 POP DUP1 DUP1 SLOAD PUSH2 0x5F9 SWAP1 PUSH2 0x11E4 JUMP JUMPDEST DUP1 PUSH1 0x1F ADD PUSH1 0x20 DUP1 SWAP2 DIV MUL PUSH1 0x20 ADD PUSH1 0x40 MLOAD SWAP1 DUP2 ADD PUSH1 0x40 MSTORE DUP1 SWAP3 SWAP2 SWAP1 DUP2 DUP2 MSTORE PUSH1 0x20 ADD DUP3 DUP1 SLOAD PUSH2 0x625 SWAP1 PUSH2 0x11E4 JUMP JUMPDEST DUP1 ISZERO PUSH2 0x670 JUMPI DUP1 PUSH1 0x1F LT PUSH2 0x647 JUMPI PUSH2 0x100 DUP1 DUP4 SLOAD DIV MUL DUP4 MSTORE SWAP2 PUSH1 0x20 ADD SWAP2 PUSH2 0x670 JUMP JUMPDEST DUP3 ADD SWAP2 SWAP1 PUSH0 MSTORE PUSH1 0x20 PUSH0 KECCAK256 SWAP1 JUMPDEST DUP2 SLOAD DUP2 MSTORE SWAP1 PUSH1 0x1 ADD SWAP1 PUSH1 0x20 ADD DUP1 DUP4 GT PUSH2 0x653 JUMPI DUP3 SWAP1 SUB PUSH1 0x1F AND DUP3 ADD SWAP2 JUMPDEST POP POP POP POP POP SWAP1 POP SWAP8 POP SWAP8 POP SWAP8 POP SWAP8 POP SWAP8 POP SWAP8 POP SWAP8 POP SWAP8 POP SWAP1 SWAP2 SWAP3 SWAP4 SWAP5 SWAP6 SWAP7 SWAP8 JUMP JUMPDEST PUSH1 0x1 PUSH0 SWAP1 SLOAD SWAP1 PUSH2 0x100 EXP SWAP1 DIV PUSH20 0xFFFFFFFFFFFFFFFFFFFFFFFFFFFFFFFFFFFFFFFF AND DUP2 JUMP JUMPDEST PUSH1 0x3 DUP1 SLOAD PUSH2 0x6C3 SWAP1 PUSH2 0x11E4 JUMP JUMPDEST DUP1 PUSH1 0x1F ADD PUSH1 0x20 DUP1 SWAP2 DIV MUL PUSH1 0x20 ADD PUSH1 0x40 MLOAD SWAP1 DUP2 ADD PUSH1 0x40 MSTORE DUP1 SWAP3 SWAP2 SWAP1 DUP2 DUP2 MSTORE PUSH1 0x20 ADD DUP3 DUP1 SLOAD PUSH2 0x6EF SWAP1 PUSH2 0x11E4 JUMP JUMPDEST DUP1 ISZERO PUSH2 0x73A JUMPI DUP1 PUSH1 0x1F LT PUSH2 0x711 JUMPI PUSH2 0x100 DUP1 DUP4 SLOAD DIV MUL DUP4 MSTORE SWAP2 PUSH1 0x20 ADD SWAP2 PUSH2 0x73A JUMP JUMPDEST DUP3 ADD SWAP2 SWAP1 PUSH0 MSTORE PUSH1 0x20 PUSH0 KECCAK256 SWAP1 JUMPDEST DUP2 SLOAD DUP2 MSTORE SWAP1 PUSH1 0x1 ADD SWAP1 PUSH1 0x20 ADD DUP1 DUP4 GT PUSH2 0x71D JUMPI DUP3 SWAP1 SUB PUSH1 0x1F AND DUP3 ADD SWAP2 JUMPDEST POP POP POP POP POP DUP2 JUMP JUMPDEST PUSH0 DUP2 DUP2 SLOAD DUP2 LT PUSH2 0x750 JUMPI PUSH0 DUP1 REVERT JUMPDEST SWAP1 PUSH0 MSTORE PUSH1 0x20 PUSH0 KECCAK256 SWAP1 PUSH1 0x5 MUL ADD PUSH0 SWAP2 POP SWAP1 POP DUP1 PUSH0 ADD DUP1 SLOAD PUSH2 0x76F SWAP1 PUSH2 0x11E4 JUMP JUMPDEST DUP1 PUSH1 0x1F ADD PUSH1 0x20 DUP1 SWAP2 DIV MUL PUSH1 0x20 ADD PUSH1 0x40 MLOAD SWAP1 DUP2 ADD PUSH1 0x40 MSTORE DUP1 SWAP3 SWAP2 SWAP1 DUP2 DUP2 MSTORE PUSH1 0x20 ADD DUP3 DUP1 SLOAD PUSH2 0x79B SWAP1 PUSH2 0x11E4 JUMP JUMPDEST DUP1 ISZERO PUSH2 0x7E6 JUMPI DUP1 PUSH1 0x1F LT PUSH2 0x7BD JUMPI PUSH2 0x100 DUP1 DUP4 SLOAD DIV MUL DUP4 MSTORE SWAP2 PUSH1 0x20 ADD SWAP2 PUSH2 0x7E6 JUMP JUMPDEST DUP3 ADD SWAP2 SWAP1 PUSH0 MSTORE PUSH1 0x20 PUSH0 KECCAK256 SWAP1 JUMPDEST DUP2 SLOAD DUP2 MSTORE SWAP1 PUSH1 0x1 ADD SWAP1 PUSH1 0x20 ADD DUP1 DUP4 GT PUSH2 0x7C9 JUMPI DUP3 SWAP1 SUB PUSH1 0x1F AND DUP3 ADD SWAP2 JUMPDEST POP POP POP POP POP SWAP1 DUP1 PUSH1 0x1 ADD SLOAD SWAP1 DUP1 PUSH1 0x2 ADD PUSH0 SWAP1 SLOAD SWAP1 PUSH2 0x100 EXP SWAP1 DIV PUSH20 0xFFFFFFFFFFFFFFFFFFFFFFFFFFFFFFFFFFFFFFFF AND SWAP1 DUP1 PUSH1 0x2 ADD PUSH1 0x14 SWAP1 SLOAD SWAP1 PUSH2 0x100 EXP SWAP1 DIV PUSH1 0xFF AND SWAP1 DUP1 PUSH1 0x3 ADD SLOAD SWAP1 POP DUP6 JUMP JUMPDEST PUSH1 0x7 SLOAD DUP2 JUMP JUMPDEST PUSH1 0x1 PUSH0 SWAP1 SLOAD SWAP1 PUSH2 0x100 EXP SWAP1 DIV PUSH20 0xFFFFFFFFFFFFFFFFFFFFFFFFFFFFFFFFFFFFFFFF AND PUSH20 0xFFFFFFFFFFFFFFFFFFFFFFFFFFFFFFFFFFFFFFFF AND CALLER PUSH20 0xFFFFFFFFFFFFFFFFFFFFFFFFFFFFFFFFFFFFFFFF AND EQ PUSH2 0x892 JUMPI PUSH0 DUP1 REVERT JUMPDEST PUSH0 DUP1 PUSH1 0x1 DUP2 PUSH1 0x1 DUP2 SLOAD ADD DUP1 DUP3 SSTORE DUP1 SWAP2 POP POP SUB SWAP1 PUSH0 MSTORE PUSH1 0x20 PUSH0 KECCAK256 SWAP1 PUSH1 0x5 MUL ADD SWAP1 POP DUP4 DUP2 PUSH0 ADD SWAP1 DUP2 PUSH2 0x8C2 SWAP2 SWAP1 PUSH2 0x13B1 JUMP JUMPDEST POP DUP3 DUP2 PUSH1 0x1 ADD DUP2 SWAP1 SSTORE POP DUP2 DUP2 PUSH1 0x2 ADD PUSH0 PUSH2 0x100 EXP DUP2 SLOAD DUP2 PUSH20 0xFFFFFFFFFFFFFFFFFFFFFFFFFFFFFFFFFFFFFFFF MUL NOT AND SWAP1 DUP4 PUSH20 0xFFFFFFFFFFFFFFFFFFFFFFFFFFFFFFFFFFFFFFFF AND MUL OR SWAP1 SSTORE POP PUSH0 DUP2 PUSH1 0x2 ADD PUSH1 0x14 PUSH2 0x100 EXP DUP2 SLOAD DUP2 PUSH1 0xFF MUL NOT AND SWAP1 DUP4 ISZERO ISZERO MUL OR SWAP1 SSTORE POP PUSH0 DUP2 PUSH1 0x3 ADD DUP2 SWAP1 SSTORE POP POP POP POP POP JUMP JUMPDEST PUSH1 0x2 SLOAD DUP2 JUMP JUMPDEST PUSH1 0x4 DUP1 SLOAD PUSH2 0x94C SWAP1 PUSH2 0x11E4 JUMP JUMPDEST DUP1 PUSH1 0x1F ADD PUSH1 0x20 DUP1 SWAP2 DIV MUL PUSH1 0x20 ADD PUSH1 0x40 MLOAD SWAP1 DUP2 ADD PUSH1 0x40 MSTORE DUP1 SWAP3 SWAP2 SWAP1 DUP2 DUP2 MSTORE PUSH1 0x20 ADD DUP3 DUP1 SLOAD PUSH2 0x978 SWAP1 PUSH2 0x11E4 JUMP JUMPDEST DUP1 ISZERO PUSH2 0x9C3 JUMPI DUP1 PUSH1 0x1F LT PUSH2 0x99A JUMPI PUSH2 0x100 DUP1 DUP4 SLOAD DIV MUL DUP4 MSTORE SWAP2 PUSH1 0x20 ADD SWAP2 PUSH2 0x9C3 JUMP JUMPDEST DUP3 ADD SWAP2 SWAP1 PUSH0 MSTORE PUSH1 0x20 PUSH0 KECCAK256 SWAP1 JUMPDEST DUP2 SLOAD DUP2 MSTORE SWAP1 PUSH1 0x1 ADD SWAP1 PUSH1 0x20 ADD DUP1 DUP4 GT PUSH2 0x9A6 JUMPI DUP3 SWAP1 SUB PUSH1 0x1F AND DUP3 ADD SWAP2 JUMPDEST POP POP POP POP POP DUP2 JUMP JUMPDEST PUSH1 0x5 DUP1 SLOAD PUSH2 0x9D8 SWAP1 PUSH2 0x11E4 JUMP JUMPDEST DUP1 PUSH1 0x1F ADD PUSH1 0x20 DUP1 SWAP2 DIV MUL PUSH1 0x20 ADD PUSH1 0x40 MLOAD SWAP1 DUP2 ADD PUSH1 0x40 MSTORE DUP1 SWAP3 SWAP2 SWAP1 DUP2 DUP2 MSTORE PUSH1 0x20 ADD DUP3 DUP1 SLOAD PUSH2 0xA04 SWAP1 PUSH2 0x11E4 JUMP JUMPDEST DUP1 ISZERO PUSH2 0xA4F JUMPI DUP1 PUSH1 0x1F LT PUSH2 0xA26 JUMPI PUSH2 0x100 DUP1 DUP4 SLOAD DIV MUL DUP4 MSTORE SWAP2 PUSH1 0x20 ADD SWAP2 PUSH2 0xA4F JUMP JUMPDEST DUP3 ADD SWAP2 SWAP1 PUSH0 MSTORE PUSH1 0x20 PUSH0 KECCAK256 SWAP1 JUMPDEST DUP2 SLOAD DUP2 MSTORE SWAP1 PUSH1 0x1 ADD SWAP1 PUSH1 0x20 ADD DUP1 DUP4 GT PUSH2 0xA32 JUMPI DUP3 SWAP1 SUB PUSH1 0x1F AND DUP3 ADD SWAP2 JUMPDEST POP POP POP POP POP DUP2 JUMP JUMPDEST PUSH1 0x2 SLOAD CALLVALUE GT PUSH2 0xA64 JUMPI PUSH0 DUP1 REVERT JUMPDEST PUSH1 0x6 PUSH0 CALLER PUSH20 0xFFFFFFFFFFFFFFFFFFFFFFFFFFFFFFFFFFFFFFFF AND PUSH20 0xFFFFFFFFFFFFFFFFFFFFFFFFFFFFFFFFFFFFFFFF AND DUP2 MSTORE PUSH1 0x20 ADD SWAP1 DUP2 MSTORE PUSH1 0x20 ADD PUSH0 KECCAK256 PUSH0 SWAP1 SLOAD SWAP1 PUSH2 0x100 EXP SWAP1 DIV PUSH1 0xFF AND PUSH2 0xB1F JUMPI PUSH1 0x7 PUSH0 DUP2 SLOAD DUP1 SWAP3 SWAP2 SWAP1 PUSH2 0xAC4 SWAP1 PUSH2 0x1480 JUMP JUMPDEST SWAP2 SWAP1 POP SSTORE POP PUSH1 0x1 PUSH1 0x6 PUSH0 CALLER PUSH20 0xFFFFFFFFFFFFFFFFFFFFFFFFFFFFFFFFFFFFFFFF AND PUSH20 0xFFFFFFFFFFFFFFFFFFFFFFFFFFFFFFFFFFFFFFFF AND DUP2 MSTORE PUSH1 0x20 ADD SWAP1 DUP2 MSTORE PUSH1 0x20 ADD PUSH0 KECCAK256 PUSH0 PUSH2 0x100 EXP DUP2 SLOAD DUP2 PUSH1 0xFF MUL NOT AND SWAP1 DUP4 ISZERO ISZERO MUL OR SWAP1 SSTORE POP JUMPDEST JUMP JUMPDEST PUSH0 DUP1 DUP3 DUP2 SLOAD DUP2 LT PUSH2 0xB35 JUMPI PUSH2 0xB34 PUSH2 0x1100 JUMP JUMPDEST JUMPDEST SWAP1 PUSH0 MSTORE PUSH1 0x20 PUSH0 KECCAK256 SWAP1 PUSH1 0x5 MUL ADD SWAP1 POP PUSH1 0x6 PUSH0 CALLER PUSH20 0xFFFFFFFFFFFFFFFFFFFFFFFFFFFFFFFFFFFFFFFF AND PUSH20 0xFFFFFFFFFFFFFFFFFFFFFFFFFFFFFFFFFFFFFFFF AND DUP2 MSTORE PUSH1 0x20 ADD SWAP1 DUP2 MSTORE PUSH1 0x20 ADD PUSH0 KECCAK256 PUSH0 SWAP1 SLOAD SWAP1 PUSH2 0x100 EXP SWAP1 DIV PUSH1 0xFF AND PUSH2 0xB95 JUMPI PUSH0 DUP1 REVERT JUMPDEST DUP1 PUSH1 0x4 ADD PUSH0 CALLER PUSH20 0xFFFFFFFFFFFFFFFFFFFFFFFFFFFFFFFFFFFFFFFF AND PUSH20 0xFFFFFFFFFFFFFFFFFFFFFFFFFFFFFFFFFFFFFFFF AND DUP2 MSTORE PUSH1 0x20 ADD SWAP1 DUP2 MSTORE PUSH1 0x20 ADD PUSH0 KECCAK256 PUSH0 SWAP1 SLOAD SWAP1 PUSH2 0x100 EXP SWAP1 DIV PUSH1 0xFF AND ISZERO PUSH2 0xBEA JUMPI PUSH0 DUP1 REVERT JUMPDEST PUSH1 0x1 DUP2 PUSH1 0x4 ADD PUSH0 CALLER PUSH20 0xFFFFFFFFFFFFFFFFFFFFFFFFFFFFFFFFFFFFFFFF AND PUSH20 0xFFFFFFFFFFFFFFFFFFFFFFFFFFFFFFFFFFFFFFFF AND DUP2 MSTORE PUSH1 0x20 ADD SWAP1 DUP2 MSTORE PUSH1 0x20 ADD PUSH0 KECCAK256 PUSH0 PUSH2 0x100 EXP DUP2 SLOAD DUP2 PUSH1 0xFF MUL NOT AND SWAP1 DUP4 ISZERO ISZERO MUL OR SWAP1 SSTORE POP DUP1 PUSH1 0x3 ADD PUSH0 DUP2 SLOAD DUP1 SWAP3 SWAP2 SWAP1 PUSH2 0xC55 SWAP1 PUSH2 0x1480 JUMP JUMPDEST SWAP2 SWAP1 POP SSTORE POP POP POP JUMP JUMPDEST PUSH0 PUSH1 0x40 MLOAD SWAP1 POP SWAP1 JUMP JUMPDEST PUSH0 DUP1 REVERT JUMPDEST PUSH0 DUP1 REVERT JUMPDEST PUSH0 DUP2 SWAP1 POP SWAP2 SWAP1 POP JUMP JUMPDEST PUSH2 0xC81 DUP2 PUSH2 0xC6F JUMP JUMPDEST DUP2 EQ PUSH2 0xC8B JUMPI PUSH0 DUP1 REVERT JUMPDEST POP JUMP JUMPDEST PUSH0 DUP2 CALLDATALOAD SWAP1 POP PUSH2 0xC9C DUP2 PUSH2 0xC78 JUMP JUMPDEST SWAP3 SWAP2 POP POP JUMP JUMPDEST PUSH0 PUSH1 0x20 DUP3 DUP5 SUB SLT ISZERO PUSH2 0xCB7 JUMPI PUSH2 0xCB6 PUSH2 0xC67 JUMP JUMPDEST JUMPDEST PUSH0 PUSH2 0xCC4 DUP5 DUP3 DUP6 ADD PUSH2 0xC8E JUMP JUMPDEST SWAP2 POP POP SWAP3 SWAP2 POP POP JUMP JUMPDEST PUSH0 PUSH20 0xFFFFFFFFFFFFFFFFFFFFFFFFFFFFFFFFFFFFFFFF DUP3 AND SWAP1 POP SWAP2 SWAP1 POP JUMP JUMPDEST PUSH0 PUSH2 0xCF6 DUP3 PUSH2 0xCCD JUMP JUMPDEST SWAP1 POP SWAP2 SWAP1 POP JUMP JUMPDEST PUSH2 0xD06 DUP2 PUSH2 0xCEC JUMP JUMPDEST DUP2 EQ PUSH2 0xD10 JUMPI PUSH0 DUP1 REVERT JUMPDEST POP JUMP JUMPDEST PUSH0 DUP2 CALLDATALOAD SWAP1 POP PUSH2 0xD21 DUP2 PUSH2 0xCFD JUMP JUMPDEST SWAP3 SWAP2 POP POP JUMP JUMPDEST PUSH0 PUSH1 0x20 DUP3 DUP5 SUB SLT ISZERO PUSH2 0xD3C JUMPI PUSH2 0xD3B PUSH2 0xC67 JUMP JUMPDEST JUMPDEST PUSH0 PUSH2 0xD49 DUP5 DUP3 DUP6 ADD PUSH2 0xD13 JUMP JUMPDEST SWAP2 POP POP SWAP3 SWAP2 POP POP JUMP JUMPDEST PUSH0 DUP2 ISZERO ISZERO SWAP1 POP SWAP2 SWAP1 POP JUMP JUMPDEST PUSH2 0xD66 DUP2 PUSH2 0xD52 JUMP JUMPDEST DUP3 MSTORE POP POP JUMP JUMPDEST PUSH0 PUSH1 0x20 DUP3 ADD SWAP1 POP PUSH2 0xD7F PUSH0 DUP4 ADD DUP5 PUSH2 0xD5D JUMP JUMPDEST SWAP3 SWAP2 POP POP JUMP JUMPDEST PUSH2 0xD8E DUP2 PUSH2 0xC6F JUMP JUMPDEST DUP3 MSTORE POP POP JUMP JUMPDEST PUSH0 PUSH1 0x20 DUP3 ADD SWAP1 POP PUSH2 0xDA7 PUSH0 DUP4 ADD DUP5 PUSH2 0xD85 JUMP JUMPDEST SWAP3 SWAP2 POP POP JUMP JUMPDEST PUSH2 0xDB6 DUP2 PUSH2 0xCEC JUMP JUMPDEST DUP3 MSTORE POP POP JUMP JUMPDEST PUSH0 DUP2 MLOAD SWAP1 POP SWAP2 SWAP1 POP JUMP JUMPDEST PUSH0 DUP3 DUP3 MSTORE PUSH1 0x20 DUP3 ADD SWAP1 POP SWAP3 SWAP2 POP POP JUMP JUMPDEST PUSH0 JUMPDEST DUP4 DUP2 LT ISZERO PUSH2 0xDF3 JUMPI DUP1 DUP3 ADD MLOAD DUP2 DUP5 ADD MSTORE PUSH1 0x20 DUP2 ADD SWAP1 POP PUSH2 0xDD8 JUMP JUMPDEST PUSH0 DUP5 DUP5 ADD MSTORE POP POP POP POP JUMP JUMPDEST PUSH0 PUSH1 0x1F NOT PUSH1 0x1F DUP4 ADD AND SWAP1 POP SWAP2 SWAP1 POP JUMP JUMPDEST PUSH0 PUSH2 0xE18 DUP3 PUSH2 0xDBC JUMP JUMPDEST PUSH2 0xE22 DUP2 DUP6 PUSH2 0xDC6 JUMP JUMPDEST SWAP4 POP PUSH2 0xE32 DUP2 DUP6 PUSH1 0x20 DUP7 ADD PUSH2 0xDD6 JUMP JUMPDEST PUSH2 0xE3B DUP2 PUSH2 0xDFE JUMP JUMPDEST DUP5 ADD SWAP2 POP POP SWAP3 SWAP2 POP POP JUMP JUMPDEST PUSH0 PUSH2 0x100 DUP3 ADD SWAP1 POP PUSH2 0xE5A PUSH0 DUP4 ADD DUP12 PUSH2 0xD85 JUMP JUMPDEST PUSH2 0xE67 PUSH1 0x20 DUP4 ADD DUP11 PUSH2 0xD85 JUMP JUMPDEST PUSH2 0xE74 PUSH1 0x40 DUP4 ADD DUP10 PUSH2 0xD85 JUMP JUMPDEST PUSH2 0xE81 PUSH1 0x60 DUP4 ADD DUP9 PUSH2 0xD85 JUMP JUMPDEST PUSH2 0xE8E PUSH1 0x80 DUP4 ADD DUP8 PUSH2 0xDAD JUMP JUMPDEST DUP2 DUP2 SUB PUSH1 0xA0 DUP4 ADD MSTORE PUSH2 0xEA0 DUP2 DUP7 PUSH2 0xE0E JUMP JUMPDEST SWAP1 POP DUP2 DUP2 SUB PUSH1 0xC0 DUP4 ADD MSTORE PUSH2 0xEB4 DUP2 DUP6 PUSH2 0xE0E JUMP JUMPDEST SWAP1 POP DUP2 DUP2 SUB PUSH1 0xE0 DUP4 ADD MSTORE PUSH2 0xEC8 DUP2 DUP5 PUSH2 0xE0E JUMP JUMPDEST SWAP1 POP SWAP10 SWAP9 POP POP POP POP POP POP POP POP POP JUMP JUMPDEST PUSH0 PUSH1 0x20 DUP3 ADD SWAP1 POP PUSH2 0xEEA PUSH0 DUP4 ADD DUP5 PUSH2 0xDAD JUMP JUMPDEST SWAP3 SWAP2 POP POP JUMP JUMPDEST PUSH0 PUSH1 0x20 DUP3 ADD SWAP1 POP DUP2 DUP2 SUB PUSH0 DUP4 ADD MSTORE PUSH2 0xF08 DUP2 DUP5 PUSH2 0xE0E JUMP JUMPDEST SWAP1 POP SWAP3 SWAP2 POP POP JUMP JUMPDEST PUSH0 PUSH1 0xA0 DUP3 ADD SWAP1 POP DUP2 DUP2 SUB PUSH0 DUP4 ADD MSTORE PUSH2 0xF28 DUP2 DUP9 PUSH2 0xE0E JUMP JUMPDEST SWAP1 POP PUSH2 0xF37 PUSH1 0x20 DUP4 ADD DUP8 PUSH2 0xD85 JUMP JUMPDEST PUSH2 0xF44 PUSH1 0x40 DUP4 ADD DUP7 PUSH2 0xDAD JUMP JUMPDEST PUSH2 0xF51 PUSH1 0x60 DUP4 ADD DUP6 PUSH2 0xD5D JUMP JUMPDEST PUSH2 0xF5E PUSH1 0x80 DUP4 ADD DUP5 PUSH2 0xD85 JUMP JUMPDEST SWAP7 SWAP6 POP POP POP POP POP POP JUMP JUMPDEST PUSH0 DUP1 REVERT JUMPDEST PUSH0 DUP1 REVERT JUMPDEST PUSH32 0x4E487B7100000000000000000000000000000000000000000000000000000000 PUSH0 MSTORE PUSH1 0x41 PUSH1 0x4 MSTORE PUSH1 0x24 PUSH0 REVERT JUMPDEST PUSH2 0xFA6 DUP3 PUSH2 0xDFE JUMP JUMPDEST DUP2 ADD DUP2 DUP2 LT PUSH8 0xFFFFFFFFFFFFFFFF DUP3 GT OR ISZERO PUSH2 0xFC5 JUMPI PUSH2 0xFC4 PUSH2 0xF70 JUMP JUMPDEST JUMPDEST DUP1 PUSH1 0x40 MSTORE POP POP POP JUMP JUMPDEST PUSH0 PUSH2 0xFD7 PUSH2 0xC5E JUMP JUMPDEST SWAP1 POP PUSH2 0xFE3 DUP3 DUP3 PUSH2 0xF9D JUMP JUMPDEST SWAP2 SWAP1 POP JUMP JUMPDEST PUSH0 PUSH8 0xFFFFFFFFFFFFFFFF DUP3 GT ISZERO PUSH2 0x1002 JUMPI PUSH2 0x1001 PUSH2 0xF70 JUMP JUMPDEST JUMPDEST PUSH2 0x100B DUP3 PUSH2 0xDFE JUMP JUMPDEST SWAP1 POP PUSH1 0x20 DUP2 ADD SWAP1 POP SWAP2 SWAP1 POP JUMP JUMPDEST DUP3 DUP2 DUP4 CALLDATACOPY PUSH0 DUP4 DUP4 ADD MSTORE POP POP POP JUMP JUMPDEST PUSH0 PUSH2 0x1038 PUSH2 0x1033 DUP5 PUSH2 0xFE8 JUMP JUMPDEST PUSH2 0xFCE JUMP JUMPDEST SWAP1 POP DUP3 DUP2 MSTORE PUSH1 0x20 DUP2 ADD DUP5 DUP5 DUP5 ADD GT ISZERO PUSH2 0x1054 JUMPI PUSH2 0x1053 PUSH2 0xF6C JUMP JUMPDEST JUMPDEST PUSH2 0x105F DUP5 DUP3 DUP6 PUSH2 0x1018 JUMP JUMPDEST POP SWAP4 SWAP3 POP POP POP JUMP JUMPDEST PUSH0 DUP3 PUSH1 0x1F DUP4 ADD SLT PUSH2 0x107B JUMPI PUSH2 0x107A PUSH2 0xF68 JUMP JUMPDEST JUMPDEST DUP2 CALLDATALOAD PUSH2 0x108B DUP5 DUP3 PUSH1 0x20 DUP7 ADD PUSH2 0x1026 JUMP JUMPDEST SWAP2 POP POP SWAP3 SWAP2 POP POP JUMP JUMPDEST PUSH0 DUP1 PUSH0 PUSH1 0x60 DUP5 DUP7 SUB SLT ISZERO PUSH2 0x10AB JUMPI PUSH2 0x10AA PUSH2 0xC67 JUMP JUMPDEST JUMPDEST PUSH0 DUP5 ADD CALLDATALOAD PUSH8 0xFFFFFFFFFFFFFFFF DUP2 GT ISZERO PUSH2 0x10C8 JUMPI PUSH2 0x10C7 PUSH2 0xC6B JUMP JUMPDEST JUMPDEST PUSH2 0x10D4 DUP7 DUP3 DUP8 ADD PUSH2 0x1067 JUMP JUMPDEST SWAP4 POP POP PUSH1 0x20 PUSH2 0x10E5 DUP7 DUP3 DUP8 ADD PUSH2 0xC8E JUMP JUMPDEST SWAP3 POP POP PUSH1 0x40 PUSH2 0x10F6 DUP7 DUP3 DUP8 ADD PUSH2 0xD13 JUMP JUMPDEST SWAP2 POP POP SWAP3 POP SWAP3 POP SWAP3 JUMP JUMPDEST PUSH32 0x4E487B7100000000000000000000000000000000000000000000000000000000 PUSH0 MSTORE PUSH1 0x32 PUSH1 0x4 MSTORE PUSH1 0x24 PUSH0 REVERT JUMPDEST PUSH32 0x4E487B7100000000000000000000000000000000000000000000000000000000 PUSH0 MSTORE PUSH1 0x12 PUSH1 0x4 MSTORE PUSH1 0x24 PUSH0 REVERT JUMPDEST PUSH32 0x4E487B7100000000000000000000000000000000000000000000000000000000 PUSH0 MSTORE PUSH1 0x11 PUSH1 0x4 MSTORE PUSH1 0x24 PUSH0 REVERT JUMPDEST PUSH0 PUSH2 0x1191 DUP3 PUSH2 0xC6F JUMP JUMPDEST SWAP2 POP PUSH2 0x119C DUP4 PUSH2 0xC6F JUMP JUMPDEST SWAP3 POP DUP3 PUSH2 0x11AC JUMPI PUSH2 0x11AB PUSH2 0x112D JUMP JUMPDEST JUMPDEST DUP3 DUP3 DIV SWAP1 POP SWAP3 SWAP2 POP POP JUMP JUMPDEST PUSH32 0x4E487B7100000000000000000000000000000000000000000000000000000000 PUSH0 MSTORE PUSH1 0x22 PUSH1 0x4 MSTORE PUSH1 0x24 PUSH0 REVERT JUMPDEST PUSH0 PUSH1 0x2 DUP3 DIV SWAP1 POP PUSH1 0x1 DUP3 AND DUP1 PUSH2 0x11FB JUMPI PUSH1 0x7F DUP3 AND SWAP2 POP JUMPDEST PUSH1 0x20 DUP3 LT DUP2 SUB PUSH2 0x120E JUMPI PUSH2 0x120D PUSH2 0x11B7 JUMP JUMPDEST JUMPDEST POP SWAP2 SWAP1 POP JUMP JUMPDEST PUSH0 DUP2 SWAP1 POP DUP2 PUSH0 MSTORE PUSH1 0x20 PUSH0 KECCAK256 SWAP1 POP SWAP2 SWAP1 POP JUMP JUMPDEST PUSH0 PUSH1 0x20 PUSH1 0x1F DUP4 ADD DIV SWAP1 POP SWAP2 SWAP1 POP JUMP JUMPDEST PUSH0 DUP3 DUP3 SHL SWAP1 POP SWAP3 SWAP2 POP POP JUMP JUMPDEST PUSH0 PUSH1 0x8 DUP4 MUL PUSH2 0x1270 PUSH32 0xFFFFFFFFFFFFFFFFFFFFFFFFFFFFFFFFFFFFFFFFFFFFFFFFFFFFFFFFFFFFFFFF DUP3 PUSH2 0x1235 JUMP JUMPDEST PUSH2 0x127A DUP7 DUP4 PUSH2 0x1235 JUMP JUMPDEST SWAP6 POP DUP1 NOT DUP5 AND SWAP4 POP DUP1 DUP7 AND DUP5 OR SWAP3 POP POP POP SWAP4 SWAP3 POP POP POP JUMP JUMPDEST PUSH0 DUP2 SWAP1 POP SWAP2 SWAP1 POP JUMP JUMPDEST PUSH0 PUSH2 0x12B5 PUSH2 0x12B0 PUSH2 0x12AB DUP5 PUSH2 0xC6F JUMP JUMPDEST PUSH2 0x1292 JUMP JUMPDEST PUSH2 0xC6F JUMP JUMPDEST SWAP1 POP SWAP2 SWAP1 POP JUMP JUMPDEST PUSH0 DUP2 SWAP1 POP SWAP2 SWAP1 POP JUMP JUMPDEST PUSH2 0x12CE DUP4 PUSH2 0x129B JUMP JUMPDEST PUSH2 0x12E2 PUSH2 0x12DA DUP3 PUSH2 0x12BC JUMP JUMPDEST DUP5 DUP5 SLOAD PUSH2 0x1241 JUMP JUMPDEST DUP3 SSTORE POP POP POP POP JUMP JUMPDEST PUSH0 SWAP1 JUMP JUMPDEST PUSH2 0x12F6 PUSH2 0x12EA JUMP JUMPDEST PUSH2 0x1301 DUP2 DUP5 DUP5 PUSH2 0x12C5 JUMP JUMPDEST POP POP POP JUMP JUMPDEST JUMPDEST DUP2 DUP2 LT ISZERO PUSH2 0x1324 JUMPI PUSH2 0x1319 PUSH0 DUP3 PUSH2 0x12EE JUMP JUMPDEST PUSH1 0x1 DUP2 ADD SWAP1 POP PUSH2 0x1307 JUMP JUMPDEST POP POP JUMP JUMPDEST PUSH1 0x1F DUP3 GT ISZERO PUSH2 0x1369 JUMPI PUSH2 0x133A DUP2 PUSH2 0x1214 JUMP JUMPDEST PUSH2 0x1343 DUP5 PUSH2 0x1226 JUMP JUMPDEST DUP2 ADD PUSH1 0x20 DUP6 LT ISZERO PUSH2 0x1352 JUMPI DUP2 SWAP1 POP JUMPDEST PUSH2 0x1366 PUSH2 0x135E DUP6 PUSH2 0x1226 JUMP JUMPDEST DUP4 ADD DUP3 PUSH2 0x1306 JUMP JUMPDEST POP POP JUMPDEST POP POP POP JUMP JUMPDEST PUSH0 DUP3 DUP3 SHR SWAP1 POP SWAP3 SWAP2 POP POP JUMP JUMPDEST PUSH0 PUSH2 0x1389 PUSH0 NOT DUP5 PUSH1 0x8 MUL PUSH2 0x136E JUMP JUMPDEST NOT DUP1 DUP4 AND SWAP2 POP POP SWAP3 SWAP2 POP POP JUMP JUMPDEST PUSH0 PUSH2 0x13A1 DUP4 DUP4 PUSH2 0x137A JUMP JUMPDEST SWAP2 POP DUP3 PUSH1 0x2 MUL DUP3 OR SWAP1 POP SWAP3 SWAP2 POP POP JUMP JUMPDEST PUSH2 0x13BA DUP3 PUSH2 0xDBC JUMP JUMPDEST PUSH8 0xFFFFFFFFFFFFFFFF DUP2 GT ISZERO PUSH2 0x13D3 JUMPI PUSH2 0x13D2 PUSH2 0xF70 JUMP JUMPDEST JUMPDEST PUSH2 0x13DD DUP3 SLOAD PUSH2 0x11E4 JUMP JUMPDEST PUSH2 0x13E8 DUP3 DUP3 DUP6 PUSH2 0x1328 JUMP JUMPDEST PUSH0 PUSH1 0x20 SWAP1 POP PUSH1 0x1F DUP4 GT PUSH1 0x1 DUP2 EQ PUSH2 0x1419 JUMPI PUSH0 DUP5 ISZERO PUSH2 0x1407 JUMPI DUP3 DUP8 ADD MLOAD SWAP1 POP JUMPDEST PUSH2 0x1411 DUP6 DUP3 PUSH2 0x1396 JUMP JUMPDEST DUP7 SSTORE POP PUSH2 0x1478 JUMP JUMPDEST PUSH1 0x1F NOT DUP5 AND PUSH2 0x1427 DUP7 PUSH2 0x1214 JUMP JUMPDEST PUSH0 JUMPDEST DUP3 DUP2 LT ISZERO PUSH2 0x144E JUMPI DUP5 DUP10 ADD MLOAD DUP3 SSTORE PUSH1 0x1 DUP3 ADD SWAP2 POP PUSH1 0x20 DUP6 ADD SWAP5 POP PUSH1 0x20 DUP2 ADD SWAP1 POP PUSH2 0x1429 JUMP JUMPDEST DUP7 DUP4 LT ISZERO PUSH2 0x146B JUMPI DUP5 DUP10 ADD MLOAD PUSH2 0x1467 PUSH1 0x1F DUP10 AND DUP3 PUSH2 0x137A JUMP JUMPDEST DUP4 SSTORE POP JUMPDEST PUSH1 0x1 PUSH1 0x2 DUP9 MUL ADD DUP9 SSTORE POP POP POP JUMPDEST POP POP POP POP POP POP JUMP JUMPDEST PUSH0 PUSH2 0x148A DUP3 PUSH2 0xC6F JUMP JUMPDEST SWAP2 POP PUSH32 0xFFFFFFFFFFFFFFFFFFFFFFFFFFFFFFFFFFFFFFFFFFFFFFFFFFFFFFFFFFFFFFFF DUP3 SUB PUSH2 0x14BC JUMPI PUSH2 0x14BB PUSH2 0x115A JUMP JUMPDEST JUMPDEST PUSH1 0x1 DUP3 ADD SWAP1 POP SWAP2 SWAP1 POP JUMP INVALID LOG2 PUSH5 0x6970667358 0x22 SLT KECCAK256 AND 0xCA 0x25 PUSH32 0x543A0070746D76C41599508148BAF6DDE4B03A13BF2A6F5222CB156964736F6C PUSH4 0x43000818 STOP CALLER "},"gasEstimates":{"creation":{"codeDepositCost":"1074600","executionCost":"infinite","totalCost":"infinite"},"external":{"CampaignDescription()":"infinite","CampaignName()":"infinite","approveRequest(uint256)":"infinite","approvers(address)":"2879","approversCount()":"2448","contribute()":"53253","createRequest(string,uint256,address)":"infinite","finalizeRequest(uint256)":"infinite","getRequestsCount()":"2508","getSummary()":"infinite","imageUrl()":"infinite","manager()":"2553","minimumContribution()":"2492","requests(uint256)":"infinite"}},"methodIdentifiers":{"CampaignDescription()":"97654a8c","CampaignName()":"7e7cd1b3","approveRequest(uint256)":"d7d1bbdb","approvers(address)":"0a144391","approversCount()":"82fde093","contribute()":"d7bb99ba","createRequest(string,uint256,address)":"8a9cfd55","finalizeRequest(uint256)":"03441006","getRequestsCount()":"3410452a","getSummary()":"4051ddac","imageUrl()":"aba83150","manager()":"481c6a75","minimumContribution()":"937e09b1","requests(uint256)":"81d12c58"}},"storageLayout":{"storage":[{"astId":70,"contract":"Campaign.sol:Campaign","label":"requests","offset":0,"slot":"0","type":"t_array(t_struct(Request)66_storage)dyn_storage"},{"astId":72,"contract":"Campaign.sol:Campaign","label":"manager","offset":0,"slot":"1","type":"t_address"},{"astId":74,"contract":"Campaign.sol:Campaign","label":"minimumContribution","offset":0,"slot":"2","type":"t_uint256"},{"astId":76,"contract":"Campaign.sol:Campaign","label":"CampaignName","offset":0,"slot":"3","type":"t_string_storage"},{"astId":78,"contract":"Campaign.sol:Campaign","label":"CampaignDescription","offset":0,"slot":"4","type":"t_string_storage"},{"astId":80,"contract":"Campaign.sol:Campaign","label":"imageUrl","offset":0,"slot":"5","type":"t_string_storage"},{"astId":84,"contract":"Campaign.sol:Campaign","label":"approvers","offset":0,"slot":"6","type":"t_mapping(t_address,t_bool)"},{"astId":86,"contract":"Campaign.sol:Campaign","label":"approversCount","offset":0,"slot":"7","type":"t_uint256"}],"types":{"t_address":{"encoding":"inplace","label":"address","numberOfBytes":"20"},"t_array(t_struct(Request)66_storage)dyn_storage":{"base":"t_struct(Request)66_storage","encoding":"dynamic_array","label":"struct Campaign.Request[]","numberOfBytes":"32"},"t_bool":{"encoding":"inplace","label":"bool","numberOfBytes":"1"},"t_mapping(t_address,t_bool)":{"encoding":"mapping","key":"t_address","label":"mapping(address => bool)","numberOfBytes":"32","value":"t_bool"},"t_string_storage":{"encoding":"bytes","label":"string","numberOfBytes":"32"},"t_struct(Request)66_storage":{"encoding":"inplace","label":"struct Campaign.Request","members":[{"astId":53,"contract":"Campaign.sol:Campaign","label":"description","offset":0,"slot":"0","type":"t_string_storage"},{"astId":55,"contract":"Campaign.sol:Campaign","label":"value","offset":0,"slot":"1","type":"t_uint256"},{"astId":57,"contract":"Campaign.sol:Campaign","label":"recipient","offset":0,"slot":"2","type":"t_address"},{"astId":59,"contract":"Campaign.sol:Campaign","label":"complete","offset":20,"slot":"2","type":"t_bool"},{"astId":61,"contract":"Campaign.sol:Campaign","label":"approvalCount","offset":0,"slot":"3","type":"t_uint256"},{"astId":65,"contract":"Campaign.sol:Campaign","label":"approvals","offset":0,"slot":"4","type":"t_mapping(t_address,t_bool)"}],"numberOfBytes":"160"},"t_uint256":{"encoding":"inplace","label":"uint256","numberOfBytes":"32"}}},"userdoc":{"kind":"user","methods":{},"version":1}}